{
  "_format": "hh-sol-artifact-1",
  "contractName": "Word",
  "sourceName": "contracts/Word.sol",
  "abi": [
    {
      "inputs": [
        {
          "internalType": "string",
          "name": "_name",
          "type": "string"
        },
        {
          "internalType": "string",
          "name": "_symbol",
          "type": "string"
        }
      ],
      "stateMutability": "nonpayable",
      "type": "constructor"
    },
    {
      "anonymous": false,
      "inputs": [
        {
          "indexed": true,
          "internalType": "address",
          "name": "owner",
          "type": "address"
        },
        {
          "indexed": true,
          "internalType": "address",
          "name": "approved",
          "type": "address"
        },
        {
          "indexed": true,
          "internalType": "uint256",
          "name": "tokenId",
          "type": "uint256"
        }
      ],
      "name": "Approval",
      "type": "event"
    },
    {
      "anonymous": false,
      "inputs": [
        {
          "indexed": true,
          "internalType": "address",
          "name": "owner",
          "type": "address"
        },
        {
          "indexed": true,
          "internalType": "address",
          "name": "operator",
          "type": "address"
        },
        {
          "indexed": false,
          "internalType": "bool",
          "name": "approved",
          "type": "bool"
        }
      ],
      "name": "ApprovalForAll",
      "type": "event"
    },
    {
      "anonymous": false,
      "inputs": [
        {
          "indexed": true,
          "internalType": "address",
          "name": "previousOwner",
          "type": "address"
        },
        {
          "indexed": true,
          "internalType": "address",
          "name": "newOwner",
          "type": "address"
        }
      ],
      "name": "OwnershipTransferred",
      "type": "event"
    },
    {
      "anonymous": false,
      "inputs": [
        {
          "indexed": true,
          "internalType": "address",
          "name": "from",
          "type": "address"
        },
        {
          "indexed": true,
          "internalType": "address",
          "name": "to",
          "type": "address"
        },
        {
          "indexed": true,
          "internalType": "uint256",
          "name": "tokenId",
          "type": "uint256"
        }
      ],
      "name": "Transfer",
      "type": "event"
    },
    {
      "inputs": [
        {
          "internalType": "address",
          "name": "to",
          "type": "address"
        },
        {
          "internalType": "uint256",
          "name": "tokenId",
          "type": "uint256"
        }
      ],
      "name": "approve",
      "outputs": [],
      "stateMutability": "nonpayable",
      "type": "function"
    },
    {
      "inputs": [
        {
          "internalType": "address",
          "name": "owner",
          "type": "address"
        }
      ],
      "name": "balanceOf",
      "outputs": [
        {
          "internalType": "uint256",
          "name": "",
          "type": "uint256"
        }
      ],
      "stateMutability": "view",
      "type": "function"
    },
    {
      "inputs": [],
      "name": "buyWord",
      "outputs": [],
      "stateMutability": "payable",
      "type": "function"
    },
    {
      "inputs": [],
      "name": "freeWord",
      "outputs": [],
      "stateMutability": "nonpayable",
      "type": "function"
    },
    {
      "inputs": [
        {
          "internalType": "uint256",
          "name": "tokenId",
          "type": "uint256"
        }
      ],
      "name": "getApproved",
      "outputs": [
        {
          "internalType": "address",
          "name": "",
          "type": "address"
        }
      ],
      "stateMutability": "view",
      "type": "function"
    },
    {
      "inputs": [
        {
          "internalType": "address",
          "name": "owner",
          "type": "address"
        },
        {
          "internalType": "address",
          "name": "operator",
          "type": "address"
        }
      ],
      "name": "isApprovedForAll",
      "outputs": [
        {
          "internalType": "bool",
          "name": "",
          "type": "bool"
        }
      ],
      "stateMutability": "view",
      "type": "function"
    },
    {
      "inputs": [
        {
          "internalType": "uint256",
          "name": "tokenId",
          "type": "uint256"
        }
      ],
      "name": "letterFour",
      "outputs": [
        {
          "internalType": "string",
          "name": "",
          "type": "string"
        }
      ],
      "stateMutability": "view",
      "type": "function"
    },
    {
      "inputs": [
        {
          "internalType": "uint256",
          "name": "tokenId",
          "type": "uint256"
        }
      ],
      "name": "letterOne",
      "outputs": [
        {
          "internalType": "string",
          "name": "",
          "type": "string"
        }
      ],
      "stateMutability": "view",
      "type": "function"
    },
    {
      "inputs": [
        {
          "internalType": "uint256",
          "name": "tokenId",
          "type": "uint256"
        }
      ],
      "name": "letterThree",
      "outputs": [
        {
          "internalType": "string",
          "name": "",
          "type": "string"
        }
      ],
      "stateMutability": "view",
      "type": "function"
    },
    {
      "inputs": [
        {
          "internalType": "uint256",
          "name": "tokenId",
          "type": "uint256"
        }
      ],
      "name": "letterTwo",
      "outputs": [
        {
          "internalType": "string",
          "name": "",
          "type": "string"
        }
      ],
      "stateMutability": "view",
      "type": "function"
    },
    {
      "inputs": [
        {
          "internalType": "uint32",
          "name": "moreWords",
          "type": "uint32"
        }
      ],
      "name": "moreFreeWords",
      "outputs": [],
      "stateMutability": "nonpayable",
      "type": "function"
    },
    {
      "inputs": [],
      "name": "name",
      "outputs": [
        {
          "internalType": "string",
          "name": "",
          "type": "string"
        }
      ],
      "stateMutability": "view",
      "type": "function"
    },
    {
      "inputs": [],
      "name": "owner",
      "outputs": [
        {
          "internalType": "address",
          "name": "",
          "type": "address"
        }
      ],
      "stateMutability": "view",
      "type": "function"
    },
    {
      "inputs": [
        {
          "internalType": "uint256",
          "name": "tokenId",
          "type": "uint256"
        }
      ],
      "name": "ownerOf",
      "outputs": [
        {
          "internalType": "address",
          "name": "",
          "type": "address"
        }
      ],
      "stateMutability": "view",
      "type": "function"
    },
    {
      "inputs": [],
      "name": "renounceOwnership",
      "outputs": [],
      "stateMutability": "nonpayable",
      "type": "function"
    },
    {
      "inputs": [
        {
          "internalType": "address",
          "name": "from",
          "type": "address"
        },
        {
          "internalType": "address",
          "name": "to",
          "type": "address"
        },
        {
          "internalType": "uint256",
          "name": "tokenId",
          "type": "uint256"
        }
      ],
      "name": "safeTransferFrom",
      "outputs": [],
      "stateMutability": "nonpayable",
      "type": "function"
    },
    {
      "inputs": [
        {
          "internalType": "address",
          "name": "from",
          "type": "address"
        },
        {
          "internalType": "address",
          "name": "to",
          "type": "address"
        },
        {
          "internalType": "uint256",
          "name": "tokenId",
          "type": "uint256"
        },
        {
          "internalType": "bytes",
          "name": "_data",
          "type": "bytes"
        }
      ],
      "name": "safeTransferFrom",
      "outputs": [],
      "stateMutability": "nonpayable",
      "type": "function"
    },
    {
      "inputs": [
        {
          "internalType": "address",
          "name": "operator",
          "type": "address"
        },
        {
          "internalType": "bool",
          "name": "approved",
          "type": "bool"
        }
      ],
      "name": "setApprovalForAll",
      "outputs": [],
      "stateMutability": "nonpayable",
      "type": "function"
    },
    {
      "inputs": [
        {
          "internalType": "bytes4",
          "name": "interfaceId",
          "type": "bytes4"
        }
      ],
      "name": "supportsInterface",
      "outputs": [
        {
          "internalType": "bool",
          "name": "",
          "type": "bool"
        }
      ],
      "stateMutability": "view",
      "type": "function"
    },
    {
      "inputs": [],
      "name": "symbol",
      "outputs": [
        {
          "internalType": "string",
          "name": "",
          "type": "string"
        }
      ],
      "stateMutability": "view",
      "type": "function"
    },
    {
      "inputs": [
        {
          "internalType": "uint256",
          "name": "index",
          "type": "uint256"
        }
      ],
      "name": "tokenByIndex",
      "outputs": [
        {
          "internalType": "uint256",
          "name": "",
          "type": "uint256"
        }
      ],
      "stateMutability": "view",
      "type": "function"
    },
    {
      "inputs": [
        {
          "internalType": "address",
          "name": "owner",
          "type": "address"
        },
        {
          "internalType": "uint256",
          "name": "index",
          "type": "uint256"
        }
      ],
      "name": "tokenOfOwnerByIndex",
      "outputs": [
        {
          "internalType": "uint256",
          "name": "",
          "type": "uint256"
        }
      ],
      "stateMutability": "view",
      "type": "function"
    },
    {
      "inputs": [
        {
          "internalType": "uint256",
          "name": "tokenId",
          "type": "uint256"
        }
      ],
      "name": "tokenURI",
      "outputs": [
        {
          "internalType": "string",
          "name": "",
          "type": "string"
        }
      ],
      "stateMutability": "view",
      "type": "function"
    },
    {
      "inputs": [],
      "name": "totalSupply",
      "outputs": [
        {
          "internalType": "uint256",
          "name": "",
          "type": "uint256"
        }
      ],
      "stateMutability": "view",
      "type": "function"
    },
    {
      "inputs": [
        {
          "internalType": "address",
          "name": "from",
          "type": "address"
        },
        {
          "internalType": "address",
          "name": "to",
          "type": "address"
        },
        {
          "internalType": "uint256",
          "name": "tokenId",
          "type": "uint256"
        }
      ],
      "name": "transferFrom",
      "outputs": [],
      "stateMutability": "nonpayable",
      "type": "function"
    },
    {
      "inputs": [
        {
          "internalType": "address",
          "name": "newOwner",
          "type": "address"
        }
      ],
      "name": "transferOwnership",
      "outputs": [],
      "stateMutability": "nonpayable",
      "type": "function"
    }
  ],
  "bytecode": "0x60806040523480156200001157600080fd5b5060405162004c1338038062004c138339818101604052810190620000379190620002dd565b8181816000908051906020019062000051929190620001af565b5080600190805190602001906200006a929190620001af565b5050506001600a819055506200009562000089620000e160201b60201c565b620000e960201b60201c565b6000600b60186101000a81548163ffffffff021916908363ffffffff1602179055506001600b60146101000a81548163ffffffff021916908363ffffffff1602179055505050620004e6565b600033905090565b6000600b60009054906101000a900473ffffffffffffffffffffffffffffffffffffffff16905081600b60006101000a81548173ffffffffffffffffffffffffffffffffffffffff021916908373ffffffffffffffffffffffffffffffffffffffff1602179055508173ffffffffffffffffffffffffffffffffffffffff168173ffffffffffffffffffffffffffffffffffffffff167f8be0079c531659141344cd1fd0a4f28419497f9722a3daafe3b4186f6b6457e060405160405180910390a35050565b828054620001bd90620003f7565b90600052602060002090601f016020900481019282620001e157600085556200022d565b82601f10620001fc57805160ff19168380011785556200022d565b828001600101855582156200022d579182015b828111156200022c5782518255916020019190600101906200020f565b5b5090506200023c919062000240565b5090565b5b808211156200025b57600081600090555060010162000241565b5090565b60006200027662000270846200038b565b62000362565b905082815260208101848484011115620002955762000294620004c6565b5b620002a2848285620003c1565b509392505050565b600082601f830112620002c257620002c1620004c1565b5b8151620002d48482602086016200025f565b91505092915050565b60008060408385031215620002f757620002f6620004d0565b5b600083015167ffffffffffffffff811115620003185762000317620004cb565b5b6200032685828601620002aa565b925050602083015167ffffffffffffffff8111156200034a5762000349620004cb565b5b6200035885828601620002aa565b9150509250929050565b60006200036e62000381565b90506200037c82826200042d565b919050565b6000604051905090565b600067ffffffffffffffff821115620003a957620003a862000492565b5b620003b482620004d5565b9050602081019050919050565b60005b83811015620003e1578082015181840152602081019050620003c4565b83811115620003f1576000848401525b50505050565b600060028204905060018216806200041057607f821691505b6020821081141562000427576200042662000463565b5b50919050565b6200043882620004d5565b810181811067ffffffffffffffff821117156200045a576200045962000492565b5b80604052505050565b7f4e487b7100000000000000000000000000000000000000000000000000000000600052602260045260246000fd5b7f4e487b7100000000000000000000000000000000000000000000000000000000600052604160045260246000fd5b600080fd5b600080fd5b600080fd5b600080fd5b6000601f19601f8301169050919050565b61471d80620004f66000396000f3fe6080604052600436106101815760003560e01c80636e9f067f116100d1578063a22cb4651161008a578063c87b56dd11610064578063c87b56dd14610585578063e985e9c5146105c2578063f2fde38b146105ff578063f95bef631461062857610181565b8063a22cb4651461050a578063b88d4fde14610533578063bcfb11401461055c57610181565b80636e9f067f146103e657806370a0823114610423578063715018a61461046057806387620522146104775780638da5cb5b146104b457806395d89b41146104df57610181565b80632f5a88621161013e5780634371b0cd116101185780634371b0cd1461034b5780634f6ccce7146103625780635bc9b3071461039f5780636352211e146103a957610181565b80632f5a8862146102a85780632f745c59146102e557806342842e0e1461032257610181565b806301ffc9a71461018657806306fdde03146101c3578063081812fc146101ee578063095ea7b31461022b57806318160ddd1461025457806323b872dd1461027f575b600080fd5b34801561019257600080fd5b506101ad60048036038101906101a89190612f91565b610665565b6040516101ba9190613608565b60405180910390f35b3480156101cf57600080fd5b506101d86106df565b6040516101e59190613623565b60405180910390f35b3480156101fa57600080fd5b5061021560048036038101906102109190612feb565b610771565b60405161022291906135a1565b60405180910390f35b34801561023757600080fd5b50610252600480360381019061024d9190612f51565b6107f6565b005b34801561026057600080fd5b5061026961090e565b60405161027691906138e5565b60405180910390f35b34801561028b57600080fd5b506102a660048036038101906102a19190612e3b565b61091b565b005b3480156102b457600080fd5b506102cf60048036038101906102ca9190612feb565b61097b565b6040516102dc9190613623565b60405180910390f35b3480156102f157600080fd5b5061030c60048036038101906103079190612f51565b610a1d565b60405161031991906138e5565b60405180910390f35b34801561032e57600080fd5b5061034960048036038101906103449190612e3b565b610ac2565b005b34801561035757600080fd5b50610360610ae2565b005b34801561036e57600080fd5b5061038960048036038101906103849190612feb565b610c97565b60405161039691906138e5565b60405180910390f35b6103a7610d08565b005b3480156103b557600080fd5b506103d060048036038101906103cb9190612feb565b610e31565b6040516103dd91906135a1565b60405180910390f35b3480156103f257600080fd5b5061040d60048036038101906104089190612feb565b610ee3565b60405161041a9190613623565b60405180910390f35b34801561042f57600080fd5b5061044a60048036038101906104459190612dce565b610f85565b60405161045791906138e5565b60405180910390f35b34801561046c57600080fd5b5061047561103d565b005b34801561048357600080fd5b5061049e60048036038101906104999190612feb565b6110c5565b6040516104ab9190613623565b60405180910390f35b3480156104c057600080fd5b506104c9611167565b6040516104d691906135a1565b60405180910390f35b3480156104eb57600080fd5b506104f4611191565b6040516105019190613623565b60405180910390f35b34801561051657600080fd5b50610531600480360381019061052c9190612f11565b611223565b005b34801561053f57600080fd5b5061055a60048036038101906105559190612e8e565b6113a4565b005b34801561056857600080fd5b50610583600480360381019061057e9190613018565b611406565b005b34801561059157600080fd5b506105ac60048036038101906105a79190612feb565b6114c4565b6040516105b99190613623565b60405180910390f35b3480156105ce57600080fd5b506105e960048036038101906105e49190612dfb565b611802565b6040516105f69190613608565b60405180910390f35b34801561060b57600080fd5b5061062660048036038101906106219190612dce565b611896565b005b34801561063457600080fd5b5061064f600480360381019061064a9190612feb565b61198e565b60405161065c9190613623565b60405180910390f35b60007f780e9d63000000000000000000000000000000000000000000000000000000007bffffffffffffffffffffffffffffffffffffffffffffffffffffffff1916827bffffffffffffffffffffffffffffffffffffffffffffffffffffffff191614806106d857506106d782611a30565b5b9050919050565b6060600080546106ee90613c0c565b80601f016020809104026020016040519081016040528092919081815260200182805461071a90613c0c565b80156107675780601f1061073c57610100808354040283529160200191610767565b820191906000526020600020905b81548152906001019060200180831161074a57829003601f168201915b5050505050905090565b600061077c82611b12565b6107bb576040517f08c379a00000000000000000000000000000000000000000000000000000000081526004016107b2906137c5565b60405180910390fd5b6004600083815260200190815260200160002060009054906101000a900473ffffffffffffffffffffffffffffffffffffffff169050919050565b600061080182610e31565b90508073ffffffffffffffffffffffffffffffffffffffff168373ffffffffffffffffffffffffffffffffffffffff161415610872576040517f08c379a000000000000000000000000000000000000000000000000000000000815260040161086990613845565b60405180910390fd5b8073ffffffffffffffffffffffffffffffffffffffff16610891611b7e565b73ffffffffffffffffffffffffffffffffffffffff1614806108c057506108bf816108ba611b7e565b611802565b5b6108ff576040517f08c379a00000000000000000000000000000000000000000000000000000000081526004016108f690613745565b60405180910390fd5b6109098383611b86565b505050565b6000600880549050905090565b61092c610926611b7e565b82611c3f565b61096b576040517f08c379a000000000000000000000000000000000000000000000000000000000815260040161096290613865565b60405180910390fd5b610976838383611d1d565b505050565b6060600b60189054906101000a900463ffffffff1663ffffffff1682106109d7576040517f08c379a00000000000000000000000000000000000000000000000000000000081526004016109ce90613825565b60405180910390fd5b610a16826040518060400160405280600381526020017f4f4e450000000000000000000000000000000000000000000000000000000000815250611f79565b9050919050565b6000610a2883610f85565b8210610a69576040517f08c379a0000000000000000000000000000000000000000000000000000000008152600401610a6090613645565b60405180910390fd5b600660008473ffffffffffffffffffffffffffffffffffffffff1673ffffffffffffffffffffffffffffffffffffffff168152602001908152602001600020600083815260200190815260200160002054905092915050565b610add838383604051806020016040528060008152506113a4565b505050565b6002600a541415610b28576040517f08c379a0000000000000000000000000000000000000000000000000000000008152600401610b1f906138c5565b60405180910390fd5b6002600a819055506000610b3b33610f85565b14610b7b576040517f08c379a0000000000000000000000000000000000000000000000000000000008152600401610b72906138a5565b60405180910390fd5b6000600b60149054906101000a900463ffffffff1663ffffffff1611610bd6576040517f08c379a0000000000000000000000000000000000000000000000000000000008152600401610bcd906136c5565b60405180910390fd5b600b601881819054906101000a900463ffffffff1680929190610bf890613cb8565b91906101000a81548163ffffffff021916908363ffffffff16021790555050600b601481819054906101000a900463ffffffff1680929190610c3990613be2565b91906101000a81548163ffffffff021916908363ffffffff16021790555050610c8d610c63611b7e565b6001600b60189054906101000a900463ffffffff16610c829190613ae8565b63ffffffff16611ff0565b6001600a81905550565b6000610ca161090e565b8210610ce2576040517f08c379a0000000000000000000000000000000000000000000000000000000008152600401610cd990613885565b60405180910390fd5b60088281548110610cf657610cf5613dd2565b5b90600052602060002001549050919050565b6002600a541415610d4e576040517f08c379a0000000000000000000000000000000000000000000000000000000008152600401610d45906138c5565b60405180910390fd5b6002600a8190555060013411610d6357600080fd5b610d6b611167565b73ffffffffffffffffffffffffffffffffffffffff166108fc349081150290604051600060405180830381858888f19350505050158015610db0573d6000803e3d6000fd5b50600b601881819054906101000a900463ffffffff1680929190610dd390613cb8565b91906101000a81548163ffffffff021916908363ffffffff16021790555050610e27610dfd611b7e565b6001600b60189054906101000a900463ffffffff16610e1c9190613ae8565b63ffffffff16611ff0565b6001600a81905550565b6000806002600084815260200190815260200160002060009054906101000a900473ffffffffffffffffffffffffffffffffffffffff169050600073ffffffffffffffffffffffffffffffffffffffff168173ffffffffffffffffffffffffffffffffffffffff161415610eda576040517f08c379a0000000000000000000000000000000000000000000000000000000008152600401610ed190613785565b60405180910390fd5b80915050919050565b6060600b60189054906101000a900463ffffffff1663ffffffff168210610f3f576040517f08c379a0000000000000000000000000000000000000000000000000000000008152600401610f3690613825565b60405180910390fd5b610f7e826040518060400160405280600481526020017f464f555200000000000000000000000000000000000000000000000000000000815250611f79565b9050919050565b60008073ffffffffffffffffffffffffffffffffffffffff168273ffffffffffffffffffffffffffffffffffffffff161415610ff6576040517f08c379a0000000000000000000000000000000000000000000000000000000008152600401610fed90613765565b60405180910390fd5b600360008373ffffffffffffffffffffffffffffffffffffffff1673ffffffffffffffffffffffffffffffffffffffff168152602001908152602001600020549050919050565b611045611b7e565b73ffffffffffffffffffffffffffffffffffffffff16611063611167565b73ffffffffffffffffffffffffffffffffffffffff16146110b9576040517f08c379a00000000000000000000000000000000000000000000000000000000081526004016110b0906137e5565b60405180910390fd5b6110c3600061200e565b565b6060600b60189054906101000a900463ffffffff1663ffffffff168210611121576040517f08c379a000000000000000000000000000000000000000000000000000000000815260040161111890613825565b60405180910390fd5b611160826040518060400160405280600381526020017f54574f0000000000000000000000000000000000000000000000000000000000815250611f79565b9050919050565b6000600b60009054906101000a900473ffffffffffffffffffffffffffffffffffffffff16905090565b6060600180546111a090613c0c565b80601f01602080910402602001604051908101604052809291908181526020018280546111cc90613c0c565b80156112195780601f106111ee57610100808354040283529160200191611219565b820191906000526020600020905b8154815290600101906020018083116111fc57829003601f168201915b5050505050905090565b61122b611b7e565b73ffffffffffffffffffffffffffffffffffffffff168273ffffffffffffffffffffffffffffffffffffffff161415611299576040517f08c379a000000000000000000000000000000000000000000000000000000000815260040161129090613705565b60405180910390fd5b80600560006112a6611b7e565b73ffffffffffffffffffffffffffffffffffffffff1673ffffffffffffffffffffffffffffffffffffffff16815260200190815260200160002060008473ffffffffffffffffffffffffffffffffffffffff1673ffffffffffffffffffffffffffffffffffffffff16815260200190815260200160002060006101000a81548160ff0219169083151502179055508173ffffffffffffffffffffffffffffffffffffffff16611353611b7e565b73ffffffffffffffffffffffffffffffffffffffff167f17307eab39ab6107e8899845ad3d59bd9653f200f220920489ca2b5937696c31836040516113989190613608565b60405180910390a35050565b6113b56113af611b7e565b83611c3f565b6113f4576040517f08c379a00000000000000000000000000000000000000000000000000000000081526004016113eb90613865565b60405180910390fd5b611400848484846120d4565b50505050565b61140e611b7e565b73ffffffffffffffffffffffffffffffffffffffff1661142c611167565b73ffffffffffffffffffffffffffffffffffffffff1614611482576040517f08c379a0000000000000000000000000000000000000000000000000000000008152600401611479906137e5565b60405180910390fd5b80600b60148282829054906101000a900463ffffffff166114a391906139ef565b92506101000a81548163ffffffff021916908363ffffffff16021790555050565b60606114ce612cb8565b60405180610160016040528061012c815260200161459461012c9139816000600981106114fe576114fd613dd2565b5b602002018190525061150f8361097b565b8160016009811061152357611522613dd2565b5b602002018190525060405180606001604052806028815260200161452c602891398160026009811061155857611557613dd2565b5b6020020181905250611569836110c5565b8160036009811061157d5761157c613dd2565b5b60200201819052506040518060600160405280602881526020016146c060289139816004600981106115b2576115b1613dd2565b5b60200201819052506115c38361198e565b816005600981106115d7576115d6613dd2565b5b6020020181905250604051806060016040528060288152602001614504602891398160066009811061160c5761160b613dd2565b5b602002018190525061161d83610ee3565b8160076009811061163157611630613dd2565b5b60200201819052506040518060400160405280600d81526020017f3c2f746578743e3c2f7376673e000000000000000000000000000000000000008152508160086009811061168357611682613dd2565b5b60200201819052506000816000600981106116a1576116a0613dd2565b5b6020020151826001600981106116ba576116b9613dd2565b5b6020020151836002600981106116d3576116d2613dd2565b5b6020020151846003600981106116ec576116eb613dd2565b5b60200201518560046009811061170557611704613dd2565b5b60200201518660056009811061171e5761171d613dd2565b5b60200201518760066009811061173757611736613dd2565b5b6020020151886007600981106117505761174f613dd2565b5b60200201518960086009811061176957611768613dd2565b5b6020020151604051602001611786999897969594939291906134bb565b604051602081830303815290604052905060006117d36117a586612130565b6117ae84612291565b6040516020016117bf92919061353a565b604051602081830303815290604052612291565b9050806040516020016117e6919061357f565b6040516020818303038152906040529150819350505050919050565b6000600560008473ffffffffffffffffffffffffffffffffffffffff1673ffffffffffffffffffffffffffffffffffffffff16815260200190815260200160002060008373ffffffffffffffffffffffffffffffffffffffff1673ffffffffffffffffffffffffffffffffffffffff16815260200190815260200160002060009054906101000a900460ff16905092915050565b61189e611b7e565b73ffffffffffffffffffffffffffffffffffffffff166118bc611167565b73ffffffffffffffffffffffffffffffffffffffff1614611912576040517f08c379a0000000000000000000000000000000000000000000000000000000008152600401611909906137e5565b60405180910390fd5b600073ffffffffffffffffffffffffffffffffffffffff168173ffffffffffffffffffffffffffffffffffffffff161415611982576040517f08c379a000000000000000000000000000000000000000000000000000000000815260040161197990613685565b60405180910390fd5b61198b8161200e565b50565b6060600b60189054906101000a900463ffffffff1663ffffffff1682106119ea576040517f08c379a00000000000000000000000000000000000000000000000000000000081526004016119e190613825565b60405180910390fd5b611a29826040518060400160405280600581526020017f5448524545000000000000000000000000000000000000000000000000000000815250611f79565b9050919050565b60007f80ac58cd000000000000000000000000000000000000000000000000000000007bffffffffffffffffffffffffffffffffffffffffffffffffffffffff1916827bffffffffffffffffffffffffffffffffffffffffffffffffffffffff19161480611afb57507f5b5e139f000000000000000000000000000000000000000000000000000000007bffffffffffffffffffffffffffffffffffffffffffffffffffffffff1916827bffffffffffffffffffffffffffffffffffffffffffffffffffffffff1916145b80611b0b5750611b0a82612429565b5b9050919050565b60008073ffffffffffffffffffffffffffffffffffffffff166002600084815260200190815260200160002060009054906101000a900473ffffffffffffffffffffffffffffffffffffffff1673ffffffffffffffffffffffffffffffffffffffff1614159050919050565b600033905090565b816004600083815260200190815260200160002060006101000a81548173ffffffffffffffffffffffffffffffffffffffff021916908373ffffffffffffffffffffffffffffffffffffffff160217905550808273ffffffffffffffffffffffffffffffffffffffff16611bf983610e31565b73ffffffffffffffffffffffffffffffffffffffff167f8c5be1e5ebec7d5bd14f71427d1e84f3dd0314c0f7b2291e5b200ac8c7c3b92560405160405180910390a45050565b6000611c4a82611b12565b611c89576040517f08c379a0000000000000000000000000000000000000000000000000000000008152600401611c8090613725565b60405180910390fd5b6000611c9483610e31565b90508073ffffffffffffffffffffffffffffffffffffffff168473ffffffffffffffffffffffffffffffffffffffff161480611d0357508373ffffffffffffffffffffffffffffffffffffffff16611ceb84610771565b73ffffffffffffffffffffffffffffffffffffffff16145b80611d145750611d138185611802565b5b91505092915050565b8273ffffffffffffffffffffffffffffffffffffffff16611d3d82610e31565b73ffffffffffffffffffffffffffffffffffffffff1614611d93576040517f08c379a0000000000000000000000000000000000000000000000000000000008152600401611d8a90613805565b60405180910390fd5b600073ffffffffffffffffffffffffffffffffffffffff168273ffffffffffffffffffffffffffffffffffffffff161415611e03576040517f08c379a0000000000000000000000000000000000000000000000000000000008152600401611dfa906136e5565b60405180910390fd5b611e0e838383612493565b611e19600082611b86565b6001600360008573ffffffffffffffffffffffffffffffffffffffff1673ffffffffffffffffffffffffffffffffffffffff1681526020019081526020016000206000828254611e699190613ab4565b925050819055506001600360008473ffffffffffffffffffffffffffffffffffffffff1673ffffffffffffffffffffffffffffffffffffffff1681526020019081526020016000206000828254611ec09190613999565b92505081905550816002600083815260200190815260200160002060006101000a81548173ffffffffffffffffffffffffffffffffffffffff021916908373ffffffffffffffffffffffffffffffffffffffff160217905550808273ffffffffffffffffffffffffffffffffffffffff168473ffffffffffffffffffffffffffffffffffffffff167fddf252ad1be2c89b69c2b068fc378daa952ba7f163c4a11628f55a4df523b3ef60405160405180910390a4505050565b60606000611faf83611f8a86612130565b604051602001611f9b929190613497565b6040516020818303038152906040526125a7565b90506040518060400160405280600181526020017f410000000000000000000000000000000000000000000000000000000000000081525091505092915050565b61200a8282604051806020016040528060008152506125da565b5050565b6000600b60009054906101000a900473ffffffffffffffffffffffffffffffffffffffff16905081600b60006101000a81548173ffffffffffffffffffffffffffffffffffffffff021916908373ffffffffffffffffffffffffffffffffffffffff1602179055508173ffffffffffffffffffffffffffffffffffffffff168173ffffffffffffffffffffffffffffffffffffffff167f8be0079c531659141344cd1fd0a4f28419497f9722a3daafe3b4186f6b6457e060405160405180910390a35050565b6120df848484611d1d565b6120eb84848484612635565b61212a576040517f08c379a000000000000000000000000000000000000000000000000000000000815260040161212190613665565b60405180910390fd5b50505050565b60606000821415612178576040518060400160405280600181526020017f3000000000000000000000000000000000000000000000000000000000000000815250905061228c565b600082905060005b600082146121aa57808061219390613c6f565b915050600a826121a39190613a29565b9150612180565b60008167ffffffffffffffff8111156121c6576121c5613e01565b5b6040519080825280601f01601f1916602001820160405280156121f85781602001600182028036833780820191505090505b5090505b60008514612285576001826122119190613ab4565b9150600a856122209190613ce5565b603061222c9190613999565b60f81b81838151811061224257612241613dd2565b5b60200101907effffffffffffffffffffffffffffffffffffffffffffffffffffffffffffff1916908160001a905350600a8561227e9190613a29565b94506121fc565b8093505050505b919050565b606060008251905060008114156122ba5760405180602001604052806000815250915050612424565b600060036002836122cb9190613999565b6122d59190613a29565b60046122e19190613a5a565b905060006020826122f29190613999565b67ffffffffffffffff81111561230b5761230a613e01565b5b6040519080825280601f01601f19166020018201604052801561233d5781602001600182028036833780820191505090505b5090506000604051806060016040528060408152602001614554604091399050600181016020830160005b868110156123e15760038101905062ffffff818a015116603f8160121c168401518060081b905060ff603f83600c1c1686015116810190508060081b905060ff603f8360061c1686015116810190508060081b905060ff603f831686015116810190508060e01b90508084526004840193505050612368565b5060038606600181146123fb576002811461240b57612416565b613d3d60f01b6002830352612416565b603d60f81b60018303525b508484525050819450505050505b919050565b60007f01ffc9a7000000000000000000000000000000000000000000000000000000007bffffffffffffffffffffffffffffffffffffffffffffffffffffffff1916827bffffffffffffffffffffffffffffffffffffffffffffffffffffffff1916149050919050565b61249e8383836127cc565b600073ffffffffffffffffffffffffffffffffffffffff168373ffffffffffffffffffffffffffffffffffffffff1614156124e1576124dc816127d1565b612520565b8173ffffffffffffffffffffffffffffffffffffffff168373ffffffffffffffffffffffffffffffffffffffff161461251f5761251e838261281a565b5b5b600073ffffffffffffffffffffffffffffffffffffffff168273ffffffffffffffffffffffffffffffffffffffff1614156125635761255e81612987565b6125a2565b8273ffffffffffffffffffffffffffffffffffffffff168273ffffffffffffffffffffffffffffffffffffffff16146125a1576125a08282612a58565b5b5b505050565b6000816040516020016125ba9190613480565b6040516020818303038152906040528051906020012060001c9050919050565b6125e48383612ad7565b6125f16000848484612635565b612630576040517f08c379a000000000000000000000000000000000000000000000000000000000815260040161262790613665565b60405180910390fd5b505050565b60006126568473ffffffffffffffffffffffffffffffffffffffff16612ca5565b156127bf578373ffffffffffffffffffffffffffffffffffffffff1663150b7a0261267f611b7e565b8786866040518563ffffffff1660e01b81526004016126a194939291906135bc565b602060405180830381600087803b1580156126bb57600080fd5b505af19250505080156126ec57506040513d601f19601f820116820180604052508101906126e99190612fbe565b60015b61276f573d806000811461271c576040519150601f19603f3d011682016040523d82523d6000602084013e612721565b606091505b50600081511415612767576040517f08c379a000000000000000000000000000000000000000000000000000000000815260040161275e90613665565b60405180910390fd5b805181602001fd5b63150b7a0260e01b7bffffffffffffffffffffffffffffffffffffffffffffffffffffffff1916817bffffffffffffffffffffffffffffffffffffffffffffffffffffffff1916149150506127c4565b600190505b949350505050565b505050565b6008805490506009600083815260200190815260200160002081905550600881908060018154018082558091505060019003906000526020600020016000909190919091505550565b6000600161282784610f85565b6128319190613ab4565b9050600060076000848152602001908152602001600020549050818114612916576000600660008673ffffffffffffffffffffffffffffffffffffffff1673ffffffffffffffffffffffffffffffffffffffff168152602001908152602001600020600084815260200190815260200160002054905080600660008773ffffffffffffffffffffffffffffffffffffffff1673ffffffffffffffffffffffffffffffffffffffff168152602001908152602001600020600084815260200190815260200160002081905550816007600083815260200190815260200160002081905550505b6007600084815260200190815260200160002060009055600660008573ffffffffffffffffffffffffffffffffffffffff1673ffffffffffffffffffffffffffffffffffffffff16815260200190815260200160002060008381526020019081526020016000206000905550505050565b6000600160088054905061299b9190613ab4565b90506000600960008481526020019081526020016000205490506000600883815481106129cb576129ca613dd2565b5b9060005260206000200154905080600883815481106129ed576129ec613dd2565b5b906000526020600020018190555081600960008381526020019081526020016000208190555060096000858152602001908152602001600020600090556008805480612a3c57612a3b613da3565b5b6001900381819060005260206000200160009055905550505050565b6000612a6383610f85565b905081600660008573ffffffffffffffffffffffffffffffffffffffff1673ffffffffffffffffffffffffffffffffffffffff168152602001908152602001600020600083815260200190815260200160002081905550806007600084815260200190815260200160002081905550505050565b600073ffffffffffffffffffffffffffffffffffffffff168273ffffffffffffffffffffffffffffffffffffffff161415612b47576040517f08c379a0000000000000000000000000000000000000000000000000000000008152600401612b3e906137a5565b60405180910390fd5b612b5081611b12565b15612b90576040517f08c379a0000000000000000000000000000000000000000000000000000000008152600401612b87906136a5565b60405180910390fd5b612b9c60008383612493565b6001600360008473ffffffffffffffffffffffffffffffffffffffff1673ffffffffffffffffffffffffffffffffffffffff1681526020019081526020016000206000828254612bec9190613999565b92505081905550816002600083815260200190815260200160002060006101000a81548173ffffffffffffffffffffffffffffffffffffffff021916908373ffffffffffffffffffffffffffffffffffffffff160217905550808273ffffffffffffffffffffffffffffffffffffffff16600073ffffffffffffffffffffffffffffffffffffffff167fddf252ad1be2c89b69c2b068fc378daa952ba7f163c4a11628f55a4df523b3ef60405160405180910390a45050565b600080823b905060008111915050919050565b6040518061012001604052806009905b6060815260200190600190039081612cc85790505090565b6000612cf3612cee84613925565b613900565b905082815260208101848484011115612d0f57612d0e613e35565b5b612d1a848285613ba0565b509392505050565b600081359050612d3181614490565b92915050565b600081359050612d46816144a7565b92915050565b600081359050612d5b816144be565b92915050565b600081519050612d70816144be565b92915050565b600082601f830112612d8b57612d8a613e30565b5b8135612d9b848260208601612ce0565b91505092915050565b600081359050612db3816144d5565b92915050565b600081359050612dc8816144ec565b92915050565b600060208284031215612de457612de3613e3f565b5b6000612df284828501612d22565b91505092915050565b60008060408385031215612e1257612e11613e3f565b5b6000612e2085828601612d22565b9250506020612e3185828601612d22565b9150509250929050565b600080600060608486031215612e5457612e53613e3f565b5b6000612e6286828701612d22565b9350506020612e7386828701612d22565b9250506040612e8486828701612da4565b9150509250925092565b60008060008060808587031215612ea857612ea7613e3f565b5b6000612eb687828801612d22565b9450506020612ec787828801612d22565b9350506040612ed887828801612da4565b925050606085013567ffffffffffffffff811115612ef957612ef8613e3a565b5b612f0587828801612d76565b91505092959194509250565b60008060408385031215612f2857612f27613e3f565b5b6000612f3685828601612d22565b9250506020612f4785828601612d37565b9150509250929050565b60008060408385031215612f6857612f67613e3f565b5b6000612f7685828601612d22565b9250506020612f8785828601612da4565b9150509250929050565b600060208284031215612fa757612fa6613e3f565b5b6000612fb584828501612d4c565b91505092915050565b600060208284031215612fd457612fd3613e3f565b5b6000612fe284828501612d61565b91505092915050565b60006020828403121561300157613000613e3f565b5b600061300f84828501612da4565b91505092915050565b60006020828403121561302e5761302d613e3f565b5b600061303c84828501612db9565b91505092915050565b61304e81613b1c565b82525050565b61305d81613b2e565b82525050565b600061306e82613956565b613078818561396c565b9350613088818560208601613baf565b61309181613e44565b840191505092915050565b60006130a782613961565b6130b1818561397d565b93506130c1818560208601613baf565b6130ca81613e44565b840191505092915050565b60006130e082613961565b6130ea818561398e565b93506130fa818560208601613baf565b80840191505092915050565b6000613113602b8361397d565b915061311e82613e55565b604082019050919050565b600061313660328361397d565b915061314182613ea4565b604082019050919050565b600061315960268361397d565b915061316482613ef3565b604082019050919050565b600061317c601c8361397d565b915061318782613f42565b602082019050919050565b600061319f604e8361398e565b91506131aa82613f6b565b604e82019050919050565b60006131c260138361397d565b91506131cd82613fe0565b602082019050919050565b60006131e560248361397d565b91506131f082614009565b604082019050919050565b600061320860198361397d565b915061321382614058565b602082019050919050565b600061322b602c8361397d565b915061323682614081565b604082019050919050565b600061324e60388361397d565b9150613259826140d0565b604082019050919050565b6000613271602a8361397d565b915061327c8261411f565b604082019050919050565b600061329460298361397d565b915061329f8261416e565b604082019050919050565b60006132b760028361398e565b91506132c2826141bd565b600282019050919050565b60006132da60208361397d565b91506132e5826141e6565b602082019050919050565b60006132fd602c8361397d565b91506133088261420f565b604082019050919050565b600061332060208361397d565b915061332b8261425e565b602082019050919050565b600061334360298361397d565b915061334e82614287565b604082019050919050565b600061336660128361397d565b9150613371826142d6565b602082019050919050565b600061338960138361398e565b9150613394826142ff565b601382019050919050565b60006133ac60218361397d565b91506133b782614328565b604082019050919050565b60006133cf601d8361398e565b91506133da82614377565b601d82019050919050565b60006133f260318361397d565b91506133fd826143a0565b604082019050919050565b6000613415602c8361397d565b9150613420826143ef565b604082019050919050565b600061343860138361397d565b91506134438261443e565b602082019050919050565b600061345b601f8361397d565b915061346682614467565b602082019050919050565b61347a81613b86565b82525050565b600061348c82846130d5565b915081905092915050565b60006134a382856130d5565b91506134af82846130d5565b91508190509392505050565b60006134c7828c6130d5565b91506134d3828b6130d5565b91506134df828a6130d5565b91506134eb82896130d5565b91506134f782886130d5565b915061350382876130d5565b915061350f82866130d5565b915061351b82856130d5565b915061352782846130d5565b91508190509a9950505050505050505050565b60006135458261337c565b915061355182856130d5565b915061355c82613192565b915061356882846130d5565b9150613573826132aa565b91508190509392505050565b600061358a826133c2565b915061359682846130d5565b915081905092915050565b60006020820190506135b66000830184613045565b92915050565b60006080820190506135d16000830187613045565b6135de6020830186613045565b6135eb6040830185613471565b81810360608301526135fd8184613063565b905095945050505050565b600060208201905061361d6000830184613054565b92915050565b6000602082019050818103600083015261363d818461309c565b905092915050565b6000602082019050818103600083015261365e81613106565b9050919050565b6000602082019050818103600083015261367e81613129565b9050919050565b6000602082019050818103600083015261369e8161314c565b9050919050565b600060208201905081810360008301526136be8161316f565b9050919050565b600060208201905081810360008301526136de816131b5565b9050919050565b600060208201905081810360008301526136fe816131d8565b9050919050565b6000602082019050818103600083015261371e816131fb565b9050919050565b6000602082019050818103600083015261373e8161321e565b9050919050565b6000602082019050818103600083015261375e81613241565b9050919050565b6000602082019050818103600083015261377e81613264565b9050919050565b6000602082019050818103600083015261379e81613287565b9050919050565b600060208201905081810360008301526137be816132cd565b9050919050565b600060208201905081810360008301526137de816132f0565b9050919050565b600060208201905081810360008301526137fe81613313565b9050919050565b6000602082019050818103600083015261381e81613336565b9050919050565b6000602082019050818103600083015261383e81613359565b9050919050565b6000602082019050818103600083015261385e8161339f565b9050919050565b6000602082019050818103600083015261387e816133e5565b9050919050565b6000602082019050818103600083015261389e81613408565b9050919050565b600060208201905081810360008301526138be8161342b565b9050919050565b600060208201905081810360008301526138de8161344e565b9050919050565b60006020820190506138fa6000830184613471565b92915050565b600061390a61391b565b90506139168282613c3e565b919050565b6000604051905090565b600067ffffffffffffffff8211156139405761393f613e01565b5b61394982613e44565b9050602081019050919050565b600081519050919050565b600081519050919050565b600082825260208201905092915050565b600082825260208201905092915050565b600081905092915050565b60006139a482613b86565b91506139af83613b86565b9250827fffffffffffffffffffffffffffffffffffffffffffffffffffffffffffffffff038211156139e4576139e3613d16565b5b828201905092915050565b60006139fa82613b90565b9150613a0583613b90565b92508263ffffffff03821115613a1e57613a1d613d16565b5b828201905092915050565b6000613a3482613b86565b9150613a3f83613b86565b925082613a4f57613a4e613d45565b5b828204905092915050565b6000613a6582613b86565b9150613a7083613b86565b9250817fffffffffffffffffffffffffffffffffffffffffffffffffffffffffffffffff0483118215151615613aa957613aa8613d16565b5b828202905092915050565b6000613abf82613b86565b9150613aca83613b86565b925082821015613add57613adc613d16565b5b828203905092915050565b6000613af382613b90565b9150613afe83613b90565b925082821015613b1157613b10613d16565b5b828203905092915050565b6000613b2782613b66565b9050919050565b60008115159050919050565b60007fffffffff0000000000000000000000000000000000000000000000000000000082169050919050565b600073ffffffffffffffffffffffffffffffffffffffff82169050919050565b6000819050919050565b600063ffffffff82169050919050565b82818337600083830152505050565b60005b83811015613bcd578082015181840152602081019050613bb2565b83811115613bdc576000848401525b50505050565b6000613bed82613b90565b91506000821415613c0157613c00613d16565b5b600182039050919050565b60006002820490506001821680613c2457607f821691505b60208210811415613c3857613c37613d74565b5b50919050565b613c4782613e44565b810181811067ffffffffffffffff82111715613c6657613c65613e01565b5b80604052505050565b6000613c7a82613b86565b91507fffffffffffffffffffffffffffffffffffffffffffffffffffffffffffffffff821415613cad57613cac613d16565b5b600182019050919050565b6000613cc382613b90565b915063ffffffff821415613cda57613cd9613d16565b5b600182019050919050565b6000613cf082613b86565b9150613cfb83613b86565b925082613d0b57613d0a613d45565b5b828206905092915050565b7f4e487b7100000000000000000000000000000000000000000000000000000000600052601160045260246000fd5b7f4e487b7100000000000000000000000000000000000000000000000000000000600052601260045260246000fd5b7f4e487b7100000000000000000000000000000000000000000000000000000000600052602260045260246000fd5b7f4e487b7100000000000000000000000000000000000000000000000000000000600052603160045260246000fd5b7f4e487b7100000000000000000000000000000000000000000000000000000000600052603260045260246000fd5b7f4e487b7100000000000000000000000000000000000000000000000000000000600052604160045260246000fd5b600080fd5b600080fd5b600080fd5b600080fd5b6000601f19601f8301169050919050565b7f455243373231456e756d657261626c653a206f776e657220696e646578206f7560008201527f74206f6620626f756e6473000000000000000000000000000000000000000000602082015250565b7f4552433732313a207472616e7366657220746f206e6f6e20455243373231526560008201527f63656976657220696d706c656d656e7465720000000000000000000000000000602082015250565b7f4f776e61626c653a206e6577206f776e657220697320746865207a65726f206160008201527f6464726573730000000000000000000000000000000000000000000000000000602082015250565b7f4552433732313a20746f6b656e20616c7265616479206d696e74656400000000600082015250565b7f222c20226465736372697074696f6e223a202274686973206973206120776f7260008201527f64206d61796265222c2022696d616765223a2022646174613a696d6167652f7360208201527f76672b786d6c3b6261736536342c000000000000000000000000000000000000604082015250565b7f4e6f206d6f7265206672656520776f7264732e00000000000000000000000000600082015250565b7f4552433732313a207472616e7366657220746f20746865207a65726f2061646460008201527f7265737300000000000000000000000000000000000000000000000000000000602082015250565b7f4552433732313a20617070726f766520746f2063616c6c657200000000000000600082015250565b7f4552433732313a206f70657261746f7220717565727920666f72206e6f6e657860008201527f697374656e7420746f6b656e0000000000000000000000000000000000000000602082015250565b7f4552433732313a20617070726f76652063616c6c6572206973206e6f74206f7760008201527f6e6572206e6f7220617070726f76656420666f7220616c6c0000000000000000602082015250565b7f4552433732313a2062616c616e636520717565727920666f7220746865207a6560008201527f726f206164647265737300000000000000000000000000000000000000000000602082015250565b7f4552433732313a206f776e657220717565727920666f72206e6f6e657869737460008201527f656e7420746f6b656e0000000000000000000000000000000000000000000000602082015250565b7f227d000000000000000000000000000000000000000000000000000000000000600082015250565b7f4552433732313a206d696e7420746f20746865207a65726f2061646472657373600082015250565b7f4552433732313a20617070726f76656420717565727920666f72206e6f6e657860008201527f697374656e7420746f6b656e0000000000000000000000000000000000000000602082015250565b7f4f776e61626c653a2063616c6c6572206973206e6f7420746865206f776e6572600082015250565b7f4552433732313a207472616e73666572206f6620746f6b656e2074686174206960008201527f73206e6f74206f776e0000000000000000000000000000000000000000000000602082015250565b7f576f7264206e6f74206d616465207965742e0000000000000000000000000000600082015250565b7f7b226e616d65223a2022576f72642e2e2e3f2000000000000000000000000000600082015250565b7f4552433732313a20617070726f76616c20746f2063757272656e74206f776e6560008201527f7200000000000000000000000000000000000000000000000000000000000000602082015250565b7f646174613a6170706c69636174696f6e2f6a736f6e3b6261736536342c000000600082015250565b7f4552433732313a207472616e736665722063616c6c6572206973206e6f74206f60008201527f776e6572206e6f7220617070726f766564000000000000000000000000000000602082015250565b7f455243373231456e756d657261626c653a20676c6f62616c20696e646578206f60008201527f7574206f6620626f756e64730000000000000000000000000000000000000000602082015250565b7f416c7265616479206f776e206120776f72642e00000000000000000000000000600082015250565b7f5265656e7472616e637947756172643a207265656e7472616e742063616c6c00600082015250565b61449981613b1c565b81146144a457600080fd5b50565b6144b081613b2e565b81146144bb57600080fd5b50565b6144c781613b3a565b81146144d257600080fd5b50565b6144de81613b86565b81146144e957600080fd5b50565b6144f581613b90565b811461450057600080fd5b5056fe3c2f746578743e3c7465787420783d2237352220793d2234302220636c6173733d2262617365223e3c2f746578743e3c7465787420783d2233352220793d2234302220636c6173733d2262617365223e4142434445464748494a4b4c4d4e4f505152535455565758595a6162636465666768696a6b6c6d6e6f707172737475767778797a303132333435363738392b2f3c73766720786d6c6e733d22687474703a2f2f7777772e77332e6f72672f323030302f73766722207072657365727665417370656374526174696f3d22784d696e594d696e206d656574222076696577426f783d2230203020313030203530223e3c7374796c653e2e62617365207b2066696c6c3a2077686974653b20666f6e742d66616d696c793a2073657269663b20666f6e742d73697a653a20313470783b207d3c2f7374796c653e3c726563742077696474683d223130302522206865696768743d2231303025222066696c6c3d22626c61636b22202f3e3c7465787420783d2232302220793d2231352220636c6173733d2262617365223e574f52442e2e2e3f3c2f746578743e3c7465787420783d2231352220793d2234302220636c6173733d2262617365223e3c2f746578743e3c7465787420783d2235352220793d2234302220636c6173733d2262617365223ea26469706673582212201b4babdb0cac027688972a5214ae48b4c58e1354712602e119e52cd81d7956a164736f6c63430008060033",
  "linkReferences": {},
  "deployedLinkReferences": {}
}