{
  "_format": "hh-sol-artifact-1",
  "contractName": "Word",
  "sourceName": "contracts/Word.sol",
  "abi": [
    {
      "inputs": [
        {
          "internalType": "string",
          "name": "_name",
          "type": "string"
        },
        {
          "internalType": "string",
          "name": "_symbol",
          "type": "string"
        }
      ],
      "stateMutability": "nonpayable",
      "type": "constructor"
    },
    {
      "anonymous": false,
      "inputs": [
        {
          "indexed": true,
          "internalType": "address",
          "name": "owner",
          "type": "address"
        },
        {
          "indexed": true,
          "internalType": "address",
          "name": "approved",
          "type": "address"
        },
        {
          "indexed": true,
          "internalType": "uint256",
          "name": "tokenId",
          "type": "uint256"
        }
      ],
      "name": "Approval",
      "type": "event"
    },
    {
      "anonymous": false,
      "inputs": [
        {
          "indexed": true,
          "internalType": "address",
          "name": "owner",
          "type": "address"
        },
        {
          "indexed": true,
          "internalType": "address",
          "name": "operator",
          "type": "address"
        },
        {
          "indexed": false,
          "internalType": "bool",
          "name": "approved",
          "type": "bool"
        }
      ],
      "name": "ApprovalForAll",
      "type": "event"
    },
    {
      "anonymous": false,
      "inputs": [
        {
          "indexed": true,
          "internalType": "address",
          "name": "previousOwner",
          "type": "address"
        },
        {
          "indexed": true,
          "internalType": "address",
          "name": "newOwner",
          "type": "address"
        }
      ],
      "name": "OwnershipTransferred",
      "type": "event"
    },
    {
      "anonymous": false,
      "inputs": [
        {
          "indexed": true,
          "internalType": "address",
          "name": "from",
          "type": "address"
        },
        {
          "indexed": true,
          "internalType": "address",
          "name": "to",
          "type": "address"
        },
        {
          "indexed": true,
          "internalType": "uint256",
          "name": "tokenId",
          "type": "uint256"
        }
      ],
      "name": "Transfer",
      "type": "event"
    },
    {
      "inputs": [
        {
          "internalType": "address",
          "name": "to",
          "type": "address"
        },
        {
          "internalType": "uint256",
          "name": "tokenId",
          "type": "uint256"
        }
      ],
      "name": "approve",
      "outputs": [],
      "stateMutability": "nonpayable",
      "type": "function"
    },
    {
      "inputs": [
        {
          "internalType": "address",
          "name": "owner",
          "type": "address"
        }
      ],
      "name": "balanceOf",
      "outputs": [
        {
          "internalType": "uint256",
          "name": "",
          "type": "uint256"
        }
      ],
      "stateMutability": "view",
      "type": "function"
    },
    {
      "inputs": [
        {
          "internalType": "uint256",
          "name": "tokenId",
          "type": "uint256"
        }
      ],
      "name": "buyWord",
      "outputs": [],
      "stateMutability": "payable",
      "type": "function"
    },
    {
      "inputs": [
        {
          "internalType": "uint256",
          "name": "tokenId",
          "type": "uint256"
        }
      ],
      "name": "freeWord",
      "outputs": [],
      "stateMutability": "nonpayable",
      "type": "function"
    },
    {
      "inputs": [
        {
          "internalType": "uint256",
          "name": "tokenId",
          "type": "uint256"
        }
      ],
      "name": "getApproved",
      "outputs": [
        {
          "internalType": "address",
          "name": "",
          "type": "address"
        }
      ],
      "stateMutability": "view",
      "type": "function"
    },
    {
      "inputs": [
        {
          "internalType": "address",
          "name": "owner",
          "type": "address"
        },
        {
          "internalType": "address",
          "name": "operator",
          "type": "address"
        }
      ],
      "name": "isApprovedForAll",
      "outputs": [
        {
          "internalType": "bool",
          "name": "",
          "type": "bool"
        }
      ],
      "stateMutability": "view",
      "type": "function"
    },
    {
      "inputs": [
        {
          "internalType": "uint32",
          "name": "moreWords",
          "type": "uint32"
        }
      ],
      "name": "moreFreeWords",
      "outputs": [],
      "stateMutability": "nonpayable",
      "type": "function"
    },
    {
      "inputs": [],
      "name": "name",
      "outputs": [
        {
          "internalType": "string",
          "name": "",
          "type": "string"
        }
      ],
      "stateMutability": "view",
      "type": "function"
    },
    {
      "inputs": [],
      "name": "owner",
      "outputs": [
        {
          "internalType": "address",
          "name": "",
          "type": "address"
        }
      ],
      "stateMutability": "view",
      "type": "function"
    },
    {
      "inputs": [
        {
          "internalType": "uint256",
          "name": "tokenId",
          "type": "uint256"
        }
      ],
      "name": "ownerOf",
      "outputs": [
        {
          "internalType": "address",
          "name": "",
          "type": "address"
        }
      ],
      "stateMutability": "view",
      "type": "function"
    },
    {
      "inputs": [],
      "name": "renounceOwnership",
      "outputs": [],
      "stateMutability": "nonpayable",
      "type": "function"
    },
    {
      "inputs": [
        {
          "internalType": "address",
          "name": "from",
          "type": "address"
        },
        {
          "internalType": "address",
          "name": "to",
          "type": "address"
        },
        {
          "internalType": "uint256",
          "name": "tokenId",
          "type": "uint256"
        }
      ],
      "name": "safeTransferFrom",
      "outputs": [],
      "stateMutability": "nonpayable",
      "type": "function"
    },
    {
      "inputs": [
        {
          "internalType": "address",
          "name": "from",
          "type": "address"
        },
        {
          "internalType": "address",
          "name": "to",
          "type": "address"
        },
        {
          "internalType": "uint256",
          "name": "tokenId",
          "type": "uint256"
        },
        {
          "internalType": "bytes",
          "name": "_data",
          "type": "bytes"
        }
      ],
      "name": "safeTransferFrom",
      "outputs": [],
      "stateMutability": "nonpayable",
      "type": "function"
    },
    {
      "inputs": [
        {
          "internalType": "address",
          "name": "operator",
          "type": "address"
        },
        {
          "internalType": "bool",
          "name": "approved",
          "type": "bool"
        }
      ],
      "name": "setApprovalForAll",
      "outputs": [],
      "stateMutability": "nonpayable",
      "type": "function"
    },
    {
      "inputs": [
        {
          "internalType": "bytes4",
          "name": "interfaceId",
          "type": "bytes4"
        }
      ],
      "name": "supportsInterface",
      "outputs": [
        {
          "internalType": "bool",
          "name": "",
          "type": "bool"
        }
      ],
      "stateMutability": "view",
      "type": "function"
    },
    {
      "inputs": [],
      "name": "symbol",
      "outputs": [
        {
          "internalType": "string",
          "name": "",
          "type": "string"
        }
      ],
      "stateMutability": "view",
      "type": "function"
    },
    {
      "inputs": [
        {
          "internalType": "uint256",
          "name": "index",
          "type": "uint256"
        }
      ],
      "name": "tokenByIndex",
      "outputs": [
        {
          "internalType": "uint256",
          "name": "",
          "type": "uint256"
        }
      ],
      "stateMutability": "view",
      "type": "function"
    },
    {
      "inputs": [
        {
          "internalType": "address",
          "name": "owner",
          "type": "address"
        },
        {
          "internalType": "uint256",
          "name": "index",
          "type": "uint256"
        }
      ],
      "name": "tokenOfOwnerByIndex",
      "outputs": [
        {
          "internalType": "uint256",
          "name": "",
          "type": "uint256"
        }
      ],
      "stateMutability": "view",
      "type": "function"
    },
    {
      "inputs": [
        {
          "internalType": "uint256",
          "name": "tokenId",
          "type": "uint256"
        }
      ],
      "name": "tokenURI",
      "outputs": [
        {
          "internalType": "string",
          "name": "",
          "type": "string"
        }
      ],
      "stateMutability": "view",
      "type": "function"
    },
    {
      "inputs": [],
      "name": "totalSupply",
      "outputs": [
        {
          "internalType": "uint256",
          "name": "",
          "type": "uint256"
        }
      ],
      "stateMutability": "view",
      "type": "function"
    },
    {
      "inputs": [
        {
          "internalType": "address",
          "name": "from",
          "type": "address"
        },
        {
          "internalType": "address",
          "name": "to",
          "type": "address"
        },
        {
          "internalType": "uint256",
          "name": "tokenId",
          "type": "uint256"
        }
      ],
      "name": "transferFrom",
      "outputs": [],
      "stateMutability": "nonpayable",
      "type": "function"
    },
    {
      "inputs": [
        {
          "internalType": "address",
          "name": "newOwner",
          "type": "address"
        }
      ],
      "name": "transferOwnership",
      "outputs": [],
      "stateMutability": "nonpayable",
      "type": "function"
    }
  ],
  "bytecode": "0x60806040523480156200001157600080fd5b506040516200448b3803806200448b833981810160405281019062000037919062000299565b81818160009080519060200190620000519291906200016b565b5080600190805190602001906200006a9291906200016b565b5050506001600a8190555062000095620000896200009d60201b60201c565b620000a560201b60201c565b5050620004a2565b600033905090565b6000600b60009054906101000a900473ffffffffffffffffffffffffffffffffffffffff16905081600b60006101000a81548173ffffffffffffffffffffffffffffffffffffffff021916908373ffffffffffffffffffffffffffffffffffffffff1602179055508173ffffffffffffffffffffffffffffffffffffffff168173ffffffffffffffffffffffffffffffffffffffff167f8be0079c531659141344cd1fd0a4f28419497f9722a3daafe3b4186f6b6457e060405160405180910390a35050565b8280546200017990620003b3565b90600052602060002090601f0160209004810192826200019d5760008555620001e9565b82601f10620001b857805160ff1916838001178555620001e9565b82800160010185558215620001e9579182015b82811115620001e8578251825591602001919060010190620001cb565b5b509050620001f89190620001fc565b5090565b5b8082111562000217576000816000905550600101620001fd565b5090565b6000620002326200022c8462000347565b6200031e565b90508281526020810184848401111562000251576200025062000482565b5b6200025e8482856200037d565b509392505050565b600082601f8301126200027e576200027d6200047d565b5b8151620002908482602086016200021b565b91505092915050565b60008060408385031215620002b357620002b26200048c565b5b600083015167ffffffffffffffff811115620002d457620002d362000487565b5b620002e28582860162000266565b925050602083015167ffffffffffffffff81111562000306576200030562000487565b5b620003148582860162000266565b9150509250929050565b60006200032a6200033d565b9050620003388282620003e9565b919050565b6000604051905090565b600067ffffffffffffffff8211156200036557620003646200044e565b5b620003708262000491565b9050602081019050919050565b60005b838110156200039d57808201518184015260208101905062000380565b83811115620003ad576000848401525b50505050565b60006002820490506001821680620003cc57607f821691505b60208210811415620003e357620003e26200041f565b5b50919050565b620003f48262000491565b810181811067ffffffffffffffff821117156200041657620004156200044e565b5b80604052505050565b7f4e487b7100000000000000000000000000000000000000000000000000000000600052602260045260246000fd5b7f4e487b7100000000000000000000000000000000000000000000000000000000600052604160045260246000fd5b600080fd5b600080fd5b600080fd5b600080fd5b6000601f19601f8301169050919050565b613fd980620004b26000396000f3fe6080604052600436106101355760003560e01c806370a08231116100ab578063a22cb4651161006f578063a22cb4651461042b578063b88d4fde14610454578063bcfb11401461047d578063c87b56dd146104a6578063e985e9c5146104e3578063f2fde38b1461052057610135565b806370a0823114610358578063715018a6146103955780638da5cb5b146103ac57806395d89b41146103d7578063968d3ad11461040257610135565b806323b872dd116100fd57806323b872dd146102335780632f745c591461025c57806342842e0e146102995780634f6ccce7146102c25780635bab3c00146102ff5780636352211e1461031b57610135565b806301ffc9a71461013a57806306fdde0314610177578063081812fc146101a2578063095ea7b3146101df57806318160ddd14610208575b600080fd5b34801561014657600080fd5b50610161600480360381019061015c9190612a50565b610549565b60405161016e9190613023565b60405180910390f35b34801561018357600080fd5b5061018c6105c3565b604051610199919061303e565b60405180910390f35b3480156101ae57600080fd5b506101c960048036038101906101c49190612aaa565b610655565b6040516101d69190612fbc565b60405180910390f35b3480156101eb57600080fd5b5061020660048036038101906102019190612a10565b6106da565b005b34801561021457600080fd5b5061021d6107f2565b60405161022a91906132a0565b60405180910390f35b34801561023f57600080fd5b5061025a600480360381019061025591906128fa565b6107ff565b005b34801561026857600080fd5b50610283600480360381019061027e9190612a10565b61085f565b60405161029091906132a0565b60405180910390f35b3480156102a557600080fd5b506102c060048036038101906102bb91906128fa565b610904565b005b3480156102ce57600080fd5b506102e960048036038101906102e49190612aaa565b610924565b6040516102f691906132a0565b60405180910390f35b61031960048036038101906103149190612aaa565b610995565b005b34801561032757600080fd5b50610342600480360381019061033d9190612aaa565b610a5a565b60405161034f9190612fbc565b60405180910390f35b34801561036457600080fd5b5061037f600480360381019061037a919061288d565b610b0c565b60405161038c91906132a0565b60405180910390f35b3480156103a157600080fd5b506103aa610bc4565b005b3480156103b857600080fd5b506103c1610c4c565b6040516103ce9190612fbc565b60405180910390f35b3480156103e357600080fd5b506103ec610c76565b6040516103f9919061303e565b60405180910390f35b34801561040e57600080fd5b5061042960048036038101906104249190612aaa565b610d08565b005b34801561043757600080fd5b50610452600480360381019061044d91906129d0565b610d97565b005b34801561046057600080fd5b5061047b6004803603810190610476919061294d565b610f18565b005b34801561048957600080fd5b506104a4600480360381019061049f9190612ad7565b610f7a565b005b3480156104b257600080fd5b506104cd60048036038101906104c89190612aaa565b611038565b6040516104da919061303e565b60405180910390f35b3480156104ef57600080fd5b5061050a600480360381019061050591906128ba565b61140d565b6040516105179190613023565b60405180910390f35b34801561052c57600080fd5b506105476004803603810190610542919061288d565b6114a1565b005b60007f780e9d63000000000000000000000000000000000000000000000000000000007bffffffffffffffffffffffffffffffffffffffffffffffffffffffff1916827bffffffffffffffffffffffffffffffffffffffffffffffffffffffff191614806105bc57506105bb82611599565b5b9050919050565b6060600080546105d290613569565b80601f01602080910402602001604051908101604052809291908181526020018280546105fe90613569565b801561064b5780601f106106205761010080835404028352916020019161064b565b820191906000526020600020905b81548152906001019060200180831161062e57829003601f168201915b5050505050905090565b60006106608261167b565b61069f576040517f08c379a0000000000000000000000000000000000000000000000000000000008152600401610696906131c0565b60405180910390fd5b6004600083815260200190815260200160002060009054906101000a900473ffffffffffffffffffffffffffffffffffffffff169050919050565b60006106e582610a5a565b90508073ffffffffffffffffffffffffffffffffffffffff168373ffffffffffffffffffffffffffffffffffffffff161415610756576040517f08c379a000000000000000000000000000000000000000000000000000000000815260040161074d90613220565b60405180910390fd5b8073ffffffffffffffffffffffffffffffffffffffff166107756116e7565b73ffffffffffffffffffffffffffffffffffffffff1614806107a457506107a38161079e6116e7565b61140d565b5b6107e3576040517f08c379a00000000000000000000000000000000000000000000000000000000081526004016107da90613140565b60405180910390fd5b6107ed83836116ef565b505050565b6000600880549050905090565b61081061080a6116e7565b826117a8565b61084f576040517f08c379a000000000000000000000000000000000000000000000000000000000815260040161084690613240565b60405180910390fd5b61085a838383611886565b505050565b600061086a83610b0c565b82106108ab576040517f08c379a00000000000000000000000000000000000000000000000000000000081526004016108a290613060565b60405180910390fd5b600660008473ffffffffffffffffffffffffffffffffffffffff1673ffffffffffffffffffffffffffffffffffffffff168152602001908152602001600020600083815260200190815260200160002054905092915050565b61091f83838360405180602001604052806000815250610f18565b505050565b600061092e6107f2565b821061096f576040517f08c379a000000000000000000000000000000000000000000000000000000000815260040161096690613260565b60405180910390fd5b6008828154811061098357610982613702565b5b90600052602060002001549050919050565b6002600a5414156109db576040517f08c379a00000000000000000000000000000000000000000000000000000000081526004016109d290613280565b60405180910390fd5b6002600a81905550600134116109f057600080fd5b6109f8610c4c565b73ffffffffffffffffffffffffffffffffffffffff166108fc349081150290604051600060405180830381858888f19350505050158015610a3d573d6000803e3d6000fd5b50610a4f610a496116e7565b82611ae2565b6001600a8190555050565b6000806002600084815260200190815260200160002060009054906101000a900473ffffffffffffffffffffffffffffffffffffffff169050600073ffffffffffffffffffffffffffffffffffffffff168173ffffffffffffffffffffffffffffffffffffffff161415610b03576040517f08c379a0000000000000000000000000000000000000000000000000000000008152600401610afa90613180565b60405180910390fd5b80915050919050565b60008073ffffffffffffffffffffffffffffffffffffffff168273ffffffffffffffffffffffffffffffffffffffff161415610b7d576040517f08c379a0000000000000000000000000000000000000000000000000000000008152600401610b7490613160565b60405180910390fd5b600360008373ffffffffffffffffffffffffffffffffffffffff1673ffffffffffffffffffffffffffffffffffffffff168152602001908152602001600020549050919050565b610bcc6116e7565b73ffffffffffffffffffffffffffffffffffffffff16610bea610c4c565b73ffffffffffffffffffffffffffffffffffffffff1614610c40576040517f08c379a0000000000000000000000000000000000000000000000000000000008152600401610c37906131e0565b60405180910390fd5b610c4a6000611b00565b565b6000600b60009054906101000a900473ffffffffffffffffffffffffffffffffffffffff16905090565b606060018054610c8590613569565b80601f0160208091040260200160405190810160405280929190818152602001828054610cb190613569565b8015610cfe5780601f10610cd357610100808354040283529160200191610cfe565b820191906000526020600020905b815481529060010190602001808311610ce157829003601f168201915b5050505050905090565b6002600a541415610d4e576040517f08c379a0000000000000000000000000000000000000000000000000000000008152600401610d4590613280565b60405180910390fd5b6002600a819055506000600b60149054906101000a900463ffffffff1663ffffffff1611610d7b57600080fd5b610d8c610d866116e7565b82611ae2565b6001600a8190555050565b610d9f6116e7565b73ffffffffffffffffffffffffffffffffffffffff168273ffffffffffffffffffffffffffffffffffffffff161415610e0d576040517f08c379a0000000000000000000000000000000000000000000000000000000008152600401610e0490613100565b60405180910390fd5b8060056000610e1a6116e7565b73ffffffffffffffffffffffffffffffffffffffff1673ffffffffffffffffffffffffffffffffffffffff16815260200190815260200160002060008473ffffffffffffffffffffffffffffffffffffffff1673ffffffffffffffffffffffffffffffffffffffff16815260200190815260200160002060006101000a81548160ff0219169083151502179055508173ffffffffffffffffffffffffffffffffffffffff16610ec76116e7565b73ffffffffffffffffffffffffffffffffffffffff167f17307eab39ab6107e8899845ad3d59bd9653f200f220920489ca2b5937696c3183604051610f0c9190613023565b60405180910390a35050565b610f29610f236116e7565b836117a8565b610f68576040517f08c379a0000000000000000000000000000000000000000000000000000000008152600401610f5f90613240565b60405180910390fd5b610f7484848484611bc6565b50505050565b610f826116e7565b73ffffffffffffffffffffffffffffffffffffffff16610fa0610c4c565b73ffffffffffffffffffffffffffffffffffffffff1614610ff6576040517f08c379a0000000000000000000000000000000000000000000000000000000008152600401610fed906131e0565b60405180910390fd5b80600b60148282829054906101000a900463ffffffff1661101791906133aa565b92506101000a81548163ffffffff021916908363ffffffff16021790555050565b6060611042612777565b60405180610140016040528061010b8152602001613e9961010b91398160006009811061107257611071613702565b5b60200201819052506040518060400160405280600181526020017f4100000000000000000000000000000000000000000000000000000000000000815250816001600981106110c4576110c3613702565b5b6020020181905250604051806060016040528060288152602001613de160289139816002600981106110f9576110f8613702565b5b60200201819052506040518060400160405280600181526020017f41000000000000000000000000000000000000000000000000000000000000008152508160036009811061114b5761114a613702565b5b6020020181905250604051806060016040528060288152602001613e0960289139816004600981106111805761117f613702565b5b60200201819052506040518060400160405280600181526020017f4100000000000000000000000000000000000000000000000000000000000000815250816005600981106111d2576111d1613702565b5b6020020181905250604051806060016040528060288152602001613e71602891398160066009811061120757611206613702565b5b60200201819052506040518060400160405280600181526020017f41000000000000000000000000000000000000000000000000000000000000008152508160076009811061125957611258613702565b5b6020020181905250604051806060016040528060288152602001613db9602891398160086009811061128e5761128d613702565b5b60200201819052506000816000600981106112ac576112ab613702565b5b6020020151826001600981106112c5576112c4613702565b5b6020020151836002600981106112de576112dd613702565b5b6020020151846003600981106112f7576112f6613702565b5b6020020151856004600981106113105761130f613702565b5b60200201518660056009811061132957611328613702565b5b60200201518760066009811061134257611341613702565b5b60200201518860076009811061135b5761135a613702565b5b60200201518960086009811061137457611373613702565b5b602002015160405160200161139199989796959493929190612ed6565b604051602081830303815290604052905060006113de6113b086611c22565b6113b984611d83565b6040516020016113ca929190612f55565b604051602081830303815290604052611d83565b9050806040516020016113f19190612f9a565b6040516020818303038152906040529150819350505050919050565b6000600560008473ffffffffffffffffffffffffffffffffffffffff1673ffffffffffffffffffffffffffffffffffffffff16815260200190815260200160002060008373ffffffffffffffffffffffffffffffffffffffff1673ffffffffffffffffffffffffffffffffffffffff16815260200190815260200160002060009054906101000a900460ff16905092915050565b6114a96116e7565b73ffffffffffffffffffffffffffffffffffffffff166114c7610c4c565b73ffffffffffffffffffffffffffffffffffffffff161461151d576040517f08c379a0000000000000000000000000000000000000000000000000000000008152600401611514906131e0565b60405180910390fd5b600073ffffffffffffffffffffffffffffffffffffffff168173ffffffffffffffffffffffffffffffffffffffff16141561158d576040517f08c379a0000000000000000000000000000000000000000000000000000000008152600401611584906130a0565b60405180910390fd5b61159681611b00565b50565b60007f80ac58cd000000000000000000000000000000000000000000000000000000007bffffffffffffffffffffffffffffffffffffffffffffffffffffffff1916827bffffffffffffffffffffffffffffffffffffffffffffffffffffffff1916148061166457507f5b5e139f000000000000000000000000000000000000000000000000000000007bffffffffffffffffffffffffffffffffffffffffffffffffffffffff1916827bffffffffffffffffffffffffffffffffffffffffffffffffffffffff1916145b80611674575061167382611f1b565b5b9050919050565b60008073ffffffffffffffffffffffffffffffffffffffff166002600084815260200190815260200160002060009054906101000a900473ffffffffffffffffffffffffffffffffffffffff1673ffffffffffffffffffffffffffffffffffffffff1614159050919050565b600033905090565b816004600083815260200190815260200160002060006101000a81548173ffffffffffffffffffffffffffffffffffffffff021916908373ffffffffffffffffffffffffffffffffffffffff160217905550808273ffffffffffffffffffffffffffffffffffffffff1661176283610a5a565b73ffffffffffffffffffffffffffffffffffffffff167f8c5be1e5ebec7d5bd14f71427d1e84f3dd0314c0f7b2291e5b200ac8c7c3b92560405160405180910390a45050565b60006117b38261167b565b6117f2576040517f08c379a00000000000000000000000000000000000000000000000000000000081526004016117e990613120565b60405180910390fd5b60006117fd83610a5a565b90508073ffffffffffffffffffffffffffffffffffffffff168473ffffffffffffffffffffffffffffffffffffffff16148061186c57508373ffffffffffffffffffffffffffffffffffffffff1661185484610655565b73ffffffffffffffffffffffffffffffffffffffff16145b8061187d575061187c818561140d565b5b91505092915050565b8273ffffffffffffffffffffffffffffffffffffffff166118a682610a5a565b73ffffffffffffffffffffffffffffffffffffffff16146118fc576040517f08c379a00000000000000000000000000000000000000000000000000000000081526004016118f390613200565b60405180910390fd5b600073ffffffffffffffffffffffffffffffffffffffff168273ffffffffffffffffffffffffffffffffffffffff16141561196c576040517f08c379a0000000000000000000000000000000000000000000000000000000008152600401611963906130e0565b60405180910390fd5b611977838383611f85565b6119826000826116ef565b6001600360008573ffffffffffffffffffffffffffffffffffffffff1673ffffffffffffffffffffffffffffffffffffffff16815260200190815260200160002060008282546119d2919061346f565b925050819055506001600360008473ffffffffffffffffffffffffffffffffffffffff1673ffffffffffffffffffffffffffffffffffffffff1681526020019081526020016000206000828254611a299190613354565b92505081905550816002600083815260200190815260200160002060006101000a81548173ffffffffffffffffffffffffffffffffffffffff021916908373ffffffffffffffffffffffffffffffffffffffff160217905550808273ffffffffffffffffffffffffffffffffffffffff168473ffffffffffffffffffffffffffffffffffffffff167fddf252ad1be2c89b69c2b068fc378daa952ba7f163c4a11628f55a4df523b3ef60405160405180910390a4505050565b611afc828260405180602001604052806000815250612099565b5050565b6000600b60009054906101000a900473ffffffffffffffffffffffffffffffffffffffff16905081600b60006101000a81548173ffffffffffffffffffffffffffffffffffffffff021916908373ffffffffffffffffffffffffffffffffffffffff1602179055508173ffffffffffffffffffffffffffffffffffffffff168173ffffffffffffffffffffffffffffffffffffffff167f8be0079c531659141344cd1fd0a4f28419497f9722a3daafe3b4186f6b6457e060405160405180910390a35050565b611bd1848484611886565b611bdd848484846120f4565b611c1c576040517f08c379a0000000000000000000000000000000000000000000000000000000008152600401611c1390613080565b60405180910390fd5b50505050565b60606000821415611c6a576040518060400160405280600181526020017f30000000000000000000000000000000000000000000000000000000000000008152509050611d7e565b600082905060005b60008214611c9c578080611c85906135cc565b915050600a82611c9591906133e4565b9150611c72565b60008167ffffffffffffffff811115611cb857611cb7613731565b5b6040519080825280601f01601f191660200182016040528015611cea5781602001600182028036833780820191505090505b5090505b60008514611d7757600182611d03919061346f565b9150600a85611d129190613615565b6030611d1e9190613354565b60f81b818381518110611d3457611d33613702565b5b60200101907effffffffffffffffffffffffffffffffffffffffffffffffffffffffffffff1916908160001a905350600a85611d7091906133e4565b9450611cee565b8093505050505b919050565b60606000825190506000811415611dac5760405180602001604052806000815250915050611f16565b60006003600283611dbd9190613354565b611dc791906133e4565b6004611dd39190613415565b90506000602082611de49190613354565b67ffffffffffffffff811115611dfd57611dfc613731565b5b6040519080825280601f01601f191660200182016040528015611e2f5781602001600182028036833780820191505090505b5090506000604051806060016040528060408152602001613e31604091399050600181016020830160005b86811015611ed35760038101905062ffffff818a015116603f8160121c168401518060081b905060ff603f83600c1c1686015116810190508060081b905060ff603f8360061c1686015116810190508060081b905060ff603f831686015116810190508060e01b90508084526004840193505050611e5a565b506003860660018114611eed5760028114611efd57611f08565b613d3d60f01b6002830352611f08565b603d60f81b60018303525b508484525050819450505050505b919050565b60007f01ffc9a7000000000000000000000000000000000000000000000000000000007bffffffffffffffffffffffffffffffffffffffffffffffffffffffff1916827bffffffffffffffffffffffffffffffffffffffffffffffffffffffff1916149050919050565b611f9083838361228b565b600073ffffffffffffffffffffffffffffffffffffffff168373ffffffffffffffffffffffffffffffffffffffff161415611fd357611fce81612290565b612012565b8173ffffffffffffffffffffffffffffffffffffffff168373ffffffffffffffffffffffffffffffffffffffff16146120115761201083826122d9565b5b5b600073ffffffffffffffffffffffffffffffffffffffff168273ffffffffffffffffffffffffffffffffffffffff1614156120555761205081612446565b612094565b8273ffffffffffffffffffffffffffffffffffffffff168273ffffffffffffffffffffffffffffffffffffffff1614612093576120928282612517565b5b5b505050565b6120a38383612596565b6120b060008484846120f4565b6120ef576040517f08c379a00000000000000000000000000000000000000000000000000000000081526004016120e690613080565b60405180910390fd5b505050565b60006121158473ffffffffffffffffffffffffffffffffffffffff16612764565b1561227e578373ffffffffffffffffffffffffffffffffffffffff1663150b7a0261213e6116e7565b8786866040518563ffffffff1660e01b81526004016121609493929190612fd7565b602060405180830381600087803b15801561217a57600080fd5b505af19250505080156121ab57506040513d601f19601f820116820180604052508101906121a89190612a7d565b60015b61222e573d80600081146121db576040519150601f19603f3d011682016040523d82523d6000602084013e6121e0565b606091505b50600081511415612226576040517f08c379a000000000000000000000000000000000000000000000000000000000815260040161221d90613080565b60405180910390fd5b805181602001fd5b63150b7a0260e01b7bffffffffffffffffffffffffffffffffffffffffffffffffffffffff1916817bffffffffffffffffffffffffffffffffffffffffffffffffffffffff191614915050612283565b600190505b949350505050565b505050565b6008805490506009600083815260200190815260200160002081905550600881908060018154018082558091505060019003906000526020600020016000909190919091505550565b600060016122e684610b0c565b6122f0919061346f565b90506000600760008481526020019081526020016000205490508181146123d5576000600660008673ffffffffffffffffffffffffffffffffffffffff1673ffffffffffffffffffffffffffffffffffffffff168152602001908152602001600020600084815260200190815260200160002054905080600660008773ffffffffffffffffffffffffffffffffffffffff1673ffffffffffffffffffffffffffffffffffffffff168152602001908152602001600020600084815260200190815260200160002081905550816007600083815260200190815260200160002081905550505b6007600084815260200190815260200160002060009055600660008573ffffffffffffffffffffffffffffffffffffffff1673ffffffffffffffffffffffffffffffffffffffff16815260200190815260200160002060008381526020019081526020016000206000905550505050565b6000600160088054905061245a919061346f565b905060006009600084815260200190815260200160002054905060006008838154811061248a57612489613702565b5b9060005260206000200154905080600883815481106124ac576124ab613702565b5b9060005260206000200181905550816009600083815260200190815260200160002081905550600960008581526020019081526020016000206000905560088054806124fb576124fa6136d3565b5b6001900381819060005260206000200160009055905550505050565b600061252283610b0c565b905081600660008573ffffffffffffffffffffffffffffffffffffffff1673ffffffffffffffffffffffffffffffffffffffff168152602001908152602001600020600083815260200190815260200160002081905550806007600084815260200190815260200160002081905550505050565b600073ffffffffffffffffffffffffffffffffffffffff168273ffffffffffffffffffffffffffffffffffffffff161415612606576040517f08c379a00000000000000000000000000000000000000000000000000000000081526004016125fd906131a0565b60405180910390fd5b61260f8161167b565b1561264f576040517f08c379a0000000000000000000000000000000000000000000000000000000008152600401612646906130c0565b60405180910390fd5b61265b60008383611f85565b6001600360008473ffffffffffffffffffffffffffffffffffffffff1673ffffffffffffffffffffffffffffffffffffffff16815260200190815260200160002060008282546126ab9190613354565b92505081905550816002600083815260200190815260200160002060006101000a81548173ffffffffffffffffffffffffffffffffffffffff021916908373ffffffffffffffffffffffffffffffffffffffff160217905550808273ffffffffffffffffffffffffffffffffffffffff16600073ffffffffffffffffffffffffffffffffffffffff167fddf252ad1be2c89b69c2b068fc378daa952ba7f163c4a11628f55a4df523b3ef60405160405180910390a45050565b600080823b905060008111915050919050565b6040518061012001604052806009905b60608152602001906001900390816127875790505090565b60006127b26127ad846132e0565b6132bb565b9050828152602081018484840111156127ce576127cd613765565b5b6127d9848285613527565b509392505050565b6000813590506127f081613d45565b92915050565b60008135905061280581613d5c565b92915050565b60008135905061281a81613d73565b92915050565b60008151905061282f81613d73565b92915050565b600082601f83011261284a57612849613760565b5b813561285a84826020860161279f565b91505092915050565b60008135905061287281613d8a565b92915050565b60008135905061288781613da1565b92915050565b6000602082840312156128a3576128a261376f565b5b60006128b1848285016127e1565b91505092915050565b600080604083850312156128d1576128d061376f565b5b60006128df858286016127e1565b92505060206128f0858286016127e1565b9150509250929050565b6000806000606084860312156129135761291261376f565b5b6000612921868287016127e1565b9350506020612932868287016127e1565b925050604061294386828701612863565b9150509250925092565b600080600080608085870312156129675761296661376f565b5b6000612975878288016127e1565b9450506020612986878288016127e1565b935050604061299787828801612863565b925050606085013567ffffffffffffffff8111156129b8576129b761376a565b5b6129c487828801612835565b91505092959194509250565b600080604083850312156129e7576129e661376f565b5b60006129f5858286016127e1565b9250506020612a06858286016127f6565b9150509250929050565b60008060408385031215612a2757612a2661376f565b5b6000612a35858286016127e1565b9250506020612a4685828601612863565b9150509250929050565b600060208284031215612a6657612a6561376f565b5b6000612a748482850161280b565b91505092915050565b600060208284031215612a9357612a9261376f565b5b6000612aa184828501612820565b91505092915050565b600060208284031215612ac057612abf61376f565b5b6000612ace84828501612863565b91505092915050565b600060208284031215612aed57612aec61376f565b5b6000612afb84828501612878565b91505092915050565b612b0d816134a3565b82525050565b612b1c816134b5565b82525050565b6000612b2d82613311565b612b378185613327565b9350612b47818560208601613536565b612b5081613774565b840191505092915050565b6000612b668261331c565b612b708185613338565b9350612b80818560208601613536565b612b8981613774565b840191505092915050565b6000612b9f8261331c565b612ba98185613349565b9350612bb9818560208601613536565b80840191505092915050565b6000612bd2602b83613338565b9150612bdd82613785565b604082019050919050565b6000612bf5603283613338565b9150612c00826137d4565b604082019050919050565b6000612c18602683613338565b9150612c2382613823565b604082019050919050565b6000612c3b601c83613338565b9150612c4682613872565b602082019050919050565b6000612c5e604e83613349565b9150612c698261389b565b604e82019050919050565b6000612c81602483613338565b9150612c8c82613910565b604082019050919050565b6000612ca4601983613338565b9150612caf8261395f565b602082019050919050565b6000612cc7602c83613338565b9150612cd282613988565b604082019050919050565b6000612cea603883613338565b9150612cf5826139d7565b604082019050919050565b6000612d0d602a83613338565b9150612d1882613a26565b604082019050919050565b6000612d30602983613338565b9150612d3b82613a75565b604082019050919050565b6000612d53600283613349565b9150612d5e82613ac4565b600282019050919050565b6000612d76602083613338565b9150612d8182613aed565b602082019050919050565b6000612d99602c83613338565b9150612da482613b16565b604082019050919050565b6000612dbc602083613338565b9150612dc782613b65565b602082019050919050565b6000612ddf602983613338565b9150612dea82613b8e565b604082019050919050565b6000612e02601383613349565b9150612e0d82613bdd565b601382019050919050565b6000612e25602183613338565b9150612e3082613c06565b604082019050919050565b6000612e48601d83613349565b9150612e5382613c55565b601d82019050919050565b6000612e6b603183613338565b9150612e7682613c7e565b604082019050919050565b6000612e8e602c83613338565b9150612e9982613ccd565b604082019050919050565b6000612eb1601f83613338565b9150612ebc82613d1c565b602082019050919050565b612ed08161350d565b82525050565b6000612ee2828c612b94565b9150612eee828b612b94565b9150612efa828a612b94565b9150612f068289612b94565b9150612f128288612b94565b9150612f1e8287612b94565b9150612f2a8286612b94565b9150612f368285612b94565b9150612f428284612b94565b91508190509a9950505050505050505050565b6000612f6082612df5565b9150612f6c8285612b94565b9150612f7782612c51565b9150612f838284612b94565b9150612f8e82612d46565b91508190509392505050565b6000612fa582612e3b565b9150612fb18284612b94565b915081905092915050565b6000602082019050612fd16000830184612b04565b92915050565b6000608082019050612fec6000830187612b04565b612ff96020830186612b04565b6130066040830185612ec7565b81810360608301526130188184612b22565b905095945050505050565b60006020820190506130386000830184612b13565b92915050565b600060208201905081810360008301526130588184612b5b565b905092915050565b6000602082019050818103600083015261307981612bc5565b9050919050565b6000602082019050818103600083015261309981612be8565b9050919050565b600060208201905081810360008301526130b981612c0b565b9050919050565b600060208201905081810360008301526130d981612c2e565b9050919050565b600060208201905081810360008301526130f981612c74565b9050919050565b6000602082019050818103600083015261311981612c97565b9050919050565b6000602082019050818103600083015261313981612cba565b9050919050565b6000602082019050818103600083015261315981612cdd565b9050919050565b6000602082019050818103600083015261317981612d00565b9050919050565b6000602082019050818103600083015261319981612d23565b9050919050565b600060208201905081810360008301526131b981612d69565b9050919050565b600060208201905081810360008301526131d981612d8c565b9050919050565b600060208201905081810360008301526131f981612daf565b9050919050565b6000602082019050818103600083015261321981612dd2565b9050919050565b6000602082019050818103600083015261323981612e18565b9050919050565b6000602082019050818103600083015261325981612e5e565b9050919050565b6000602082019050818103600083015261327981612e81565b9050919050565b6000602082019050818103600083015261329981612ea4565b9050919050565b60006020820190506132b56000830184612ec7565b92915050565b60006132c56132d6565b90506132d1828261359b565b919050565b6000604051905090565b600067ffffffffffffffff8211156132fb576132fa613731565b5b61330482613774565b9050602081019050919050565b600081519050919050565b600081519050919050565b600082825260208201905092915050565b600082825260208201905092915050565b600081905092915050565b600061335f8261350d565b915061336a8361350d565b9250827fffffffffffffffffffffffffffffffffffffffffffffffffffffffffffffffff0382111561339f5761339e613646565b5b828201905092915050565b60006133b582613517565b91506133c083613517565b92508263ffffffff038211156133d9576133d8613646565b5b828201905092915050565b60006133ef8261350d565b91506133fa8361350d565b92508261340a57613409613675565b5b828204905092915050565b60006134208261350d565b915061342b8361350d565b9250817fffffffffffffffffffffffffffffffffffffffffffffffffffffffffffffffff048311821515161561346457613463613646565b5b828202905092915050565b600061347a8261350d565b91506134858361350d565b92508282101561349857613497613646565b5b828203905092915050565b60006134ae826134ed565b9050919050565b60008115159050919050565b60007fffffffff0000000000000000000000000000000000000000000000000000000082169050919050565b600073ffffffffffffffffffffffffffffffffffffffff82169050919050565b6000819050919050565b600063ffffffff82169050919050565b82818337600083830152505050565b60005b83811015613554578082015181840152602081019050613539565b83811115613563576000848401525b50505050565b6000600282049050600182168061358157607f821691505b60208210811415613595576135946136a4565b5b50919050565b6135a482613774565b810181811067ffffffffffffffff821117156135c3576135c2613731565b5b80604052505050565b60006135d78261350d565b91507fffffffffffffffffffffffffffffffffffffffffffffffffffffffffffffffff82141561360a57613609613646565b5b600182019050919050565b60006136208261350d565b915061362b8361350d565b92508261363b5761363a613675565b5b828206905092915050565b7f4e487b7100000000000000000000000000000000000000000000000000000000600052601160045260246000fd5b7f4e487b7100000000000000000000000000000000000000000000000000000000600052601260045260246000fd5b7f4e487b7100000000000000000000000000000000000000000000000000000000600052602260045260246000fd5b7f4e487b7100000000000000000000000000000000000000000000000000000000600052603160045260246000fd5b7f4e487b7100000000000000000000000000000000000000000000000000000000600052603260045260246000fd5b7f4e487b7100000000000000000000000000000000000000000000000000000000600052604160045260246000fd5b600080fd5b600080fd5b600080fd5b600080fd5b6000601f19601f8301169050919050565b7f455243373231456e756d657261626c653a206f776e657220696e646578206f7560008201527f74206f6620626f756e6473000000000000000000000000000000000000000000602082015250565b7f4552433732313a207472616e7366657220746f206e6f6e20455243373231526560008201527f63656976657220696d706c656d656e7465720000000000000000000000000000602082015250565b7f4f776e61626c653a206e6577206f776e657220697320746865207a65726f206160008201527f6464726573730000000000000000000000000000000000000000000000000000602082015250565b7f4552433732313a20746f6b656e20616c7265616479206d696e74656400000000600082015250565b7f222c20226465736372697074696f6e223a202274686973206973206120776f7260008201527f64206d61796265222c2022696d616765223a2022646174613a696d6167652f7360208201527f76672b786d6c3b6261736536342c000000000000000000000000000000000000604082015250565b7f4552433732313a207472616e7366657220746f20746865207a65726f2061646460008201527f7265737300000000000000000000000000000000000000000000000000000000602082015250565b7f4552433732313a20617070726f766520746f2063616c6c657200000000000000600082015250565b7f4552433732313a206f70657261746f7220717565727920666f72206e6f6e657860008201527f697374656e7420746f6b656e0000000000000000000000000000000000000000602082015250565b7f4552433732313a20617070726f76652063616c6c6572206973206e6f74206f7760008201527f6e6572206e6f7220617070726f76656420666f7220616c6c0000000000000000602082015250565b7f4552433732313a2062616c616e636520717565727920666f7220746865207a6560008201527f726f206164647265737300000000000000000000000000000000000000000000602082015250565b7f4552433732313a206f776e657220717565727920666f72206e6f6e657869737460008201527f656e7420746f6b656e0000000000000000000000000000000000000000000000602082015250565b7f227d000000000000000000000000000000000000000000000000000000000000600082015250565b7f4552433732313a206d696e7420746f20746865207a65726f2061646472657373600082015250565b7f4552433732313a20617070726f76656420717565727920666f72206e6f6e657860008201527f697374656e7420746f6b656e0000000000000000000000000000000000000000602082015250565b7f4f776e61626c653a2063616c6c6572206973206e6f7420746865206f776e6572600082015250565b7f4552433732313a207472616e73666572206f6620746f6b656e2074686174206960008201527f73206e6f74206f776e0000000000000000000000000000000000000000000000602082015250565b7f7b226e616d65223a2022576f72642e2e2e3f2000000000000000000000000000600082015250565b7f4552433732313a20617070726f76616c20746f2063757272656e74206f776e6560008201527f7200000000000000000000000000000000000000000000000000000000000000602082015250565b7f646174613a6170706c69636174696f6e2f6a736f6e3b6261736536342c000000600082015250565b7f4552433732313a207472616e736665722063616c6c6572206973206e6f74206f60008201527f776e6572206e6f7220617070726f766564000000000000000000000000000000602082015250565b7f455243373231456e756d657261626c653a20676c6f62616c20696e646578206f60008201527f7574206f6620626f756e64730000000000000000000000000000000000000000602082015250565b7f5265656e7472616e637947756172643a207265656e7472616e742063616c6c00600082015250565b613d4e816134a3565b8114613d5957600080fd5b50565b613d65816134b5565b8114613d7057600080fd5b50565b613d7c816134c1565b8114613d8757600080fd5b50565b613d938161350d565b8114613d9e57600080fd5b50565b613daa81613517565b8114613db557600080fd5b5056fe3c2f746578743e3c7465787420783d2237352220793d2234302220636c6173733d2262617365223e3c2f746578743e3c7465787420783d2231352220793d2234302220636c6173733d2262617365223e3c2f746578743e3c7465787420783d2233352220793d2234302220636c6173733d2262617365223e4142434445464748494a4b4c4d4e4f505152535455565758595a6162636465666768696a6b6c6d6e6f707172737475767778797a303132333435363738392b2f3c2f746578743e3c7465787420783d2235352220793d2234302220636c6173733d2262617365223e3c73766720786d6c6e733d22687474703a2f2f7777772e77332e6f72672f323030302f73766722207072657365727665417370656374526174696f3d22784d696e594d696e206d656574222076696577426f783d2230203020313030203530223e3c7374796c653e2e62617365207b2066696c6c3a2077686974653b20666f6e742d66616d696c793a2073657269663b20666f6e742d73697a653a20313470783b207d3c2f7374796c653e3c726563742077696474683d223130302522206865696768743d2231303025222066696c6c3d22626c61636b22202f3e3c7465787420783d2232302220793d2231352220636c6173733d2262617365223e574f52442e2e2e3f3c2f746578743ea2646970667358221220b510b4b828cbc50603ecc355f3784c7d2b43ddb3a0a28b30c87dbf84ed62d59064736f6c63430008060033",
  "linkReferences": {},
  "deployedLinkReferences": {}
}