{
  "_format": "hh-sol-artifact-1",
  "contractName": "Word",
  "sourceName": "contracts/Word.sol",
  "abi": [
    {
      "inputs": [
        {
          "internalType": "string",
          "name": "_name",
          "type": "string"
        },
        {
          "internalType": "string",
          "name": "_symbol",
          "type": "string"
        }
      ],
      "stateMutability": "nonpayable",
      "type": "constructor"
    },
    {
      "anonymous": false,
      "inputs": [
        {
          "indexed": true,
          "internalType": "address",
          "name": "owner",
          "type": "address"
        },
        {
          "indexed": true,
          "internalType": "address",
          "name": "approved",
          "type": "address"
        },
        {
          "indexed": true,
          "internalType": "uint256",
          "name": "tokenId",
          "type": "uint256"
        }
      ],
      "name": "Approval",
      "type": "event"
    },
    {
      "anonymous": false,
      "inputs": [
        {
          "indexed": true,
          "internalType": "address",
          "name": "owner",
          "type": "address"
        },
        {
          "indexed": true,
          "internalType": "address",
          "name": "operator",
          "type": "address"
        },
        {
          "indexed": false,
          "internalType": "bool",
          "name": "approved",
          "type": "bool"
        }
      ],
      "name": "ApprovalForAll",
      "type": "event"
    },
    {
      "anonymous": false,
      "inputs": [
        {
          "indexed": true,
          "internalType": "address",
          "name": "previousOwner",
          "type": "address"
        },
        {
          "indexed": true,
          "internalType": "address",
          "name": "newOwner",
          "type": "address"
        }
      ],
      "name": "OwnershipTransferred",
      "type": "event"
    },
    {
      "anonymous": false,
      "inputs": [
        {
          "indexed": true,
          "internalType": "address",
          "name": "from",
          "type": "address"
        },
        {
          "indexed": true,
          "internalType": "address",
          "name": "to",
          "type": "address"
        },
        {
          "indexed": true,
          "internalType": "uint256",
          "name": "tokenId",
          "type": "uint256"
        }
      ],
      "name": "Transfer",
      "type": "event"
    },
    {
      "inputs": [
        {
          "internalType": "address",
          "name": "to",
          "type": "address"
        },
        {
          "internalType": "uint256",
          "name": "tokenId",
          "type": "uint256"
        }
      ],
      "name": "approve",
      "outputs": [],
      "stateMutability": "nonpayable",
      "type": "function"
    },
    {
      "inputs": [
        {
          "internalType": "address",
          "name": "owner",
          "type": "address"
        }
      ],
      "name": "balanceOf",
      "outputs": [
        {
          "internalType": "uint256",
          "name": "",
          "type": "uint256"
        }
      ],
      "stateMutability": "view",
      "type": "function"
    },
    {
      "inputs": [],
      "name": "buyWord",
      "outputs": [],
      "stateMutability": "payable",
      "type": "function"
    },
    {
      "inputs": [],
      "name": "freeWord",
      "outputs": [],
      "stateMutability": "nonpayable",
      "type": "function"
    },
    {
      "inputs": [],
      "name": "freeWordsLeft",
      "outputs": [
        {
          "internalType": "uint32",
          "name": "",
          "type": "uint32"
        }
      ],
      "stateMutability": "view",
      "type": "function"
    },
    {
      "inputs": [
        {
          "internalType": "uint256",
          "name": "tokenId",
          "type": "uint256"
        }
      ],
      "name": "getApproved",
      "outputs": [
        {
          "internalType": "address",
          "name": "",
          "type": "address"
        }
      ],
      "stateMutability": "view",
      "type": "function"
    },
    {
      "inputs": [
        {
          "internalType": "address",
          "name": "owner",
          "type": "address"
        },
        {
          "internalType": "address",
          "name": "operator",
          "type": "address"
        }
      ],
      "name": "isApprovedForAll",
      "outputs": [
        {
          "internalType": "bool",
          "name": "",
          "type": "bool"
        }
      ],
      "stateMutability": "view",
      "type": "function"
    },
    {
      "inputs": [
        {
          "internalType": "uint256",
          "name": "tokenId",
          "type": "uint256"
        }
      ],
      "name": "letterFour",
      "outputs": [
        {
          "internalType": "string",
          "name": "",
          "type": "string"
        }
      ],
      "stateMutability": "view",
      "type": "function"
    },
    {
      "inputs": [
        {
          "internalType": "uint256",
          "name": "tokenId",
          "type": "uint256"
        }
      ],
      "name": "letterOne",
      "outputs": [
        {
          "internalType": "string",
          "name": "",
          "type": "string"
        }
      ],
      "stateMutability": "view",
      "type": "function"
    },
    {
      "inputs": [
        {
          "internalType": "uint256",
          "name": "tokenId",
          "type": "uint256"
        }
      ],
      "name": "letterThree",
      "outputs": [
        {
          "internalType": "string",
          "name": "",
          "type": "string"
        }
      ],
      "stateMutability": "view",
      "type": "function"
    },
    {
      "inputs": [
        {
          "internalType": "uint256",
          "name": "tokenId",
          "type": "uint256"
        }
      ],
      "name": "letterTwo",
      "outputs": [
        {
          "internalType": "string",
          "name": "",
          "type": "string"
        }
      ],
      "stateMutability": "view",
      "type": "function"
    },
    {
      "inputs": [
        {
          "internalType": "uint32",
          "name": "moreWords",
          "type": "uint32"
        }
      ],
      "name": "moreFreeWords",
      "outputs": [],
      "stateMutability": "nonpayable",
      "type": "function"
    },
    {
      "inputs": [],
      "name": "name",
      "outputs": [
        {
          "internalType": "string",
          "name": "",
          "type": "string"
        }
      ],
      "stateMutability": "view",
      "type": "function"
    },
    {
      "inputs": [],
      "name": "owner",
      "outputs": [
        {
          "internalType": "address",
          "name": "",
          "type": "address"
        }
      ],
      "stateMutability": "view",
      "type": "function"
    },
    {
      "inputs": [
        {
          "internalType": "uint256",
          "name": "tokenId",
          "type": "uint256"
        }
      ],
      "name": "ownerOf",
      "outputs": [
        {
          "internalType": "address",
          "name": "",
          "type": "address"
        }
      ],
      "stateMutability": "view",
      "type": "function"
    },
    {
      "inputs": [],
      "name": "renounceOwnership",
      "outputs": [],
      "stateMutability": "nonpayable",
      "type": "function"
    },
    {
      "inputs": [
        {
          "internalType": "address",
          "name": "from",
          "type": "address"
        },
        {
          "internalType": "address",
          "name": "to",
          "type": "address"
        },
        {
          "internalType": "uint256",
          "name": "tokenId",
          "type": "uint256"
        }
      ],
      "name": "safeTransferFrom",
      "outputs": [],
      "stateMutability": "nonpayable",
      "type": "function"
    },
    {
      "inputs": [
        {
          "internalType": "address",
          "name": "from",
          "type": "address"
        },
        {
          "internalType": "address",
          "name": "to",
          "type": "address"
        },
        {
          "internalType": "uint256",
          "name": "tokenId",
          "type": "uint256"
        },
        {
          "internalType": "bytes",
          "name": "_data",
          "type": "bytes"
        }
      ],
      "name": "safeTransferFrom",
      "outputs": [],
      "stateMutability": "nonpayable",
      "type": "function"
    },
    {
      "inputs": [
        {
          "internalType": "address",
          "name": "operator",
          "type": "address"
        },
        {
          "internalType": "bool",
          "name": "approved",
          "type": "bool"
        }
      ],
      "name": "setApprovalForAll",
      "outputs": [],
      "stateMutability": "nonpayable",
      "type": "function"
    },
    {
      "inputs": [
        {
          "internalType": "bytes4",
          "name": "interfaceId",
          "type": "bytes4"
        }
      ],
      "name": "supportsInterface",
      "outputs": [
        {
          "internalType": "bool",
          "name": "",
          "type": "bool"
        }
      ],
      "stateMutability": "view",
      "type": "function"
    },
    {
      "inputs": [],
      "name": "symbol",
      "outputs": [
        {
          "internalType": "string",
          "name": "",
          "type": "string"
        }
      ],
      "stateMutability": "view",
      "type": "function"
    },
    {
      "inputs": [
        {
          "internalType": "uint256",
          "name": "index",
          "type": "uint256"
        }
      ],
      "name": "tokenByIndex",
      "outputs": [
        {
          "internalType": "uint256",
          "name": "",
          "type": "uint256"
        }
      ],
      "stateMutability": "view",
      "type": "function"
    },
    {
      "inputs": [
        {
          "internalType": "address",
          "name": "owner",
          "type": "address"
        },
        {
          "internalType": "uint256",
          "name": "index",
          "type": "uint256"
        }
      ],
      "name": "tokenOfOwnerByIndex",
      "outputs": [
        {
          "internalType": "uint256",
          "name": "",
          "type": "uint256"
        }
      ],
      "stateMutability": "view",
      "type": "function"
    },
    {
      "inputs": [
        {
          "internalType": "uint256",
          "name": "tokenId",
          "type": "uint256"
        }
      ],
      "name": "tokenURI",
      "outputs": [
        {
          "internalType": "string",
          "name": "",
          "type": "string"
        }
      ],
      "stateMutability": "view",
      "type": "function"
    },
    {
      "inputs": [],
      "name": "totalSupply",
      "outputs": [
        {
          "internalType": "uint256",
          "name": "",
          "type": "uint256"
        }
      ],
      "stateMutability": "view",
      "type": "function"
    },
    {
      "inputs": [
        {
          "internalType": "address",
          "name": "from",
          "type": "address"
        },
        {
          "internalType": "address",
          "name": "to",
          "type": "address"
        },
        {
          "internalType": "uint256",
          "name": "tokenId",
          "type": "uint256"
        }
      ],
      "name": "transferFrom",
      "outputs": [],
      "stateMutability": "nonpayable",
      "type": "function"
    },
    {
      "inputs": [
        {
          "internalType": "address",
          "name": "newOwner",
          "type": "address"
        }
      ],
      "name": "transferOwnership",
      "outputs": [],
      "stateMutability": "nonpayable",
      "type": "function"
    },
    {
      "inputs": [],
      "name": "wordsCreated",
      "outputs": [
        {
          "internalType": "uint32",
          "name": "",
          "type": "uint32"
        }
      ],
      "stateMutability": "view",
      "type": "function"
    }
  ],
  "bytecode": "0x60806040523480156200001157600080fd5b5060405162005c6d38038062005c6d833981810160405281019062000037919062000d30565b818181600090805190602001906200005192919062000bb9565b5080600190805190602001906200006a92919062000bb9565b5050506001600a8190555062000095620000896200010360201b60201c565b6200010b60201b60201c565b6001600b60186101000a81548163ffffffff021916908363ffffffff1602179055506001600b60146101000a81548163ffffffff021916908363ffffffff160217905550620000fb620000ed6200010360201b60201c565b6000620001d160201b60201c565b5050620013da565b600033905090565b6000600b60009054906101000a900473ffffffffffffffffffffffffffffffffffffffff16905081600b60006101000a81548173ffffffffffffffffffffffffffffffffffffffff021916908373ffffffffffffffffffffffffffffffffffffffff1602179055508173ffffffffffffffffffffffffffffffffffffffff168173ffffffffffffffffffffffffffffffffffffffff167f8be0079c531659141344cd1fd0a4f28419497f9722a3daafe3b4186f6b6457e060405160405180910390a35050565b620001f3828260405180602001604052806000815250620001f760201b60201c565b5050565b6200020983836200026560201b60201c565b6200021e60008484846200044b60201b60201c565b62000260576040517f08c379a0000000000000000000000000000000000000000000000000000000008152600401620002579062000f08565b60405180910390fd5b505050565b600073ffffffffffffffffffffffffffffffffffffffff168273ffffffffffffffffffffffffffffffffffffffff161415620002d8576040517f08c379a0000000000000000000000000000000000000000000000000000000008152600401620002cf9062000f6e565b60405180910390fd5b620002e9816200060560201b60201c565b156200032c576040517f08c379a0000000000000000000000000000000000000000000000000000000008152600401620003239062000f2a565b60405180910390fd5b62000340600083836200067160201b60201c565b6001600360008473ffffffffffffffffffffffffffffffffffffffff1673ffffffffffffffffffffffffffffffffffffffff16815260200190815260200160002060008282546200039291906200101c565b92505081905550816002600083815260200190815260200160002060006101000a81548173ffffffffffffffffffffffffffffffffffffffff021916908373ffffffffffffffffffffffffffffffffffffffff160217905550808273ffffffffffffffffffffffffffffffffffffffff16600073ffffffffffffffffffffffffffffffffffffffff167fddf252ad1be2c89b69c2b068fc378daa952ba7f163c4a11628f55a4df523b3ef60405160405180910390a45050565b6000620004798473ffffffffffffffffffffffffffffffffffffffff16620007b860201b62001b6c1760201c565b15620005f8578373ffffffffffffffffffffffffffffffffffffffff1663150b7a02620004ab6200010360201b60201c565b8786866040518563ffffffff1660e01b8152600401620004cf949392919062000eb4565b602060405180830381600087803b158015620004ea57600080fd5b505af19250505080156200051e57506040513d601f19601f820116820180604052508101906200051b919062000cfe565b60015b620005a7573d806000811462000551576040519150601f19603f3d011682016040523d82523d6000602084013e62000556565b606091505b506000815114156200059f576040517f08c379a0000000000000000000000000000000000000000000000000000000008152600401620005969062000f08565b60405180910390fd5b805181602001fd5b63150b7a0260e01b7bffffffffffffffffffffffffffffffffffffffffffffffffffffffff1916817bffffffffffffffffffffffffffffffffffffffffffffffffffffffff191614915050620005fd565b600190505b949350505050565b60008073ffffffffffffffffffffffffffffffffffffffff166002600084815260200190815260200160002060009054906101000a900473ffffffffffffffffffffffffffffffffffffffff1673ffffffffffffffffffffffffffffffffffffffff1614159050919050565b62000689838383620007cb60201b62001b7f1760201c565b600073ffffffffffffffffffffffffffffffffffffffff168373ffffffffffffffffffffffffffffffffffffffff161415620006d657620006d081620007d060201b60201c565b6200071e565b8173ffffffffffffffffffffffffffffffffffffffff168373ffffffffffffffffffffffffffffffffffffffff16146200071d576200071c83826200081960201b60201c565b5b5b600073ffffffffffffffffffffffffffffffffffffffff168273ffffffffffffffffffffffffffffffffffffffff1614156200076b5762000765816200099660201b60201c565b620007b3565b8273ffffffffffffffffffffffffffffffffffffffff168273ffffffffffffffffffffffffffffffffffffffff1614620007b257620007b1828262000a7260201b60201c565b5b5b505050565b600080823b905060008111915050919050565b505050565b6008805490506009600083815260200190815260200160002081905550600881908060018154018082558091505060019003906000526020600020016000909190919091505550565b60006001620008338462000afe60201b620010a71760201c565b6200083f919062001079565b905060006007600084815260200190815260200160002054905081811462000925576000600660008673ffffffffffffffffffffffffffffffffffffffff1673ffffffffffffffffffffffffffffffffffffffff168152602001908152602001600020600084815260200190815260200160002054905080600660008773ffffffffffffffffffffffffffffffffffffffff1673ffffffffffffffffffffffffffffffffffffffff168152602001908152602001600020600084815260200190815260200160002081905550816007600083815260200190815260200160002081905550505b6007600084815260200190815260200160002060009055600660008573ffffffffffffffffffffffffffffffffffffffff1673ffffffffffffffffffffffffffffffffffffffff16815260200190815260200160002060008381526020019081526020016000206000905550505050565b60006001600880549050620009ac919062001079565b9050600060096000848152602001908152602001600020549050600060088381548110620009df57620009de6200124d565b5b90600052602060002001549050806008838154811062000a045762000a036200124d565b5b90600052602060002001819055508160096000838152602001908152602001600020819055506009600085815260200190815260200160002060009055600880548062000a565762000a556200121e565b5b6001900381819060005260206000200160009055905550505050565b600062000a8a8362000afe60201b620010a71760201c565b905081600660008573ffffffffffffffffffffffffffffffffffffffff1673ffffffffffffffffffffffffffffffffffffffff168152602001908152602001600020600083815260200190815260200160002081905550806007600084815260200190815260200160002081905550505050565b60008073ffffffffffffffffffffffffffffffffffffffff168273ffffffffffffffffffffffffffffffffffffffff16141562000b72576040517f08c379a000000000000000000000000000000000000000000000000000000000815260040162000b699062000f4c565b60405180910390fd5b600360008373ffffffffffffffffffffffffffffffffffffffff1673ffffffffffffffffffffffffffffffffffffffff168152602001908152602001600020549050919050565b82805462000bc79062001154565b90600052602060002090601f01602090048101928262000beb576000855562000c37565b82601f1062000c0657805160ff191683800117855562000c37565b8280016001018555821562000c37579182015b8281111562000c3657825182559160200191906001019062000c19565b5b50905062000c46919062000c4a565b5090565b5b8082111562000c6557600081600090555060010162000c4b565b5090565b600062000c8062000c7a8462000fb9565b62000f90565b90508281526020810184848401111562000c9f5762000c9e620012b0565b5b62000cac8482856200111e565b509392505050565b60008151905062000cc581620013c0565b92915050565b600082601f83011262000ce35762000ce2620012ab565b5b815162000cf584826020860162000c69565b91505092915050565b60006020828403121562000d175762000d16620012ba565b5b600062000d278482850162000cb4565b91505092915050565b6000806040838503121562000d4a5762000d49620012ba565b5b600083015167ffffffffffffffff81111562000d6b5762000d6a620012b5565b5b62000d798582860162000ccb565b925050602083015167ffffffffffffffff81111562000d9d5762000d9c620012b5565b5b62000dab8582860162000ccb565b9150509250929050565b62000dc081620010b4565b82525050565b600062000dd38262000fef565b62000ddf818562000ffa565b935062000df18185602086016200111e565b62000dfc81620012bf565b840191505092915050565b600062000e166032836200100b565b915062000e2382620012d0565b604082019050919050565b600062000e3d601c836200100b565b915062000e4a826200131f565b602082019050919050565b600062000e64602a836200100b565b915062000e718262001348565b604082019050919050565b600062000e8b6020836200100b565b915062000e988262001397565b602082019050919050565b62000eae8162001114565b82525050565b600060808201905062000ecb600083018762000db5565b62000eda602083018662000db5565b62000ee9604083018562000ea3565b818103606083015262000efd818462000dc6565b905095945050505050565b6000602082019050818103600083015262000f238162000e07565b9050919050565b6000602082019050818103600083015262000f458162000e2e565b9050919050565b6000602082019050818103600083015262000f678162000e55565b9050919050565b6000602082019050818103600083015262000f898162000e7c565b9050919050565b600062000f9c62000faf565b905062000faa82826200118a565b919050565b6000604051905090565b600067ffffffffffffffff82111562000fd75762000fd66200127c565b5b62000fe282620012bf565b9050602081019050919050565b600081519050919050565b600082825260208201905092915050565b600082825260208201905092915050565b6000620010298262001114565b9150620010368362001114565b9250827fffffffffffffffffffffffffffffffffffffffffffffffffffffffffffffffff038211156200106e576200106d620011c0565b5b828201905092915050565b6000620010868262001114565b9150620010938362001114565b925082821015620010a957620010a8620011c0565b5b828203905092915050565b6000620010c182620010f4565b9050919050565b60007fffffffff0000000000000000000000000000000000000000000000000000000082169050919050565b600073ffffffffffffffffffffffffffffffffffffffff82169050919050565b6000819050919050565b60005b838110156200113e57808201518184015260208101905062001121565b838111156200114e576000848401525b50505050565b600060028204905060018216806200116d57607f821691505b60208210811415620011845762001183620011ef565b5b50919050565b6200119582620012bf565b810181811067ffffffffffffffff82111715620011b757620011b66200127c565b5b80604052505050565b7f4e487b7100000000000000000000000000000000000000000000000000000000600052601160045260246000fd5b7f4e487b7100000000000000000000000000000000000000000000000000000000600052602260045260246000fd5b7f4e487b7100000000000000000000000000000000000000000000000000000000600052603160045260246000fd5b7f4e487b7100000000000000000000000000000000000000000000000000000000600052603260045260246000fd5b7f4e487b7100000000000000000000000000000000000000000000000000000000600052604160045260246000fd5b600080fd5b600080fd5b600080fd5b600080fd5b6000601f19601f8301169050919050565b7f4552433732313a207472616e7366657220746f206e6f6e20455243373231526560008201527f63656976657220696d706c656d656e7465720000000000000000000000000000602082015250565b7f4552433732313a20746f6b656e20616c7265616479206d696e74656400000000600082015250565b7f4552433732313a2062616c616e636520717565727920666f7220746865207a6560008201527f726f206164647265737300000000000000000000000000000000000000000000602082015250565b7f4552433732313a206d696e7420746f20746865207a65726f2061646472657373600082015250565b620013cb81620010c8565b8114620013d757600080fd5b50565b61488380620013ea6000396000f3fe6080604052600436106101b75760003560e01c80636e9f067f116100ec578063b88d4fde1161008a578063c87b56dd11610064578063c87b56dd14610611578063e985e9c51461064e578063f2fde38b1461068b578063f95bef63146106b4576101b7565b8063b88d4fde14610594578063bc06c087146105bd578063bcfb1140146105e8576101b7565b806387620522116100c657806387620522146104d85780638da5cb5b1461051557806395d89b4114610540578063a22cb4651461056b576101b7565b80636e9f067f1461044757806370a0823114610484578063715018a6146104c1576101b7565b80632f745c59116101595780634645aa09116101335780634645aa09146103985780634f6ccce7146103c35780635bc9b307146104005780636352211e1461040a576101b7565b80632f745c591461031b57806342842e0e146103585780634371b0cd14610381576101b7565b8063095ea7b311610195578063095ea7b31461026157806318160ddd1461028a57806323b872dd146102b55780632f5a8862146102de576101b7565b806301ffc9a7146101bc57806306fdde03146101f9578063081812fc14610224575b600080fd5b3480156101c857600080fd5b506101e360048036038101906101de91906130cd565b6106f1565b6040516101f09190613753565b60405180910390f35b34801561020557600080fd5b5061020e61076b565b60405161021b919061376e565b60405180910390f35b34801561023057600080fd5b5061024b60048036038101906102469190613127565b6107fd565b60405161025891906136ec565b60405180910390f35b34801561026d57600080fd5b506102886004803603810190610283919061308d565b610882565b005b34801561029657600080fd5b5061029f61099a565b6040516102ac9190613a30565b60405180910390f35b3480156102c157600080fd5b506102dc60048036038101906102d79190612f77565b6109a7565b005b3480156102ea57600080fd5b5061030560048036038101906103009190613127565b610a07565b604051610312919061376e565b60405180910390f35b34801561032757600080fd5b50610342600480360381019061033d919061308d565b610aa9565b60405161034f9190613a30565b60405180910390f35b34801561036457600080fd5b5061037f600480360381019061037a9190612f77565b610b4e565b005b34801561038d57600080fd5b50610396610b6e565b005b3480156103a457600080fd5b506103ad610d23565b6040516103ba9190613a4b565b60405180910390f35b3480156103cf57600080fd5b506103ea60048036038101906103e59190613127565b610db9565b6040516103f79190613a30565b60405180910390f35b610408610e2a565b005b34801561041657600080fd5b50610431600480360381019061042c9190613127565b610f53565b60405161043e91906136ec565b60405180910390f35b34801561045357600080fd5b5061046e60048036038101906104699190613127565b611005565b60405161047b919061376e565b60405180910390f35b34801561049057600080fd5b506104ab60048036038101906104a69190612f0a565b6110a7565b6040516104b89190613a30565b60405180910390f35b3480156104cd57600080fd5b506104d661115f565b005b3480156104e457600080fd5b506104ff60048036038101906104fa9190613127565b6111e7565b60405161050c919061376e565b60405180910390f35b34801561052157600080fd5b5061052a611289565b60405161053791906136ec565b60405180910390f35b34801561054c57600080fd5b506105556112b3565b604051610562919061376e565b60405180910390f35b34801561057757600080fd5b50610592600480360381019061058d919061304d565b611345565b005b3480156105a057600080fd5b506105bb60048036038101906105b69190612fca565b6114c6565b005b3480156105c957600080fd5b506105d2611528565b6040516105df9190613a4b565b60405180910390f35b3480156105f457600080fd5b5061060f600480360381019061060a9190613154565b611542565b005b34801561061d57600080fd5b5061063860048036038101906106339190613127565b611600565b604051610645919061376e565b60405180910390f35b34801561065a57600080fd5b5061067560048036038101906106709190612f37565b61193e565b6040516106829190613753565b60405180910390f35b34801561069757600080fd5b506106b260048036038101906106ad9190612f0a565b6119d2565b005b3480156106c057600080fd5b506106db60048036038101906106d69190613127565b611aca565b6040516106e8919061376e565b60405180910390f35b60007f780e9d63000000000000000000000000000000000000000000000000000000007bffffffffffffffffffffffffffffffffffffffffffffffffffffffff1916827bffffffffffffffffffffffffffffffffffffffffffffffffffffffff19161480610764575061076382611b84565b5b9050919050565b60606000805461077a90613d72565b80601f01602080910402602001604051908101604052809291908181526020018280546107a690613d72565b80156107f35780601f106107c8576101008083540402835291602001916107f3565b820191906000526020600020905b8154815290600101906020018083116107d657829003601f168201915b5050505050905090565b600061080882611c66565b610847576040517f08c379a000000000000000000000000000000000000000000000000000000000815260040161083e90613910565b60405180910390fd5b6004600083815260200190815260200160002060009054906101000a900473ffffffffffffffffffffffffffffffffffffffff169050919050565b600061088d82610f53565b90508073ffffffffffffffffffffffffffffffffffffffff168373ffffffffffffffffffffffffffffffffffffffff1614156108fe576040517f08c379a00000000000000000000000000000000000000000000000000000000081526004016108f590613990565b60405180910390fd5b8073ffffffffffffffffffffffffffffffffffffffff1661091d611cd2565b73ffffffffffffffffffffffffffffffffffffffff16148061094c575061094b81610946611cd2565b61193e565b5b61098b576040517f08c379a000000000000000000000000000000000000000000000000000000000815260040161098290613890565b60405180910390fd5b6109958383611cda565b505050565b6000600880549050905090565b6109b86109b2611cd2565b82611d93565b6109f7576040517f08c379a00000000000000000000000000000000000000000000000000000000081526004016109ee906139b0565b60405180910390fd5b610a02838383611e71565b505050565b6060600b60189054906101000a900463ffffffff1663ffffffff168210610a63576040517f08c379a0000000000000000000000000000000000000000000000000000000008152600401610a5a90613970565b60405180910390fd5b610aa2826040518060400160405280600381526020017f4f4e4500000000000000000000000000000000000000000000000000000000008152506120cd565b9050919050565b6000610ab4836110a7565b8210610af5576040517f08c379a0000000000000000000000000000000000000000000000000000000008152600401610aec90613790565b60405180910390fd5b600660008473ffffffffffffffffffffffffffffffffffffffff1673ffffffffffffffffffffffffffffffffffffffff168152602001908152602001600020600083815260200190815260200160002054905092915050565b610b69838383604051806020016040528060008152506114c6565b505050565b6002600a541415610bb4576040517f08c379a0000000000000000000000000000000000000000000000000000000008152600401610bab90613a10565b60405180910390fd5b6002600a819055506000610bc7336110a7565b14610c07576040517f08c379a0000000000000000000000000000000000000000000000000000000008152600401610bfe906139f0565b60405180910390fd5b6000600b60149054906101000a900463ffffffff1663ffffffff1611610c62576040517f08c379a0000000000000000000000000000000000000000000000000000000008152600401610c5990613810565b60405180910390fd5b600b601881819054906101000a900463ffffffff1680929190610c8490613e1e565b91906101000a81548163ffffffff021916908363ffffffff16021790555050600b601481819054906101000a900463ffffffff1680929190610cc590613d48565b91906101000a81548163ffffffff021916908363ffffffff16021790555050610d19610cef611cd2565b6001600b60189054906101000a900463ffffffff16610d0e9190613c4e565b63ffffffff16612144565b6001600a81905550565b6000610d2d611cd2565b73ffffffffffffffffffffffffffffffffffffffff16610d4b611289565b73ffffffffffffffffffffffffffffffffffffffff1614610da1576040517f08c379a0000000000000000000000000000000000000000000000000000000008152600401610d9890613930565b60405180910390fd5b600b60189054906101000a900463ffffffff16905090565b6000610dc361099a565b8210610e04576040517f08c379a0000000000000000000000000000000000000000000000000000000008152600401610dfb906139d0565b60405180910390fd5b60088281548110610e1857610e17613f38565b5b90600052602060002001549050919050565b6002600a541415610e70576040517f08c379a0000000000000000000000000000000000000000000000000000000008152600401610e6790613a10565b60405180910390fd5b6002600a8190555060013411610e8557600080fd5b610e8d611289565b73ffffffffffffffffffffffffffffffffffffffff166108fc349081150290604051600060405180830381858888f19350505050158015610ed2573d6000803e3d6000fd5b50600b601881819054906101000a900463ffffffff1680929190610ef590613e1e565b91906101000a81548163ffffffff021916908363ffffffff16021790555050610f49610f1f611cd2565b6001600b60189054906101000a900463ffffffff16610f3e9190613c4e565b63ffffffff16612144565b6001600a81905550565b6000806002600084815260200190815260200160002060009054906101000a900473ffffffffffffffffffffffffffffffffffffffff169050600073ffffffffffffffffffffffffffffffffffffffff168173ffffffffffffffffffffffffffffffffffffffff161415610ffc576040517f08c379a0000000000000000000000000000000000000000000000000000000008152600401610ff3906138d0565b60405180910390fd5b80915050919050565b6060600b60189054906101000a900463ffffffff1663ffffffff168210611061576040517f08c379a000000000000000000000000000000000000000000000000000000000815260040161105890613970565b60405180910390fd5b6110a0826040518060400160405280600481526020017f464f5552000000000000000000000000000000000000000000000000000000008152506120cd565b9050919050565b60008073ffffffffffffffffffffffffffffffffffffffff168273ffffffffffffffffffffffffffffffffffffffff161415611118576040517f08c379a000000000000000000000000000000000000000000000000000000000815260040161110f906138b0565b60405180910390fd5b600360008373ffffffffffffffffffffffffffffffffffffffff1673ffffffffffffffffffffffffffffffffffffffff168152602001908152602001600020549050919050565b611167611cd2565b73ffffffffffffffffffffffffffffffffffffffff16611185611289565b73ffffffffffffffffffffffffffffffffffffffff16146111db576040517f08c379a00000000000000000000000000000000000000000000000000000000081526004016111d290613930565b60405180910390fd5b6111e56000612162565b565b6060600b60189054906101000a900463ffffffff1663ffffffff168210611243576040517f08c379a000000000000000000000000000000000000000000000000000000000815260040161123a90613970565b60405180910390fd5b611282826040518060400160405280600381526020017f54574f00000000000000000000000000000000000000000000000000000000008152506120cd565b9050919050565b6000600b60009054906101000a900473ffffffffffffffffffffffffffffffffffffffff16905090565b6060600180546112c290613d72565b80601f01602080910402602001604051908101604052809291908181526020018280546112ee90613d72565b801561133b5780601f106113105761010080835404028352916020019161133b565b820191906000526020600020905b81548152906001019060200180831161131e57829003601f168201915b5050505050905090565b61134d611cd2565b73ffffffffffffffffffffffffffffffffffffffff168273ffffffffffffffffffffffffffffffffffffffff1614156113bb576040517f08c379a00000000000000000000000000000000000000000000000000000000081526004016113b290613850565b60405180910390fd5b80600560006113c8611cd2565b73ffffffffffffffffffffffffffffffffffffffff1673ffffffffffffffffffffffffffffffffffffffff16815260200190815260200160002060008473ffffffffffffffffffffffffffffffffffffffff1673ffffffffffffffffffffffffffffffffffffffff16815260200190815260200160002060006101000a81548160ff0219169083151502179055508173ffffffffffffffffffffffffffffffffffffffff16611475611cd2565b73ffffffffffffffffffffffffffffffffffffffff167f17307eab39ab6107e8899845ad3d59bd9653f200f220920489ca2b5937696c31836040516114ba9190613753565b60405180910390a35050565b6114d76114d1611cd2565b83611d93565b611516576040517f08c379a000000000000000000000000000000000000000000000000000000000815260040161150d906139b0565b60405180910390fd5b61152284848484612228565b50505050565b6000600b60149054906101000a900463ffffffff16905090565b61154a611cd2565b73ffffffffffffffffffffffffffffffffffffffff16611568611289565b73ffffffffffffffffffffffffffffffffffffffff16146115be576040517f08c379a00000000000000000000000000000000000000000000000000000000081526004016115b590613930565b60405180910390fd5b80600b60148282829054906101000a900463ffffffff166115df9190613b55565b92506101000a81548163ffffffff021916908363ffffffff16021790555050565b606061160a612df4565b60405180610160016040528061012c81526020016146fa61012c91398160006009811061163a57611639613f38565b5b602002018190525061164b83610a07565b8160016009811061165f5761165e613f38565b5b6020020181905250604051806060016040528060288152602001614692602891398160026009811061169457611693613f38565b5b60200201819052506116a5836111e7565b816003600981106116b9576116b8613f38565b5b602002018190525060405180606001604052806028815260200161482660289139816004600981106116ee576116ed613f38565b5b60200201819052506116ff83611aca565b8160056009811061171357611712613f38565b5b602002018190525060405180606001604052806028815260200161466a602891398160066009811061174857611747613f38565b5b602002018190525061175983611005565b8160076009811061176d5761176c613f38565b5b60200201819052506040518060400160405280600d81526020017f3c2f746578743e3c2f7376673e00000000000000000000000000000000000000815250816008600981106117bf576117be613f38565b5b60200201819052506000816000600981106117dd576117dc613f38565b5b6020020151826001600981106117f6576117f5613f38565b5b60200201518360026009811061180f5761180e613f38565b5b60200201518460036009811061182857611827613f38565b5b60200201518560046009811061184157611840613f38565b5b60200201518660056009811061185a57611859613f38565b5b60200201518760066009811061187357611872613f38565b5b60200201518860076009811061188c5761188b613f38565b5b6020020151896008600981106118a5576118a4613f38565b5b60200201516040516020016118c299989796959493929190613606565b6040516020818303038152906040529050600061190f6118e186612284565b6118ea846123e5565b6040516020016118fb929190613685565b6040516020818303038152906040526123e5565b90508060405160200161192291906136ca565b6040516020818303038152906040529150819350505050919050565b6000600560008473ffffffffffffffffffffffffffffffffffffffff1673ffffffffffffffffffffffffffffffffffffffff16815260200190815260200160002060008373ffffffffffffffffffffffffffffffffffffffff1673ffffffffffffffffffffffffffffffffffffffff16815260200190815260200160002060009054906101000a900460ff16905092915050565b6119da611cd2565b73ffffffffffffffffffffffffffffffffffffffff166119f8611289565b73ffffffffffffffffffffffffffffffffffffffff1614611a4e576040517f08c379a0000000000000000000000000000000000000000000000000000000008152600401611a4590613930565b60405180910390fd5b600073ffffffffffffffffffffffffffffffffffffffff168173ffffffffffffffffffffffffffffffffffffffff161415611abe576040517f08c379a0000000000000000000000000000000000000000000000000000000008152600401611ab5906137d0565b60405180910390fd5b611ac781612162565b50565b6060600b60189054906101000a900463ffffffff1663ffffffff168210611b26576040517f08c379a0000000000000000000000000000000000000000000000000000000008152600401611b1d90613970565b60405180910390fd5b611b65826040518060400160405280600581526020017f54485245450000000000000000000000000000000000000000000000000000008152506120cd565b9050919050565b600080823b905060008111915050919050565b505050565b60007f80ac58cd000000000000000000000000000000000000000000000000000000007bffffffffffffffffffffffffffffffffffffffffffffffffffffffff1916827bffffffffffffffffffffffffffffffffffffffffffffffffffffffff19161480611c4f57507f5b5e139f000000000000000000000000000000000000000000000000000000007bffffffffffffffffffffffffffffffffffffffffffffffffffffffff1916827bffffffffffffffffffffffffffffffffffffffffffffffffffffffff1916145b80611c5f5750611c5e8261257d565b5b9050919050565b60008073ffffffffffffffffffffffffffffffffffffffff166002600084815260200190815260200160002060009054906101000a900473ffffffffffffffffffffffffffffffffffffffff1673ffffffffffffffffffffffffffffffffffffffff1614159050919050565b600033905090565b816004600083815260200190815260200160002060006101000a81548173ffffffffffffffffffffffffffffffffffffffff021916908373ffffffffffffffffffffffffffffffffffffffff160217905550808273ffffffffffffffffffffffffffffffffffffffff16611d4d83610f53565b73ffffffffffffffffffffffffffffffffffffffff167f8c5be1e5ebec7d5bd14f71427d1e84f3dd0314c0f7b2291e5b200ac8c7c3b92560405160405180910390a45050565b6000611d9e82611c66565b611ddd576040517f08c379a0000000000000000000000000000000000000000000000000000000008152600401611dd490613870565b60405180910390fd5b6000611de883610f53565b90508073ffffffffffffffffffffffffffffffffffffffff168473ffffffffffffffffffffffffffffffffffffffff161480611e5757508373ffffffffffffffffffffffffffffffffffffffff16611e3f846107fd565b73ffffffffffffffffffffffffffffffffffffffff16145b80611e685750611e67818561193e565b5b91505092915050565b8273ffffffffffffffffffffffffffffffffffffffff16611e9182610f53565b73ffffffffffffffffffffffffffffffffffffffff1614611ee7576040517f08c379a0000000000000000000000000000000000000000000000000000000008152600401611ede90613950565b60405180910390fd5b600073ffffffffffffffffffffffffffffffffffffffff168273ffffffffffffffffffffffffffffffffffffffff161415611f57576040517f08c379a0000000000000000000000000000000000000000000000000000000008152600401611f4e90613830565b60405180910390fd5b611f628383836125e7565b611f6d600082611cda565b6001600360008573ffffffffffffffffffffffffffffffffffffffff1673ffffffffffffffffffffffffffffffffffffffff1681526020019081526020016000206000828254611fbd9190613c1a565b925050819055506001600360008473ffffffffffffffffffffffffffffffffffffffff1673ffffffffffffffffffffffffffffffffffffffff16815260200190815260200160002060008282546120149190613aff565b92505081905550816002600083815260200190815260200160002060006101000a81548173ffffffffffffffffffffffffffffffffffffffff021916908373ffffffffffffffffffffffffffffffffffffffff160217905550808273ffffffffffffffffffffffffffffffffffffffff168473ffffffffffffffffffffffffffffffffffffffff167fddf252ad1be2c89b69c2b068fc378daa952ba7f163c4a11628f55a4df523b3ef60405160405180910390a4505050565b60606000612103836120de86612284565b6040516020016120ef9291906135e2565b6040516020818303038152906040526126fb565b90506040518060400160405280600181526020017f410000000000000000000000000000000000000000000000000000000000000081525091505092915050565b61215e82826040518060200160405280600081525061272e565b5050565b6000600b60009054906101000a900473ffffffffffffffffffffffffffffffffffffffff16905081600b60006101000a81548173ffffffffffffffffffffffffffffffffffffffff021916908373ffffffffffffffffffffffffffffffffffffffff1602179055508173ffffffffffffffffffffffffffffffffffffffff168173ffffffffffffffffffffffffffffffffffffffff167f8be0079c531659141344cd1fd0a4f28419497f9722a3daafe3b4186f6b6457e060405160405180910390a35050565b612233848484611e71565b61223f84848484612789565b61227e576040517f08c379a0000000000000000000000000000000000000000000000000000000008152600401612275906137b0565b60405180910390fd5b50505050565b606060008214156122cc576040518060400160405280600181526020017f300000000000000000000000000000000000000000000000000000000000000081525090506123e0565b600082905060005b600082146122fe5780806122e790613dd5565b915050600a826122f79190613b8f565b91506122d4565b60008167ffffffffffffffff81111561231a57612319613f67565b5b6040519080825280601f01601f19166020018201604052801561234c5781602001600182028036833780820191505090505b5090505b600085146123d9576001826123659190613c1a565b9150600a856123749190613e4b565b60306123809190613aff565b60f81b81838151811061239657612395613f38565b5b60200101907effffffffffffffffffffffffffffffffffffffffffffffffffffffffffffff1916908160001a905350600a856123d29190613b8f565b9450612350565b8093505050505b919050565b6060600082519050600081141561240e5760405180602001604052806000815250915050612578565b6000600360028361241f9190613aff565b6124299190613b8f565b60046124359190613bc0565b905060006020826124469190613aff565b67ffffffffffffffff81111561245f5761245e613f67565b5b6040519080825280601f01601f1916602001820160405280156124915781602001600182028036833780820191505090505b50905060006040518060600160405280604081526020016146ba604091399050600181016020830160005b868110156125355760038101905062ffffff818a015116603f8160121c168401518060081b905060ff603f83600c1c1686015116810190508060081b905060ff603f8360061c1686015116810190508060081b905060ff603f831686015116810190508060e01b905080845260048401935050506124bc565b50600386066001811461254f576002811461255f5761256a565b613d3d60f01b600283035261256a565b603d60f81b60018303525b508484525050819450505050505b919050565b60007f01ffc9a7000000000000000000000000000000000000000000000000000000007bffffffffffffffffffffffffffffffffffffffffffffffffffffffff1916827bffffffffffffffffffffffffffffffffffffffffffffffffffffffff1916149050919050565b6125f2838383611b7f565b600073ffffffffffffffffffffffffffffffffffffffff168373ffffffffffffffffffffffffffffffffffffffff1614156126355761263081612920565b612674565b8173ffffffffffffffffffffffffffffffffffffffff168373ffffffffffffffffffffffffffffffffffffffff1614612673576126728382612969565b5b5b600073ffffffffffffffffffffffffffffffffffffffff168273ffffffffffffffffffffffffffffffffffffffff1614156126b7576126b281612ad6565b6126f6565b8273ffffffffffffffffffffffffffffffffffffffff168273ffffffffffffffffffffffffffffffffffffffff16146126f5576126f48282612ba7565b5b5b505050565b60008160405160200161270e91906135cb565b6040516020818303038152906040528051906020012060001c9050919050565b6127388383612c26565b6127456000848484612789565b612784576040517f08c379a000000000000000000000000000000000000000000000000000000000815260040161277b906137b0565b60405180910390fd5b505050565b60006127aa8473ffffffffffffffffffffffffffffffffffffffff16611b6c565b15612913578373ffffffffffffffffffffffffffffffffffffffff1663150b7a026127d3611cd2565b8786866040518563ffffffff1660e01b81526004016127f59493929190613707565b602060405180830381600087803b15801561280f57600080fd5b505af192505050801561284057506040513d601f19601f8201168201806040525081019061283d91906130fa565b60015b6128c3573d8060008114612870576040519150601f19603f3d011682016040523d82523d6000602084013e612875565b606091505b506000815114156128bb576040517f08c379a00000000000000000000000000000000000000000000000000000000081526004016128b2906137b0565b60405180910390fd5b805181602001fd5b63150b7a0260e01b7bffffffffffffffffffffffffffffffffffffffffffffffffffffffff1916817bffffffffffffffffffffffffffffffffffffffffffffffffffffffff191614915050612918565b600190505b949350505050565b6008805490506009600083815260200190815260200160002081905550600881908060018154018082558091505060019003906000526020600020016000909190919091505550565b60006001612976846110a7565b6129809190613c1a565b9050600060076000848152602001908152602001600020549050818114612a65576000600660008673ffffffffffffffffffffffffffffffffffffffff1673ffffffffffffffffffffffffffffffffffffffff168152602001908152602001600020600084815260200190815260200160002054905080600660008773ffffffffffffffffffffffffffffffffffffffff1673ffffffffffffffffffffffffffffffffffffffff168152602001908152602001600020600084815260200190815260200160002081905550816007600083815260200190815260200160002081905550505b6007600084815260200190815260200160002060009055600660008573ffffffffffffffffffffffffffffffffffffffff1673ffffffffffffffffffffffffffffffffffffffff16815260200190815260200160002060008381526020019081526020016000206000905550505050565b60006001600880549050612aea9190613c1a565b9050600060096000848152602001908152602001600020549050600060088381548110612b1a57612b19613f38565b5b906000526020600020015490508060088381548110612b3c57612b3b613f38565b5b906000526020600020018190555081600960008381526020019081526020016000208190555060096000858152602001908152602001600020600090556008805480612b8b57612b8a613f09565b5b6001900381819060005260206000200160009055905550505050565b6000612bb2836110a7565b905081600660008573ffffffffffffffffffffffffffffffffffffffff1673ffffffffffffffffffffffffffffffffffffffff168152602001908152602001600020600083815260200190815260200160002081905550806007600084815260200190815260200160002081905550505050565b600073ffffffffffffffffffffffffffffffffffffffff168273ffffffffffffffffffffffffffffffffffffffff161415612c96576040517f08c379a0000000000000000000000000000000000000000000000000000000008152600401612c8d906138f0565b60405180910390fd5b612c9f81611c66565b15612cdf576040517f08c379a0000000000000000000000000000000000000000000000000000000008152600401612cd6906137f0565b60405180910390fd5b612ceb600083836125e7565b6001600360008473ffffffffffffffffffffffffffffffffffffffff1673ffffffffffffffffffffffffffffffffffffffff1681526020019081526020016000206000828254612d3b9190613aff565b92505081905550816002600083815260200190815260200160002060006101000a81548173ffffffffffffffffffffffffffffffffffffffff021916908373ffffffffffffffffffffffffffffffffffffffff160217905550808273ffffffffffffffffffffffffffffffffffffffff16600073ffffffffffffffffffffffffffffffffffffffff167fddf252ad1be2c89b69c2b068fc378daa952ba7f163c4a11628f55a4df523b3ef60405160405180910390a45050565b6040518061012001604052806009905b6060815260200190600190039081612e045790505090565b6000612e2f612e2a84613a8b565b613a66565b905082815260208101848484011115612e4b57612e4a613f9b565b5b612e56848285613d06565b509392505050565b600081359050612e6d816145f6565b92915050565b600081359050612e828161460d565b92915050565b600081359050612e9781614624565b92915050565b600081519050612eac81614624565b92915050565b600082601f830112612ec757612ec6613f96565b5b8135612ed7848260208601612e1c565b91505092915050565b600081359050612eef8161463b565b92915050565b600081359050612f0481614652565b92915050565b600060208284031215612f2057612f1f613fa5565b5b6000612f2e84828501612e5e565b91505092915050565b60008060408385031215612f4e57612f4d613fa5565b5b6000612f5c85828601612e5e565b9250506020612f6d85828601612e5e565b9150509250929050565b600080600060608486031215612f9057612f8f613fa5565b5b6000612f9e86828701612e5e565b9350506020612faf86828701612e5e565b9250506040612fc086828701612ee0565b9150509250925092565b60008060008060808587031215612fe457612fe3613fa5565b5b6000612ff287828801612e5e565b945050602061300387828801612e5e565b935050604061301487828801612ee0565b925050606085013567ffffffffffffffff81111561303557613034613fa0565b5b61304187828801612eb2565b91505092959194509250565b6000806040838503121561306457613063613fa5565b5b600061307285828601612e5e565b925050602061308385828601612e73565b9150509250929050565b600080604083850312156130a4576130a3613fa5565b5b60006130b285828601612e5e565b92505060206130c385828601612ee0565b9150509250929050565b6000602082840312156130e3576130e2613fa5565b5b60006130f184828501612e88565b91505092915050565b6000602082840312156131105761310f613fa5565b5b600061311e84828501612e9d565b91505092915050565b60006020828403121561313d5761313c613fa5565b5b600061314b84828501612ee0565b91505092915050565b60006020828403121561316a57613169613fa5565b5b600061317884828501612ef5565b91505092915050565b61318a81613c82565b82525050565b61319981613c94565b82525050565b60006131aa82613abc565b6131b48185613ad2565b93506131c4818560208601613d15565b6131cd81613faa565b840191505092915050565b60006131e382613ac7565b6131ed8185613ae3565b93506131fd818560208601613d15565b61320681613faa565b840191505092915050565b600061321c82613ac7565b6132268185613af4565b9350613236818560208601613d15565b80840191505092915050565b600061324f602b83613ae3565b915061325a82613fbb565b604082019050919050565b6000613272603283613ae3565b915061327d8261400a565b604082019050919050565b6000613295602683613ae3565b91506132a082614059565b604082019050919050565b60006132b8601c83613ae3565b91506132c3826140a8565b602082019050919050565b60006132db604e83613af4565b91506132e6826140d1565b604e82019050919050565b60006132fe601383613ae3565b915061330982614146565b602082019050919050565b6000613321602483613ae3565b915061332c8261416f565b604082019050919050565b6000613344601983613ae3565b915061334f826141be565b602082019050919050565b6000613367602c83613ae3565b9150613372826141e7565b604082019050919050565b600061338a603883613ae3565b915061339582614236565b604082019050919050565b60006133ad602a83613ae3565b91506133b882614285565b604082019050919050565b60006133d0602983613ae3565b91506133db826142d4565b604082019050919050565b60006133f3600283613af4565b91506133fe82614323565b600282019050919050565b6000613416602083613ae3565b91506134218261434c565b602082019050919050565b6000613439602c83613ae3565b915061344482614375565b604082019050919050565b600061345c602083613ae3565b9150613467826143c4565b602082019050919050565b600061347f602983613ae3565b915061348a826143ed565b604082019050919050565b60006134a2601283613ae3565b91506134ad8261443c565b602082019050919050565b60006134c5601383613af4565b91506134d082614465565b601382019050919050565b60006134e8602183613ae3565b91506134f38261448e565b604082019050919050565b600061350b601d83613af4565b9150613516826144dd565b601d82019050919050565b600061352e603183613ae3565b915061353982614506565b604082019050919050565b6000613551602c83613ae3565b915061355c82614555565b604082019050919050565b6000613574601383613ae3565b915061357f826145a4565b602082019050919050565b6000613597601f83613ae3565b91506135a2826145cd565b602082019050919050565b6135b681613cec565b82525050565b6135c581613cf6565b82525050565b60006135d78284613211565b915081905092915050565b60006135ee8285613211565b91506135fa8284613211565b91508190509392505050565b6000613612828c613211565b915061361e828b613211565b915061362a828a613211565b91506136368289613211565b91506136428288613211565b915061364e8287613211565b915061365a8286613211565b91506136668285613211565b91506136728284613211565b91508190509a9950505050505050505050565b6000613690826134b8565b915061369c8285613211565b91506136a7826132ce565b91506136b38284613211565b91506136be826133e6565b91508190509392505050565b60006136d5826134fe565b91506136e18284613211565b915081905092915050565b60006020820190506137016000830184613181565b92915050565b600060808201905061371c6000830187613181565b6137296020830186613181565b61373660408301856135ad565b8181036060830152613748818461319f565b905095945050505050565b60006020820190506137686000830184613190565b92915050565b6000602082019050818103600083015261378881846131d8565b905092915050565b600060208201905081810360008301526137a981613242565b9050919050565b600060208201905081810360008301526137c981613265565b9050919050565b600060208201905081810360008301526137e981613288565b9050919050565b60006020820190508181036000830152613809816132ab565b9050919050565b60006020820190508181036000830152613829816132f1565b9050919050565b6000602082019050818103600083015261384981613314565b9050919050565b6000602082019050818103600083015261386981613337565b9050919050565b600060208201905081810360008301526138898161335a565b9050919050565b600060208201905081810360008301526138a98161337d565b9050919050565b600060208201905081810360008301526138c9816133a0565b9050919050565b600060208201905081810360008301526138e9816133c3565b9050919050565b6000602082019050818103600083015261390981613409565b9050919050565b600060208201905081810360008301526139298161342c565b9050919050565b600060208201905081810360008301526139498161344f565b9050919050565b6000602082019050818103600083015261396981613472565b9050919050565b6000602082019050818103600083015261398981613495565b9050919050565b600060208201905081810360008301526139a9816134db565b9050919050565b600060208201905081810360008301526139c981613521565b9050919050565b600060208201905081810360008301526139e981613544565b9050919050565b60006020820190508181036000830152613a0981613567565b9050919050565b60006020820190508181036000830152613a298161358a565b9050919050565b6000602082019050613a4560008301846135ad565b92915050565b6000602082019050613a6060008301846135bc565b92915050565b6000613a70613a81565b9050613a7c8282613da4565b919050565b6000604051905090565b600067ffffffffffffffff821115613aa657613aa5613f67565b5b613aaf82613faa565b9050602081019050919050565b600081519050919050565b600081519050919050565b600082825260208201905092915050565b600082825260208201905092915050565b600081905092915050565b6000613b0a82613cec565b9150613b1583613cec565b9250827fffffffffffffffffffffffffffffffffffffffffffffffffffffffffffffffff03821115613b4a57613b49613e7c565b5b828201905092915050565b6000613b6082613cf6565b9150613b6b83613cf6565b92508263ffffffff03821115613b8457613b83613e7c565b5b828201905092915050565b6000613b9a82613cec565b9150613ba583613cec565b925082613bb557613bb4613eab565b5b828204905092915050565b6000613bcb82613cec565b9150613bd683613cec565b9250817fffffffffffffffffffffffffffffffffffffffffffffffffffffffffffffffff0483118215151615613c0f57613c0e613e7c565b5b828202905092915050565b6000613c2582613cec565b9150613c3083613cec565b925082821015613c4357613c42613e7c565b5b828203905092915050565b6000613c5982613cf6565b9150613c6483613cf6565b925082821015613c7757613c76613e7c565b5b828203905092915050565b6000613c8d82613ccc565b9050919050565b60008115159050919050565b60007fffffffff0000000000000000000000000000000000000000000000000000000082169050919050565b600073ffffffffffffffffffffffffffffffffffffffff82169050919050565b6000819050919050565b600063ffffffff82169050919050565b82818337600083830152505050565b60005b83811015613d33578082015181840152602081019050613d18565b83811115613d42576000848401525b50505050565b6000613d5382613cf6565b91506000821415613d6757613d66613e7c565b5b600182039050919050565b60006002820490506001821680613d8a57607f821691505b60208210811415613d9e57613d9d613eda565b5b50919050565b613dad82613faa565b810181811067ffffffffffffffff82111715613dcc57613dcb613f67565b5b80604052505050565b6000613de082613cec565b91507fffffffffffffffffffffffffffffffffffffffffffffffffffffffffffffffff821415613e1357613e12613e7c565b5b600182019050919050565b6000613e2982613cf6565b915063ffffffff821415613e4057613e3f613e7c565b5b600182019050919050565b6000613e5682613cec565b9150613e6183613cec565b925082613e7157613e70613eab565b5b828206905092915050565b7f4e487b7100000000000000000000000000000000000000000000000000000000600052601160045260246000fd5b7f4e487b7100000000000000000000000000000000000000000000000000000000600052601260045260246000fd5b7f4e487b7100000000000000000000000000000000000000000000000000000000600052602260045260246000fd5b7f4e487b7100000000000000000000000000000000000000000000000000000000600052603160045260246000fd5b7f4e487b7100000000000000000000000000000000000000000000000000000000600052603260045260246000fd5b7f4e487b7100000000000000000000000000000000000000000000000000000000600052604160045260246000fd5b600080fd5b600080fd5b600080fd5b600080fd5b6000601f19601f8301169050919050565b7f455243373231456e756d657261626c653a206f776e657220696e646578206f7560008201527f74206f6620626f756e6473000000000000000000000000000000000000000000602082015250565b7f4552433732313a207472616e7366657220746f206e6f6e20455243373231526560008201527f63656976657220696d706c656d656e7465720000000000000000000000000000602082015250565b7f4f776e61626c653a206e6577206f776e657220697320746865207a65726f206160008201527f6464726573730000000000000000000000000000000000000000000000000000602082015250565b7f4552433732313a20746f6b656e20616c7265616479206d696e74656400000000600082015250565b7f222c20226465736372697074696f6e223a202274686973206973206120776f7260008201527f64206d61796265222c2022696d616765223a2022646174613a696d6167652f7360208201527f76672b786d6c3b6261736536342c000000000000000000000000000000000000604082015250565b7f4e6f206d6f7265206672656520776f7264732e00000000000000000000000000600082015250565b7f4552433732313a207472616e7366657220746f20746865207a65726f2061646460008201527f7265737300000000000000000000000000000000000000000000000000000000602082015250565b7f4552433732313a20617070726f766520746f2063616c6c657200000000000000600082015250565b7f4552433732313a206f70657261746f7220717565727920666f72206e6f6e657860008201527f697374656e7420746f6b656e0000000000000000000000000000000000000000602082015250565b7f4552433732313a20617070726f76652063616c6c6572206973206e6f74206f7760008201527f6e6572206e6f7220617070726f76656420666f7220616c6c0000000000000000602082015250565b7f4552433732313a2062616c616e636520717565727920666f7220746865207a6560008201527f726f206164647265737300000000000000000000000000000000000000000000602082015250565b7f4552433732313a206f776e657220717565727920666f72206e6f6e657869737460008201527f656e7420746f6b656e0000000000000000000000000000000000000000000000602082015250565b7f227d000000000000000000000000000000000000000000000000000000000000600082015250565b7f4552433732313a206d696e7420746f20746865207a65726f2061646472657373600082015250565b7f4552433732313a20617070726f76656420717565727920666f72206e6f6e657860008201527f697374656e7420746f6b656e0000000000000000000000000000000000000000602082015250565b7f4f776e61626c653a2063616c6c6572206973206e6f7420746865206f776e6572600082015250565b7f4552433732313a207472616e73666572206f6620746f6b656e2074686174206960008201527f73206e6f74206f776e0000000000000000000000000000000000000000000000602082015250565b7f576f7264206e6f74206d616465207965742e0000000000000000000000000000600082015250565b7f7b226e616d65223a2022576f72642e2e2e3f2000000000000000000000000000600082015250565b7f4552433732313a20617070726f76616c20746f2063757272656e74206f776e6560008201527f7200000000000000000000000000000000000000000000000000000000000000602082015250565b7f646174613a6170706c69636174696f6e2f6a736f6e3b6261736536342c000000600082015250565b7f4552433732313a207472616e736665722063616c6c6572206973206e6f74206f60008201527f776e6572206e6f7220617070726f766564000000000000000000000000000000602082015250565b7f455243373231456e756d657261626c653a20676c6f62616c20696e646578206f60008201527f7574206f6620626f756e64730000000000000000000000000000000000000000602082015250565b7f416c7265616479206f776e206120776f72642e00000000000000000000000000600082015250565b7f5265656e7472616e637947756172643a207265656e7472616e742063616c6c00600082015250565b6145ff81613c82565b811461460a57600080fd5b50565b61461681613c94565b811461462157600080fd5b50565b61462d81613ca0565b811461463857600080fd5b50565b61464481613cec565b811461464f57600080fd5b50565b61465b81613cf6565b811461466657600080fd5b5056fe3c2f746578743e3c7465787420783d2237352220793d2234302220636c6173733d2262617365223e3c2f746578743e3c7465787420783d2233352220793d2234302220636c6173733d2262617365223e4142434445464748494a4b4c4d4e4f505152535455565758595a6162636465666768696a6b6c6d6e6f707172737475767778797a303132333435363738392b2f3c73766720786d6c6e733d22687474703a2f2f7777772e77332e6f72672f323030302f73766722207072657365727665417370656374526174696f3d22784d696e594d696e206d656574222076696577426f783d2230203020313030203530223e3c7374796c653e2e62617365207b2066696c6c3a2077686974653b20666f6e742d66616d696c793a2073657269663b20666f6e742d73697a653a20313470783b207d3c2f7374796c653e3c726563742077696474683d223130302522206865696768743d2231303025222066696c6c3d22626c61636b22202f3e3c7465787420783d2232302220793d2231352220636c6173733d2262617365223e574f52442e2e2e3f3c2f746578743e3c7465787420783d2231352220793d2234302220636c6173733d2262617365223e3c2f746578743e3c7465787420783d2235352220793d2234302220636c6173733d2262617365223ea26469706673582212209c2579521d54e2be608a59979a2d9db55a0f8bc952a0f8d747ee4877b61eae3964736f6c63430008060033",
  "linkReferences": {},
  "deployedLinkReferences": {}
}