{
  "_format": "hh-sol-artifact-1",
  "contractName": "Word",
  "sourceName": "contracts/Word.sol",
  "abi": [
    {
      "inputs": [
        {
          "internalType": "string",
          "name": "_name",
          "type": "string"
        },
        {
          "internalType": "string",
          "name": "_symbol",
          "type": "string"
        }
      ],
      "stateMutability": "nonpayable",
      "type": "constructor"
    },
    {
      "anonymous": false,
      "inputs": [
        {
          "indexed": true,
          "internalType": "address",
          "name": "owner",
          "type": "address"
        },
        {
          "indexed": true,
          "internalType": "address",
          "name": "approved",
          "type": "address"
        },
        {
          "indexed": true,
          "internalType": "uint256",
          "name": "tokenId",
          "type": "uint256"
        }
      ],
      "name": "Approval",
      "type": "event"
    },
    {
      "anonymous": false,
      "inputs": [
        {
          "indexed": true,
          "internalType": "address",
          "name": "owner",
          "type": "address"
        },
        {
          "indexed": true,
          "internalType": "address",
          "name": "operator",
          "type": "address"
        },
        {
          "indexed": false,
          "internalType": "bool",
          "name": "approved",
          "type": "bool"
        }
      ],
      "name": "ApprovalForAll",
      "type": "event"
    },
    {
      "anonymous": false,
      "inputs": [
        {
          "indexed": true,
          "internalType": "address",
          "name": "previousOwner",
          "type": "address"
        },
        {
          "indexed": true,
          "internalType": "address",
          "name": "newOwner",
          "type": "address"
        }
      ],
      "name": "OwnershipTransferred",
      "type": "event"
    },
    {
      "anonymous": false,
      "inputs": [
        {
          "indexed": true,
          "internalType": "address",
          "name": "from",
          "type": "address"
        },
        {
          "indexed": true,
          "internalType": "address",
          "name": "to",
          "type": "address"
        },
        {
          "indexed": true,
          "internalType": "uint256",
          "name": "tokenId",
          "type": "uint256"
        }
      ],
      "name": "Transfer",
      "type": "event"
    },
    {
      "inputs": [
        {
          "internalType": "address",
          "name": "to",
          "type": "address"
        },
        {
          "internalType": "uint256",
          "name": "tokenId",
          "type": "uint256"
        }
      ],
      "name": "approve",
      "outputs": [],
      "stateMutability": "nonpayable",
      "type": "function"
    },
    {
      "inputs": [
        {
          "internalType": "address",
          "name": "owner",
          "type": "address"
        }
      ],
      "name": "balanceOf",
      "outputs": [
        {
          "internalType": "uint256",
          "name": "",
          "type": "uint256"
        }
      ],
      "stateMutability": "view",
      "type": "function"
    },
    {
      "inputs": [
        {
          "internalType": "uint256",
          "name": "tokenId",
          "type": "uint256"
        }
      ],
      "name": "buyWord",
      "outputs": [],
      "stateMutability": "payable",
      "type": "function"
    },
    {
      "inputs": [
        {
          "internalType": "uint256",
          "name": "tokenId",
          "type": "uint256"
        }
      ],
      "name": "freeWord",
      "outputs": [],
      "stateMutability": "nonpayable",
      "type": "function"
    },
    {
      "inputs": [
        {
          "internalType": "uint256",
          "name": "tokenId",
          "type": "uint256"
        }
      ],
      "name": "getApproved",
      "outputs": [
        {
          "internalType": "address",
          "name": "",
          "type": "address"
        }
      ],
      "stateMutability": "view",
      "type": "function"
    },
    {
      "inputs": [
        {
          "internalType": "address",
          "name": "owner",
          "type": "address"
        },
        {
          "internalType": "address",
          "name": "operator",
          "type": "address"
        }
      ],
      "name": "isApprovedForAll",
      "outputs": [
        {
          "internalType": "bool",
          "name": "",
          "type": "bool"
        }
      ],
      "stateMutability": "view",
      "type": "function"
    },
    {
      "inputs": [
        {
          "internalType": "uint32",
          "name": "moreWords",
          "type": "uint32"
        }
      ],
      "name": "moreFreeWords",
      "outputs": [],
      "stateMutability": "nonpayable",
      "type": "function"
    },
    {
      "inputs": [],
      "name": "name",
      "outputs": [
        {
          "internalType": "string",
          "name": "",
          "type": "string"
        }
      ],
      "stateMutability": "view",
      "type": "function"
    },
    {
      "inputs": [],
      "name": "owner",
      "outputs": [
        {
          "internalType": "address",
          "name": "",
          "type": "address"
        }
      ],
      "stateMutability": "view",
      "type": "function"
    },
    {
      "inputs": [
        {
          "internalType": "uint256",
          "name": "tokenId",
          "type": "uint256"
        }
      ],
      "name": "ownerOf",
      "outputs": [
        {
          "internalType": "address",
          "name": "",
          "type": "address"
        }
      ],
      "stateMutability": "view",
      "type": "function"
    },
    {
      "inputs": [],
      "name": "renounceOwnership",
      "outputs": [],
      "stateMutability": "nonpayable",
      "type": "function"
    },
    {
      "inputs": [
        {
          "internalType": "address",
          "name": "from",
          "type": "address"
        },
        {
          "internalType": "address",
          "name": "to",
          "type": "address"
        },
        {
          "internalType": "uint256",
          "name": "tokenId",
          "type": "uint256"
        }
      ],
      "name": "safeTransferFrom",
      "outputs": [],
      "stateMutability": "nonpayable",
      "type": "function"
    },
    {
      "inputs": [
        {
          "internalType": "address",
          "name": "from",
          "type": "address"
        },
        {
          "internalType": "address",
          "name": "to",
          "type": "address"
        },
        {
          "internalType": "uint256",
          "name": "tokenId",
          "type": "uint256"
        },
        {
          "internalType": "bytes",
          "name": "_data",
          "type": "bytes"
        }
      ],
      "name": "safeTransferFrom",
      "outputs": [],
      "stateMutability": "nonpayable",
      "type": "function"
    },
    {
      "inputs": [
        {
          "internalType": "address",
          "name": "operator",
          "type": "address"
        },
        {
          "internalType": "bool",
          "name": "approved",
          "type": "bool"
        }
      ],
      "name": "setApprovalForAll",
      "outputs": [],
      "stateMutability": "nonpayable",
      "type": "function"
    },
    {
      "inputs": [
        {
          "internalType": "bytes4",
          "name": "interfaceId",
          "type": "bytes4"
        }
      ],
      "name": "supportsInterface",
      "outputs": [
        {
          "internalType": "bool",
          "name": "",
          "type": "bool"
        }
      ],
      "stateMutability": "view",
      "type": "function"
    },
    {
      "inputs": [],
      "name": "symbol",
      "outputs": [
        {
          "internalType": "string",
          "name": "",
          "type": "string"
        }
      ],
      "stateMutability": "view",
      "type": "function"
    },
    {
      "inputs": [
        {
          "internalType": "uint256",
          "name": "index",
          "type": "uint256"
        }
      ],
      "name": "tokenByIndex",
      "outputs": [
        {
          "internalType": "uint256",
          "name": "",
          "type": "uint256"
        }
      ],
      "stateMutability": "view",
      "type": "function"
    },
    {
      "inputs": [
        {
          "internalType": "address",
          "name": "owner",
          "type": "address"
        },
        {
          "internalType": "uint256",
          "name": "index",
          "type": "uint256"
        }
      ],
      "name": "tokenOfOwnerByIndex",
      "outputs": [
        {
          "internalType": "uint256",
          "name": "",
          "type": "uint256"
        }
      ],
      "stateMutability": "view",
      "type": "function"
    },
    {
      "inputs": [
        {
          "internalType": "uint256",
          "name": "tokenId",
          "type": "uint256"
        }
      ],
      "name": "tokenURI",
      "outputs": [
        {
          "internalType": "string",
          "name": "",
          "type": "string"
        }
      ],
      "stateMutability": "view",
      "type": "function"
    },
    {
      "inputs": [],
      "name": "totalSupply",
      "outputs": [
        {
          "internalType": "uint256",
          "name": "",
          "type": "uint256"
        }
      ],
      "stateMutability": "view",
      "type": "function"
    },
    {
      "inputs": [
        {
          "internalType": "address",
          "name": "from",
          "type": "address"
        },
        {
          "internalType": "address",
          "name": "to",
          "type": "address"
        },
        {
          "internalType": "uint256",
          "name": "tokenId",
          "type": "uint256"
        }
      ],
      "name": "transferFrom",
      "outputs": [],
      "stateMutability": "nonpayable",
      "type": "function"
    },
    {
      "inputs": [
        {
          "internalType": "address",
          "name": "newOwner",
          "type": "address"
        }
      ],
      "name": "transferOwnership",
      "outputs": [],
      "stateMutability": "nonpayable",
      "type": "function"
    }
  ],
  "bytecode": "0x60806040523480156200001157600080fd5b506040516200541e3803806200541e833981810160405281019062000037919062000d30565b818181600090805190602001906200005192919062000bb9565b5080600190805190602001906200006a92919062000bb9565b5050506001600a8190555062000095620000896200010360201b60201c565b6200010b60201b60201c565b6000600b60186101000a81548163ffffffff021916908363ffffffff1602179055506001600b60146101000a81548163ffffffff021916908363ffffffff160217905550620000fb620000ed6200010360201b60201c565b6000620001d160201b60201c565b5050620013da565b600033905090565b6000600b60009054906101000a900473ffffffffffffffffffffffffffffffffffffffff16905081600b60006101000a81548173ffffffffffffffffffffffffffffffffffffffff021916908373ffffffffffffffffffffffffffffffffffffffff1602179055508173ffffffffffffffffffffffffffffffffffffffff168173ffffffffffffffffffffffffffffffffffffffff167f8be0079c531659141344cd1fd0a4f28419497f9722a3daafe3b4186f6b6457e060405160405180910390a35050565b620001f3828260405180602001604052806000815250620001f760201b60201c565b5050565b6200020983836200026560201b60201c565b6200021e60008484846200044b60201b60201c565b62000260576040517f08c379a0000000000000000000000000000000000000000000000000000000008152600401620002579062000f08565b60405180910390fd5b505050565b600073ffffffffffffffffffffffffffffffffffffffff168273ffffffffffffffffffffffffffffffffffffffff161415620002d8576040517f08c379a0000000000000000000000000000000000000000000000000000000008152600401620002cf9062000f6e565b60405180910390fd5b620002e9816200060560201b60201c565b156200032c576040517f08c379a0000000000000000000000000000000000000000000000000000000008152600401620003239062000f2a565b60405180910390fd5b62000340600083836200067160201b60201c565b6001600360008473ffffffffffffffffffffffffffffffffffffffff1673ffffffffffffffffffffffffffffffffffffffff16815260200190815260200160002060008282546200039291906200101c565b92505081905550816002600083815260200190815260200160002060006101000a81548173ffffffffffffffffffffffffffffffffffffffff021916908373ffffffffffffffffffffffffffffffffffffffff160217905550808273ffffffffffffffffffffffffffffffffffffffff16600073ffffffffffffffffffffffffffffffffffffffff167fddf252ad1be2c89b69c2b068fc378daa952ba7f163c4a11628f55a4df523b3ef60405160405180910390a45050565b6000620004798473ffffffffffffffffffffffffffffffffffffffff16620007b860201b620015f41760201c565b15620005f8578373ffffffffffffffffffffffffffffffffffffffff1663150b7a02620004ab6200010360201b60201c565b8786866040518563ffffffff1660e01b8152600401620004cf949392919062000eb4565b602060405180830381600087803b158015620004ea57600080fd5b505af19250505080156200051e57506040513d601f19601f820116820180604052508101906200051b919062000cfe565b60015b620005a7573d806000811462000551576040519150601f19603f3d011682016040523d82523d6000602084013e62000556565b606091505b506000815114156200059f576040517f08c379a0000000000000000000000000000000000000000000000000000000008152600401620005969062000f08565b60405180910390fd5b805181602001fd5b63150b7a0260e01b7bffffffffffffffffffffffffffffffffffffffffffffffffffffffff1916817bffffffffffffffffffffffffffffffffffffffffffffffffffffffff191614915050620005fd565b600190505b949350505050565b60008073ffffffffffffffffffffffffffffffffffffffff166002600084815260200190815260200160002060009054906101000a900473ffffffffffffffffffffffffffffffffffffffff1673ffffffffffffffffffffffffffffffffffffffff1614159050919050565b62000689838383620007cb60201b620016071760201c565b600073ffffffffffffffffffffffffffffffffffffffff168373ffffffffffffffffffffffffffffffffffffffff161415620006d657620006d081620007d060201b60201c565b6200071e565b8173ffffffffffffffffffffffffffffffffffffffff168373ffffffffffffffffffffffffffffffffffffffff16146200071d576200071c83826200081960201b60201c565b5b5b600073ffffffffffffffffffffffffffffffffffffffff168273ffffffffffffffffffffffffffffffffffffffff1614156200076b5762000765816200099660201b60201c565b620007b3565b8273ffffffffffffffffffffffffffffffffffffffff168273ffffffffffffffffffffffffffffffffffffffff1614620007b257620007b1828262000a7260201b60201c565b5b5b505050565b600080823b905060008111915050919050565b505050565b6008805490506009600083815260200190815260200160002081905550600881908060018154018082558091505060019003906000526020600020016000909190919091505550565b60006001620008338462000afe60201b62000b4c1760201c565b6200083f919062001079565b905060006007600084815260200190815260200160002054905081811462000925576000600660008673ffffffffffffffffffffffffffffffffffffffff1673ffffffffffffffffffffffffffffffffffffffff168152602001908152602001600020600084815260200190815260200160002054905080600660008773ffffffffffffffffffffffffffffffffffffffff1673ffffffffffffffffffffffffffffffffffffffff168152602001908152602001600020600084815260200190815260200160002081905550816007600083815260200190815260200160002081905550505b6007600084815260200190815260200160002060009055600660008573ffffffffffffffffffffffffffffffffffffffff1673ffffffffffffffffffffffffffffffffffffffff16815260200190815260200160002060008381526020019081526020016000206000905550505050565b60006001600880549050620009ac919062001079565b9050600060096000848152602001908152602001600020549050600060088381548110620009df57620009de6200124d565b5b90600052602060002001549050806008838154811062000a045762000a036200124d565b5b90600052602060002001819055508160096000838152602001908152602001600020819055506009600085815260200190815260200160002060009055600880548062000a565762000a556200121e565b5b6001900381819060005260206000200160009055905550505050565b600062000a8a8362000afe60201b62000b4c1760201c565b905081600660008573ffffffffffffffffffffffffffffffffffffffff1673ffffffffffffffffffffffffffffffffffffffff168152602001908152602001600020600083815260200190815260200160002081905550806007600084815260200190815260200160002081905550505050565b60008073ffffffffffffffffffffffffffffffffffffffff168273ffffffffffffffffffffffffffffffffffffffff16141562000b72576040517f08c379a000000000000000000000000000000000000000000000000000000000815260040162000b699062000f4c565b60405180910390fd5b600360008373ffffffffffffffffffffffffffffffffffffffff1673ffffffffffffffffffffffffffffffffffffffff168152602001908152602001600020549050919050565b82805462000bc79062001154565b90600052602060002090601f01602090048101928262000beb576000855562000c37565b82601f1062000c0657805160ff191683800117855562000c37565b8280016001018555821562000c37579182015b8281111562000c3657825182559160200191906001019062000c19565b5b50905062000c46919062000c4a565b5090565b5b8082111562000c6557600081600090555060010162000c4b565b5090565b600062000c8062000c7a8462000fb9565b62000f90565b90508281526020810184848401111562000c9f5762000c9e620012b0565b5b62000cac8482856200111e565b509392505050565b60008151905062000cc581620013c0565b92915050565b600082601f83011262000ce35762000ce2620012ab565b5b815162000cf584826020860162000c69565b91505092915050565b60006020828403121562000d175762000d16620012ba565b5b600062000d278482850162000cb4565b91505092915050565b6000806040838503121562000d4a5762000d49620012ba565b5b600083015167ffffffffffffffff81111562000d6b5762000d6a620012b5565b5b62000d798582860162000ccb565b925050602083015167ffffffffffffffff81111562000d9d5762000d9c620012b5565b5b62000dab8582860162000ccb565b9150509250929050565b62000dc081620010b4565b82525050565b600062000dd38262000fef565b62000ddf818562000ffa565b935062000df18185602086016200111e565b62000dfc81620012bf565b840191505092915050565b600062000e166032836200100b565b915062000e2382620012d0565b604082019050919050565b600062000e3d601c836200100b565b915062000e4a826200131f565b602082019050919050565b600062000e64602a836200100b565b915062000e718262001348565b604082019050919050565b600062000e8b6020836200100b565b915062000e988262001397565b602082019050919050565b62000eae8162001114565b82525050565b600060808201905062000ecb600083018762000db5565b62000eda602083018662000db5565b62000ee9604083018562000ea3565b818103606083015262000efd818462000dc6565b905095945050505050565b6000602082019050818103600083015262000f238162000e07565b9050919050565b6000602082019050818103600083015262000f458162000e2e565b9050919050565b6000602082019050818103600083015262000f678162000e55565b9050919050565b6000602082019050818103600083015262000f898162000e7c565b9050919050565b600062000f9c62000faf565b905062000faa82826200118a565b919050565b6000604051905090565b600067ffffffffffffffff82111562000fd75762000fd66200127c565b5b62000fe282620012bf565b9050602081019050919050565b600081519050919050565b600082825260208201905092915050565b600082825260208201905092915050565b6000620010298262001114565b9150620010368362001114565b9250827fffffffffffffffffffffffffffffffffffffffffffffffffffffffffffffffff038211156200106e576200106d620011c0565b5b828201905092915050565b6000620010868262001114565b9150620010938362001114565b925082821015620010a957620010a8620011c0565b5b828203905092915050565b6000620010c182620010f4565b9050919050565b60007fffffffff0000000000000000000000000000000000000000000000000000000082169050919050565b600073ffffffffffffffffffffffffffffffffffffffff82169050919050565b6000819050919050565b60005b838110156200113e57808201518184015260208101905062001121565b838111156200114e576000848401525b50505050565b600060028204905060018216806200116d57607f821691505b60208210811415620011845762001183620011ef565b5b50919050565b6200119582620012bf565b810181811067ffffffffffffffff82111715620011b757620011b66200127c565b5b80604052505050565b7f4e487b7100000000000000000000000000000000000000000000000000000000600052601160045260246000fd5b7f4e487b7100000000000000000000000000000000000000000000000000000000600052602260045260246000fd5b7f4e487b7100000000000000000000000000000000000000000000000000000000600052603160045260246000fd5b7f4e487b7100000000000000000000000000000000000000000000000000000000600052603260045260246000fd5b7f4e487b7100000000000000000000000000000000000000000000000000000000600052604160045260246000fd5b600080fd5b600080fd5b600080fd5b600080fd5b6000601f19601f8301169050919050565b7f4552433732313a207472616e7366657220746f206e6f6e20455243373231526560008201527f63656976657220696d706c656d656e7465720000000000000000000000000000602082015250565b7f4552433732313a20746f6b656e20616c7265616479206d696e74656400000000600082015250565b7f4552433732313a2062616c616e636520717565727920666f7220746865207a6560008201527f726f206164647265737300000000000000000000000000000000000000000000602082015250565b7f4552433732313a206d696e7420746f20746865207a65726f2061646472657373600082015250565b620013cb81620010c8565b8114620013d757600080fd5b50565b61403480620013ea6000396000f3fe6080604052600436106101355760003560e01c806370a08231116100ab578063a22cb4651161006f578063a22cb4651461042b578063b88d4fde14610454578063bcfb11401461047d578063c87b56dd146104a6578063e985e9c5146104e3578063f2fde38b1461052057610135565b806370a0823114610358578063715018a6146103955780638da5cb5b146103ac57806395d89b41146103d7578063968d3ad11461040257610135565b806323b872dd116100fd57806323b872dd146102335780632f745c591461025c57806342842e0e146102995780634f6ccce7146102c25780635bab3c00146102ff5780636352211e1461031b57610135565b806301ffc9a71461013a57806306fdde0314610177578063081812fc146101a2578063095ea7b3146101df57806318160ddd14610208575b600080fd5b34801561014657600080fd5b50610161600480360381019061015c9190612aab565b610549565b60405161016e919061307e565b60405180910390f35b34801561018357600080fd5b5061018c6105c3565b6040516101999190613099565b60405180910390f35b3480156101ae57600080fd5b506101c960048036038101906101c49190612b05565b610655565b6040516101d69190613017565b60405180910390f35b3480156101eb57600080fd5b5061020660048036038101906102019190612a6b565b6106da565b005b34801561021457600080fd5b5061021d6107f2565b60405161022a91906132fb565b60405180910390f35b34801561023f57600080fd5b5061025a60048036038101906102559190612955565b6107ff565b005b34801561026857600080fd5b50610283600480360381019061027e9190612a6b565b61085f565b60405161029091906132fb565b60405180910390f35b3480156102a557600080fd5b506102c060048036038101906102bb9190612955565b610904565b005b3480156102ce57600080fd5b506102e960048036038101906102e49190612b05565b610924565b6040516102f691906132fb565b60405180910390f35b61031960048036038101906103149190612b05565b610995565b005b34801561032757600080fd5b50610342600480360381019061033d9190612b05565b610a9a565b60405161034f9190613017565b60405180910390f35b34801561036457600080fd5b5061037f600480360381019061037a91906128e8565b610b4c565b60405161038c91906132fb565b60405180910390f35b3480156103a157600080fd5b506103aa610c04565b005b3480156103b857600080fd5b506103c1610c8c565b6040516103ce9190613017565b60405180910390f35b3480156103e357600080fd5b506103ec610cb6565b6040516103f99190613099565b60405180910390f35b34801561040e57600080fd5b5061042960048036038101906104249190612b05565b610d48565b005b34801561043757600080fd5b50610452600480360381019061044d9190612a2b565b610df2565b005b34801561046057600080fd5b5061047b600480360381019061047691906129a8565b610f73565b005b34801561048957600080fd5b506104a4600480360381019061049f9190612b32565b610fd5565b005b3480156104b257600080fd5b506104cd60048036038101906104c89190612b05565b611093565b6040516104da9190613099565b60405180910390f35b3480156104ef57600080fd5b5061050a60048036038101906105059190612915565b611468565b604051610517919061307e565b60405180910390f35b34801561052c57600080fd5b50610547600480360381019061054291906128e8565b6114fc565b005b60007f780e9d63000000000000000000000000000000000000000000000000000000007bffffffffffffffffffffffffffffffffffffffffffffffffffffffff1916827bffffffffffffffffffffffffffffffffffffffffffffffffffffffff191614806105bc57506105bb8261160c565b5b9050919050565b6060600080546105d2906135c4565b80601f01602080910402602001604051908101604052809291908181526020018280546105fe906135c4565b801561064b5780601f106106205761010080835404028352916020019161064b565b820191906000526020600020905b81548152906001019060200180831161062e57829003601f168201915b5050505050905090565b6000610660826116ee565b61069f576040517f08c379a00000000000000000000000000000000000000000000000000000000081526004016106969061321b565b60405180910390fd5b6004600083815260200190815260200160002060009054906101000a900473ffffffffffffffffffffffffffffffffffffffff169050919050565b60006106e582610a9a565b90508073ffffffffffffffffffffffffffffffffffffffff168373ffffffffffffffffffffffffffffffffffffffff161415610756576040517f08c379a000000000000000000000000000000000000000000000000000000000815260040161074d9061327b565b60405180910390fd5b8073ffffffffffffffffffffffffffffffffffffffff1661077561175a565b73ffffffffffffffffffffffffffffffffffffffff1614806107a457506107a38161079e61175a565b611468565b5b6107e3576040517f08c379a00000000000000000000000000000000000000000000000000000000081526004016107da9061319b565b60405180910390fd5b6107ed8383611762565b505050565b6000600880549050905090565b61081061080a61175a565b8261181b565b61084f576040517f08c379a00000000000000000000000000000000000000000000000000000000081526004016108469061329b565b60405180910390fd5b61085a8383836118f9565b505050565b600061086a83610b4c565b82106108ab576040517f08c379a00000000000000000000000000000000000000000000000000000000081526004016108a2906130bb565b60405180910390fd5b600660008473ffffffffffffffffffffffffffffffffffffffff1673ffffffffffffffffffffffffffffffffffffffff168152602001908152602001600020600083815260200190815260200160002054905092915050565b61091f83838360405180602001604052806000815250610f73565b505050565b600061092e6107f2565b821061096f576040517f08c379a0000000000000000000000000000000000000000000000000000000008152600401610966906132bb565b60405180910390fd5b600882815481106109835761098261375d565b5b90600052602060002001549050919050565b6002600a5414156109db576040517f08c379a00000000000000000000000000000000000000000000000000000000081526004016109d2906132db565b60405180910390fd5b6002600a81905550600134116109f057600080fd5b6109f8610c8c565b73ffffffffffffffffffffffffffffffffffffffff166108fc349081150290604051600060405180830381858888f19350505050158015610a3d573d6000803e3d6000fd5b506001600b60188282829054906101000a900463ffffffff16610a609190613405565b92506101000a81548163ffffffff021916908363ffffffff160217905550610a8f610a8961175a565b82611b55565b6001600a8190555050565b6000806002600084815260200190815260200160002060009054906101000a900473ffffffffffffffffffffffffffffffffffffffff169050600073ffffffffffffffffffffffffffffffffffffffff168173ffffffffffffffffffffffffffffffffffffffff161415610b43576040517f08c379a0000000000000000000000000000000000000000000000000000000008152600401610b3a906131db565b60405180910390fd5b80915050919050565b60008073ffffffffffffffffffffffffffffffffffffffff168273ffffffffffffffffffffffffffffffffffffffff161415610bbd576040517f08c379a0000000000000000000000000000000000000000000000000000000008152600401610bb4906131bb565b60405180910390fd5b600360008373ffffffffffffffffffffffffffffffffffffffff1673ffffffffffffffffffffffffffffffffffffffff168152602001908152602001600020549050919050565b610c0c61175a565b73ffffffffffffffffffffffffffffffffffffffff16610c2a610c8c565b73ffffffffffffffffffffffffffffffffffffffff1614610c80576040517f08c379a0000000000000000000000000000000000000000000000000000000008152600401610c779061323b565b60405180910390fd5b610c8a6000611b73565b565b6000600b60009054906101000a900473ffffffffffffffffffffffffffffffffffffffff16905090565b606060018054610cc5906135c4565b80601f0160208091040260200160405190810160405280929190818152602001828054610cf1906135c4565b8015610d3e5780601f10610d1357610100808354040283529160200191610d3e565b820191906000526020600020905b815481529060010190602001808311610d2157829003601f168201915b5050505050905090565b6002600a541415610d8e576040517f08c379a0000000000000000000000000000000000000000000000000000000008152600401610d85906132db565b60405180910390fd5b6002600a819055506001600b60188282829054906101000a900463ffffffff16610db89190613405565b92506101000a81548163ffffffff021916908363ffffffff160217905550610de7610de161175a565b82611b55565b6001600a8190555050565b610dfa61175a565b73ffffffffffffffffffffffffffffffffffffffff168273ffffffffffffffffffffffffffffffffffffffff161415610e68576040517f08c379a0000000000000000000000000000000000000000000000000000000008152600401610e5f9061315b565b60405180910390fd5b8060056000610e7561175a565b73ffffffffffffffffffffffffffffffffffffffff1673ffffffffffffffffffffffffffffffffffffffff16815260200190815260200160002060008473ffffffffffffffffffffffffffffffffffffffff1673ffffffffffffffffffffffffffffffffffffffff16815260200190815260200160002060006101000a81548160ff0219169083151502179055508173ffffffffffffffffffffffffffffffffffffffff16610f2261175a565b73ffffffffffffffffffffffffffffffffffffffff167f17307eab39ab6107e8899845ad3d59bd9653f200f220920489ca2b5937696c3183604051610f67919061307e565b60405180910390a35050565b610f84610f7e61175a565b8361181b565b610fc3576040517f08c379a0000000000000000000000000000000000000000000000000000000008152600401610fba9061329b565b60405180910390fd5b610fcf84848484611c39565b50505050565b610fdd61175a565b73ffffffffffffffffffffffffffffffffffffffff16610ffb610c8c565b73ffffffffffffffffffffffffffffffffffffffff1614611051576040517f08c379a00000000000000000000000000000000000000000000000000000000081526004016110489061323b565b60405180910390fd5b80600b60148282829054906101000a900463ffffffff166110729190613405565b92506101000a81548163ffffffff021916908363ffffffff16021790555050565b606061109d6127d2565b60405180610140016040528061010b8152602001613ef461010b9139816000600981106110cd576110cc61375d565b5b60200201819052506040518060400160405280600181526020017f41000000000000000000000000000000000000000000000000000000000000008152508160016009811061111f5761111e61375d565b5b6020020181905250604051806060016040528060288152602001613e3c60289139816002600981106111545761115361375d565b5b60200201819052506040518060400160405280600181526020017f4100000000000000000000000000000000000000000000000000000000000000815250816003600981106111a6576111a561375d565b5b6020020181905250604051806060016040528060288152602001613e6460289139816004600981106111db576111da61375d565b5b60200201819052506040518060400160405280600181526020017f41000000000000000000000000000000000000000000000000000000000000008152508160056009811061122d5761122c61375d565b5b6020020181905250604051806060016040528060288152602001613ecc60289139816006600981106112625761126161375d565b5b60200201819052506040518060400160405280600181526020017f4100000000000000000000000000000000000000000000000000000000000000815250816007600981106112b4576112b361375d565b5b6020020181905250604051806060016040528060288152602001613e1460289139816008600981106112e9576112e861375d565b5b60200201819052506000816000600981106113075761130661375d565b5b6020020151826001600981106113205761131f61375d565b5b6020020151836002600981106113395761133861375d565b5b6020020151846003600981106113525761135161375d565b5b60200201518560046009811061136b5761136a61375d565b5b6020020151866005600981106113845761138361375d565b5b60200201518760066009811061139d5761139c61375d565b5b6020020151886007600981106113b6576113b561375d565b5b6020020151896008600981106113cf576113ce61375d565b5b60200201516040516020016113ec99989796959493929190612f31565b6040516020818303038152906040529050600061143961140b86611c95565b61141484611df6565b604051602001611425929190612fb0565b604051602081830303815290604052611df6565b90508060405160200161144c9190612ff5565b6040516020818303038152906040529150819350505050919050565b6000600560008473ffffffffffffffffffffffffffffffffffffffff1673ffffffffffffffffffffffffffffffffffffffff16815260200190815260200160002060008373ffffffffffffffffffffffffffffffffffffffff1673ffffffffffffffffffffffffffffffffffffffff16815260200190815260200160002060009054906101000a900460ff16905092915050565b61150461175a565b73ffffffffffffffffffffffffffffffffffffffff16611522610c8c565b73ffffffffffffffffffffffffffffffffffffffff1614611578576040517f08c379a000000000000000000000000000000000000000000000000000000000815260040161156f9061323b565b60405180910390fd5b600073ffffffffffffffffffffffffffffffffffffffff168173ffffffffffffffffffffffffffffffffffffffff1614156115e8576040517f08c379a00000000000000000000000000000000000000000000000000000000081526004016115df906130fb565b60405180910390fd5b6115f181611b73565b50565b600080823b905060008111915050919050565b505050565b60007f80ac58cd000000000000000000000000000000000000000000000000000000007bffffffffffffffffffffffffffffffffffffffffffffffffffffffff1916827bffffffffffffffffffffffffffffffffffffffffffffffffffffffff191614806116d757507f5b5e139f000000000000000000000000000000000000000000000000000000007bffffffffffffffffffffffffffffffffffffffffffffffffffffffff1916827bffffffffffffffffffffffffffffffffffffffffffffffffffffffff1916145b806116e757506116e682611f8e565b5b9050919050565b60008073ffffffffffffffffffffffffffffffffffffffff166002600084815260200190815260200160002060009054906101000a900473ffffffffffffffffffffffffffffffffffffffff1673ffffffffffffffffffffffffffffffffffffffff1614159050919050565b600033905090565b816004600083815260200190815260200160002060006101000a81548173ffffffffffffffffffffffffffffffffffffffff021916908373ffffffffffffffffffffffffffffffffffffffff160217905550808273ffffffffffffffffffffffffffffffffffffffff166117d583610a9a565b73ffffffffffffffffffffffffffffffffffffffff167f8c5be1e5ebec7d5bd14f71427d1e84f3dd0314c0f7b2291e5b200ac8c7c3b92560405160405180910390a45050565b6000611826826116ee565b611865576040517f08c379a000000000000000000000000000000000000000000000000000000000815260040161185c9061317b565b60405180910390fd5b600061187083610a9a565b90508073ffffffffffffffffffffffffffffffffffffffff168473ffffffffffffffffffffffffffffffffffffffff1614806118df57508373ffffffffffffffffffffffffffffffffffffffff166118c784610655565b73ffffffffffffffffffffffffffffffffffffffff16145b806118f057506118ef8185611468565b5b91505092915050565b8273ffffffffffffffffffffffffffffffffffffffff1661191982610a9a565b73ffffffffffffffffffffffffffffffffffffffff161461196f576040517f08c379a00000000000000000000000000000000000000000000000000000000081526004016119669061325b565b60405180910390fd5b600073ffffffffffffffffffffffffffffffffffffffff168273ffffffffffffffffffffffffffffffffffffffff1614156119df576040517f08c379a00000000000000000000000000000000000000000000000000000000081526004016119d69061313b565b60405180910390fd5b6119ea838383611ff8565b6119f5600082611762565b6001600360008573ffffffffffffffffffffffffffffffffffffffff1673ffffffffffffffffffffffffffffffffffffffff1681526020019081526020016000206000828254611a4591906134ca565b925050819055506001600360008473ffffffffffffffffffffffffffffffffffffffff1673ffffffffffffffffffffffffffffffffffffffff1681526020019081526020016000206000828254611a9c91906133af565b92505081905550816002600083815260200190815260200160002060006101000a81548173ffffffffffffffffffffffffffffffffffffffff021916908373ffffffffffffffffffffffffffffffffffffffff160217905550808273ffffffffffffffffffffffffffffffffffffffff168473ffffffffffffffffffffffffffffffffffffffff167fddf252ad1be2c89b69c2b068fc378daa952ba7f163c4a11628f55a4df523b3ef60405160405180910390a4505050565b611b6f82826040518060200160405280600081525061210c565b5050565b6000600b60009054906101000a900473ffffffffffffffffffffffffffffffffffffffff16905081600b60006101000a81548173ffffffffffffffffffffffffffffffffffffffff021916908373ffffffffffffffffffffffffffffffffffffffff1602179055508173ffffffffffffffffffffffffffffffffffffffff168173ffffffffffffffffffffffffffffffffffffffff167f8be0079c531659141344cd1fd0a4f28419497f9722a3daafe3b4186f6b6457e060405160405180910390a35050565b611c448484846118f9565b611c5084848484612167565b611c8f576040517f08c379a0000000000000000000000000000000000000000000000000000000008152600401611c86906130db565b60405180910390fd5b50505050565b60606000821415611cdd576040518060400160405280600181526020017f30000000000000000000000000000000000000000000000000000000000000008152509050611df1565b600082905060005b60008214611d0f578080611cf890613627565b915050600a82611d08919061343f565b9150611ce5565b60008167ffffffffffffffff811115611d2b57611d2a61378c565b5b6040519080825280601f01601f191660200182016040528015611d5d5781602001600182028036833780820191505090505b5090505b60008514611dea57600182611d7691906134ca565b9150600a85611d859190613670565b6030611d9191906133af565b60f81b818381518110611da757611da661375d565b5b60200101907effffffffffffffffffffffffffffffffffffffffffffffffffffffffffffff1916908160001a905350600a85611de3919061343f565b9450611d61565b8093505050505b919050565b60606000825190506000811415611e1f5760405180602001604052806000815250915050611f89565b60006003600283611e3091906133af565b611e3a919061343f565b6004611e469190613470565b90506000602082611e5791906133af565b67ffffffffffffffff811115611e7057611e6f61378c565b5b6040519080825280601f01601f191660200182016040528015611ea25781602001600182028036833780820191505090505b5090506000604051806060016040528060408152602001613e8c604091399050600181016020830160005b86811015611f465760038101905062ffffff818a015116603f8160121c168401518060081b905060ff603f83600c1c1686015116810190508060081b905060ff603f8360061c1686015116810190508060081b905060ff603f831686015116810190508060e01b90508084526004840193505050611ecd565b506003860660018114611f605760028114611f7057611f7b565b613d3d60f01b6002830352611f7b565b603d60f81b60018303525b508484525050819450505050505b919050565b60007f01ffc9a7000000000000000000000000000000000000000000000000000000007bffffffffffffffffffffffffffffffffffffffffffffffffffffffff1916827bffffffffffffffffffffffffffffffffffffffffffffffffffffffff1916149050919050565b612003838383611607565b600073ffffffffffffffffffffffffffffffffffffffff168373ffffffffffffffffffffffffffffffffffffffff16141561204657612041816122fe565b612085565b8173ffffffffffffffffffffffffffffffffffffffff168373ffffffffffffffffffffffffffffffffffffffff1614612084576120838382612347565b5b5b600073ffffffffffffffffffffffffffffffffffffffff168273ffffffffffffffffffffffffffffffffffffffff1614156120c8576120c3816124b4565b612107565b8273ffffffffffffffffffffffffffffffffffffffff168273ffffffffffffffffffffffffffffffffffffffff1614612106576121058282612585565b5b5b505050565b6121168383612604565b6121236000848484612167565b612162576040517f08c379a0000000000000000000000000000000000000000000000000000000008152600401612159906130db565b60405180910390fd5b505050565b60006121888473ffffffffffffffffffffffffffffffffffffffff166115f4565b156122f1578373ffffffffffffffffffffffffffffffffffffffff1663150b7a026121b161175a565b8786866040518563ffffffff1660e01b81526004016121d39493929190613032565b602060405180830381600087803b1580156121ed57600080fd5b505af192505050801561221e57506040513d601f19601f8201168201806040525081019061221b9190612ad8565b60015b6122a1573d806000811461224e576040519150601f19603f3d011682016040523d82523d6000602084013e612253565b606091505b50600081511415612299576040517f08c379a0000000000000000000000000000000000000000000000000000000008152600401612290906130db565b60405180910390fd5b805181602001fd5b63150b7a0260e01b7bffffffffffffffffffffffffffffffffffffffffffffffffffffffff1916817bffffffffffffffffffffffffffffffffffffffffffffffffffffffff1916149150506122f6565b600190505b949350505050565b6008805490506009600083815260200190815260200160002081905550600881908060018154018082558091505060019003906000526020600020016000909190919091505550565b6000600161235484610b4c565b61235e91906134ca565b9050600060076000848152602001908152602001600020549050818114612443576000600660008673ffffffffffffffffffffffffffffffffffffffff1673ffffffffffffffffffffffffffffffffffffffff168152602001908152602001600020600084815260200190815260200160002054905080600660008773ffffffffffffffffffffffffffffffffffffffff1673ffffffffffffffffffffffffffffffffffffffff168152602001908152602001600020600084815260200190815260200160002081905550816007600083815260200190815260200160002081905550505b6007600084815260200190815260200160002060009055600660008573ffffffffffffffffffffffffffffffffffffffff1673ffffffffffffffffffffffffffffffffffffffff16815260200190815260200160002060008381526020019081526020016000206000905550505050565b600060016008805490506124c891906134ca565b90506000600960008481526020019081526020016000205490506000600883815481106124f8576124f761375d565b5b90600052602060002001549050806008838154811061251a5761251961375d565b5b9060005260206000200181905550816009600083815260200190815260200160002081905550600960008581526020019081526020016000206000905560088054806125695761256861372e565b5b6001900381819060005260206000200160009055905550505050565b600061259083610b4c565b905081600660008573ffffffffffffffffffffffffffffffffffffffff1673ffffffffffffffffffffffffffffffffffffffff168152602001908152602001600020600083815260200190815260200160002081905550806007600084815260200190815260200160002081905550505050565b600073ffffffffffffffffffffffffffffffffffffffff168273ffffffffffffffffffffffffffffffffffffffff161415612674576040517f08c379a000000000000000000000000000000000000000000000000000000000815260040161266b906131fb565b60405180910390fd5b61267d816116ee565b156126bd576040517f08c379a00000000000000000000000000000000000000000000000000000000081526004016126b49061311b565b60405180910390fd5b6126c960008383611ff8565b6001600360008473ffffffffffffffffffffffffffffffffffffffff1673ffffffffffffffffffffffffffffffffffffffff168152602001908152602001600020600082825461271991906133af565b92505081905550816002600083815260200190815260200160002060006101000a81548173ffffffffffffffffffffffffffffffffffffffff021916908373ffffffffffffffffffffffffffffffffffffffff160217905550808273ffffffffffffffffffffffffffffffffffffffff16600073ffffffffffffffffffffffffffffffffffffffff167fddf252ad1be2c89b69c2b068fc378daa952ba7f163c4a11628f55a4df523b3ef60405160405180910390a45050565b6040518061012001604052806009905b60608152602001906001900390816127e25790505090565b600061280d6128088461333b565b613316565b905082815260208101848484011115612829576128286137c0565b5b612834848285613582565b509392505050565b60008135905061284b81613da0565b92915050565b60008135905061286081613db7565b92915050565b60008135905061287581613dce565b92915050565b60008151905061288a81613dce565b92915050565b600082601f8301126128a5576128a46137bb565b5b81356128b58482602086016127fa565b91505092915050565b6000813590506128cd81613de5565b92915050565b6000813590506128e281613dfc565b92915050565b6000602082840312156128fe576128fd6137ca565b5b600061290c8482850161283c565b91505092915050565b6000806040838503121561292c5761292b6137ca565b5b600061293a8582860161283c565b925050602061294b8582860161283c565b9150509250929050565b60008060006060848603121561296e5761296d6137ca565b5b600061297c8682870161283c565b935050602061298d8682870161283c565b925050604061299e868287016128be565b9150509250925092565b600080600080608085870312156129c2576129c16137ca565b5b60006129d08782880161283c565b94505060206129e18782880161283c565b93505060406129f2878288016128be565b925050606085013567ffffffffffffffff811115612a1357612a126137c5565b5b612a1f87828801612890565b91505092959194509250565b60008060408385031215612a4257612a416137ca565b5b6000612a508582860161283c565b9250506020612a6185828601612851565b9150509250929050565b60008060408385031215612a8257612a816137ca565b5b6000612a908582860161283c565b9250506020612aa1858286016128be565b9150509250929050565b600060208284031215612ac157612ac06137ca565b5b6000612acf84828501612866565b91505092915050565b600060208284031215612aee57612aed6137ca565b5b6000612afc8482850161287b565b91505092915050565b600060208284031215612b1b57612b1a6137ca565b5b6000612b29848285016128be565b91505092915050565b600060208284031215612b4857612b476137ca565b5b6000612b56848285016128d3565b91505092915050565b612b68816134fe565b82525050565b612b7781613510565b82525050565b6000612b888261336c565b612b928185613382565b9350612ba2818560208601613591565b612bab816137cf565b840191505092915050565b6000612bc182613377565b612bcb8185613393565b9350612bdb818560208601613591565b612be4816137cf565b840191505092915050565b6000612bfa82613377565b612c0481856133a4565b9350612c14818560208601613591565b80840191505092915050565b6000612c2d602b83613393565b9150612c38826137e0565b604082019050919050565b6000612c50603283613393565b9150612c5b8261382f565b604082019050919050565b6000612c73602683613393565b9150612c7e8261387e565b604082019050919050565b6000612c96601c83613393565b9150612ca1826138cd565b602082019050919050565b6000612cb9604e836133a4565b9150612cc4826138f6565b604e82019050919050565b6000612cdc602483613393565b9150612ce78261396b565b604082019050919050565b6000612cff601983613393565b9150612d0a826139ba565b602082019050919050565b6000612d22602c83613393565b9150612d2d826139e3565b604082019050919050565b6000612d45603883613393565b9150612d5082613a32565b604082019050919050565b6000612d68602a83613393565b9150612d7382613a81565b604082019050919050565b6000612d8b602983613393565b9150612d9682613ad0565b604082019050919050565b6000612dae6002836133a4565b9150612db982613b1f565b600282019050919050565b6000612dd1602083613393565b9150612ddc82613b48565b602082019050919050565b6000612df4602c83613393565b9150612dff82613b71565b604082019050919050565b6000612e17602083613393565b9150612e2282613bc0565b602082019050919050565b6000612e3a602983613393565b9150612e4582613be9565b604082019050919050565b6000612e5d6013836133a4565b9150612e6882613c38565b601382019050919050565b6000612e80602183613393565b9150612e8b82613c61565b604082019050919050565b6000612ea3601d836133a4565b9150612eae82613cb0565b601d82019050919050565b6000612ec6603183613393565b9150612ed182613cd9565b604082019050919050565b6000612ee9602c83613393565b9150612ef482613d28565b604082019050919050565b6000612f0c601f83613393565b9150612f1782613d77565b602082019050919050565b612f2b81613568565b82525050565b6000612f3d828c612bef565b9150612f49828b612bef565b9150612f55828a612bef565b9150612f618289612bef565b9150612f6d8288612bef565b9150612f798287612bef565b9150612f858286612bef565b9150612f918285612bef565b9150612f9d8284612bef565b91508190509a9950505050505050505050565b6000612fbb82612e50565b9150612fc78285612bef565b9150612fd282612cac565b9150612fde8284612bef565b9150612fe982612da1565b91508190509392505050565b600061300082612e96565b915061300c8284612bef565b915081905092915050565b600060208201905061302c6000830184612b5f565b92915050565b60006080820190506130476000830187612b5f565b6130546020830186612b5f565b6130616040830185612f22565b81810360608301526130738184612b7d565b905095945050505050565b60006020820190506130936000830184612b6e565b92915050565b600060208201905081810360008301526130b38184612bb6565b905092915050565b600060208201905081810360008301526130d481612c20565b9050919050565b600060208201905081810360008301526130f481612c43565b9050919050565b6000602082019050818103600083015261311481612c66565b9050919050565b6000602082019050818103600083015261313481612c89565b9050919050565b6000602082019050818103600083015261315481612ccf565b9050919050565b6000602082019050818103600083015261317481612cf2565b9050919050565b6000602082019050818103600083015261319481612d15565b9050919050565b600060208201905081810360008301526131b481612d38565b9050919050565b600060208201905081810360008301526131d481612d5b565b9050919050565b600060208201905081810360008301526131f481612d7e565b9050919050565b6000602082019050818103600083015261321481612dc4565b9050919050565b6000602082019050818103600083015261323481612de7565b9050919050565b6000602082019050818103600083015261325481612e0a565b9050919050565b6000602082019050818103600083015261327481612e2d565b9050919050565b6000602082019050818103600083015261329481612e73565b9050919050565b600060208201905081810360008301526132b481612eb9565b9050919050565b600060208201905081810360008301526132d481612edc565b9050919050565b600060208201905081810360008301526132f481612eff565b9050919050565b60006020820190506133106000830184612f22565b92915050565b6000613320613331565b905061332c82826135f6565b919050565b6000604051905090565b600067ffffffffffffffff8211156133565761335561378c565b5b61335f826137cf565b9050602081019050919050565b600081519050919050565b600081519050919050565b600082825260208201905092915050565b600082825260208201905092915050565b600081905092915050565b60006133ba82613568565b91506133c583613568565b9250827fffffffffffffffffffffffffffffffffffffffffffffffffffffffffffffffff038211156133fa576133f96136a1565b5b828201905092915050565b600061341082613572565b915061341b83613572565b92508263ffffffff03821115613434576134336136a1565b5b828201905092915050565b600061344a82613568565b915061345583613568565b925082613465576134646136d0565b5b828204905092915050565b600061347b82613568565b915061348683613568565b9250817fffffffffffffffffffffffffffffffffffffffffffffffffffffffffffffffff04831182151516156134bf576134be6136a1565b5b828202905092915050565b60006134d582613568565b91506134e083613568565b9250828210156134f3576134f26136a1565b5b828203905092915050565b600061350982613548565b9050919050565b60008115159050919050565b60007fffffffff0000000000000000000000000000000000000000000000000000000082169050919050565b600073ffffffffffffffffffffffffffffffffffffffff82169050919050565b6000819050919050565b600063ffffffff82169050919050565b82818337600083830152505050565b60005b838110156135af578082015181840152602081019050613594565b838111156135be576000848401525b50505050565b600060028204905060018216806135dc57607f821691505b602082108114156135f0576135ef6136ff565b5b50919050565b6135ff826137cf565b810181811067ffffffffffffffff8211171561361e5761361d61378c565b5b80604052505050565b600061363282613568565b91507fffffffffffffffffffffffffffffffffffffffffffffffffffffffffffffffff821415613665576136646136a1565b5b600182019050919050565b600061367b82613568565b915061368683613568565b925082613696576136956136d0565b5b828206905092915050565b7f4e487b7100000000000000000000000000000000000000000000000000000000600052601160045260246000fd5b7f4e487b7100000000000000000000000000000000000000000000000000000000600052601260045260246000fd5b7f4e487b7100000000000000000000000000000000000000000000000000000000600052602260045260246000fd5b7f4e487b7100000000000000000000000000000000000000000000000000000000600052603160045260246000fd5b7f4e487b7100000000000000000000000000000000000000000000000000000000600052603260045260246000fd5b7f4e487b7100000000000000000000000000000000000000000000000000000000600052604160045260246000fd5b600080fd5b600080fd5b600080fd5b600080fd5b6000601f19601f8301169050919050565b7f455243373231456e756d657261626c653a206f776e657220696e646578206f7560008201527f74206f6620626f756e6473000000000000000000000000000000000000000000602082015250565b7f4552433732313a207472616e7366657220746f206e6f6e20455243373231526560008201527f63656976657220696d706c656d656e7465720000000000000000000000000000602082015250565b7f4f776e61626c653a206e6577206f776e657220697320746865207a65726f206160008201527f6464726573730000000000000000000000000000000000000000000000000000602082015250565b7f4552433732313a20746f6b656e20616c7265616479206d696e74656400000000600082015250565b7f222c20226465736372697074696f6e223a202274686973206973206120776f7260008201527f64206d61796265222c2022696d616765223a2022646174613a696d6167652f7360208201527f76672b786d6c3b6261736536342c000000000000000000000000000000000000604082015250565b7f4552433732313a207472616e7366657220746f20746865207a65726f2061646460008201527f7265737300000000000000000000000000000000000000000000000000000000602082015250565b7f4552433732313a20617070726f766520746f2063616c6c657200000000000000600082015250565b7f4552433732313a206f70657261746f7220717565727920666f72206e6f6e657860008201527f697374656e7420746f6b656e0000000000000000000000000000000000000000602082015250565b7f4552433732313a20617070726f76652063616c6c6572206973206e6f74206f7760008201527f6e6572206e6f7220617070726f76656420666f7220616c6c0000000000000000602082015250565b7f4552433732313a2062616c616e636520717565727920666f7220746865207a6560008201527f726f206164647265737300000000000000000000000000000000000000000000602082015250565b7f4552433732313a206f776e657220717565727920666f72206e6f6e657869737460008201527f656e7420746f6b656e0000000000000000000000000000000000000000000000602082015250565b7f227d000000000000000000000000000000000000000000000000000000000000600082015250565b7f4552433732313a206d696e7420746f20746865207a65726f2061646472657373600082015250565b7f4552433732313a20617070726f76656420717565727920666f72206e6f6e657860008201527f697374656e7420746f6b656e0000000000000000000000000000000000000000602082015250565b7f4f776e61626c653a2063616c6c6572206973206e6f7420746865206f776e6572600082015250565b7f4552433732313a207472616e73666572206f6620746f6b656e2074686174206960008201527f73206e6f74206f776e0000000000000000000000000000000000000000000000602082015250565b7f7b226e616d65223a2022576f72642e2e2e3f2000000000000000000000000000600082015250565b7f4552433732313a20617070726f76616c20746f2063757272656e74206f776e6560008201527f7200000000000000000000000000000000000000000000000000000000000000602082015250565b7f646174613a6170706c69636174696f6e2f6a736f6e3b6261736536342c000000600082015250565b7f4552433732313a207472616e736665722063616c6c6572206973206e6f74206f60008201527f776e6572206e6f7220617070726f766564000000000000000000000000000000602082015250565b7f455243373231456e756d657261626c653a20676c6f62616c20696e646578206f60008201527f7574206f6620626f756e64730000000000000000000000000000000000000000602082015250565b7f5265656e7472616e637947756172643a207265656e7472616e742063616c6c00600082015250565b613da9816134fe565b8114613db457600080fd5b50565b613dc081613510565b8114613dcb57600080fd5b50565b613dd78161351c565b8114613de257600080fd5b50565b613dee81613568565b8114613df957600080fd5b50565b613e0581613572565b8114613e1057600080fd5b5056fe3c2f746578743e3c7465787420783d2237352220793d2234302220636c6173733d2262617365223e3c2f746578743e3c7465787420783d2231352220793d2234302220636c6173733d2262617365223e3c2f746578743e3c7465787420783d2233352220793d2234302220636c6173733d2262617365223e4142434445464748494a4b4c4d4e4f505152535455565758595a6162636465666768696a6b6c6d6e6f707172737475767778797a303132333435363738392b2f3c2f746578743e3c7465787420783d2235352220793d2234302220636c6173733d2262617365223e3c73766720786d6c6e733d22687474703a2f2f7777772e77332e6f72672f323030302f73766722207072657365727665417370656374526174696f3d22784d696e594d696e206d656574222076696577426f783d2230203020313030203530223e3c7374796c653e2e62617365207b2066696c6c3a2077686974653b20666f6e742d66616d696c793a2073657269663b20666f6e742d73697a653a20313470783b207d3c2f7374796c653e3c726563742077696474683d223130302522206865696768743d2231303025222066696c6c3d22626c61636b22202f3e3c7465787420783d2232302220793d2231352220636c6173733d2262617365223e574f52442e2e2e3f3c2f746578743ea2646970667358221220903e5c8692e91932283946aadec4fabd959bff5af52f090782912e970495361564736f6c63430008060033",
  "linkReferences": {},
  "deployedLinkReferences": {}
}