{
  "_format": "hh-sol-artifact-1",
  "contractName": "Word",
  "sourceName": "contracts/Word.sol",
  "abi": [
    {
      "inputs": [
        {
          "internalType": "string",
          "name": "_name",
          "type": "string"
        },
        {
          "internalType": "string",
          "name": "_symbol",
          "type": "string"
        }
      ],
      "stateMutability": "nonpayable",
      "type": "constructor"
    },
    {
      "anonymous": false,
      "inputs": [
        {
          "indexed": true,
          "internalType": "address",
          "name": "owner",
          "type": "address"
        },
        {
          "indexed": true,
          "internalType": "address",
          "name": "approved",
          "type": "address"
        },
        {
          "indexed": true,
          "internalType": "uint256",
          "name": "tokenId",
          "type": "uint256"
        }
      ],
      "name": "Approval",
      "type": "event"
    },
    {
      "anonymous": false,
      "inputs": [
        {
          "indexed": true,
          "internalType": "address",
          "name": "owner",
          "type": "address"
        },
        {
          "indexed": true,
          "internalType": "address",
          "name": "operator",
          "type": "address"
        },
        {
          "indexed": false,
          "internalType": "bool",
          "name": "approved",
          "type": "bool"
        }
      ],
      "name": "ApprovalForAll",
      "type": "event"
    },
    {
      "anonymous": false,
      "inputs": [
        {
          "indexed": true,
          "internalType": "address",
          "name": "previousOwner",
          "type": "address"
        },
        {
          "indexed": true,
          "internalType": "address",
          "name": "newOwner",
          "type": "address"
        }
      ],
      "name": "OwnershipTransferred",
      "type": "event"
    },
    {
      "anonymous": false,
      "inputs": [
        {
          "indexed": true,
          "internalType": "address",
          "name": "from",
          "type": "address"
        },
        {
          "indexed": true,
          "internalType": "address",
          "name": "to",
          "type": "address"
        },
        {
          "indexed": true,
          "internalType": "uint256",
          "name": "tokenId",
          "type": "uint256"
        }
      ],
      "name": "Transfer",
      "type": "event"
    },
    {
      "inputs": [
        {
          "internalType": "address",
          "name": "to",
          "type": "address"
        },
        {
          "internalType": "uint256",
          "name": "tokenId",
          "type": "uint256"
        }
      ],
      "name": "approve",
      "outputs": [],
      "stateMutability": "nonpayable",
      "type": "function"
    },
    {
      "inputs": [
        {
          "internalType": "address",
          "name": "owner",
          "type": "address"
        }
      ],
      "name": "balanceOf",
      "outputs": [
        {
          "internalType": "uint256",
          "name": "",
          "type": "uint256"
        }
      ],
      "stateMutability": "view",
      "type": "function"
    },
    {
      "inputs": [],
      "name": "buyWord",
      "outputs": [],
      "stateMutability": "payable",
      "type": "function"
    },
    {
      "inputs": [],
      "name": "freeWord",
      "outputs": [],
      "stateMutability": "nonpayable",
      "type": "function"
    },
    {
      "inputs": [],
      "name": "freeWordsLeft",
      "outputs": [
        {
          "internalType": "uint32",
          "name": "",
          "type": "uint32"
        }
      ],
      "stateMutability": "view",
      "type": "function"
    },
    {
      "inputs": [
        {
          "internalType": "uint256",
          "name": "tokenId",
          "type": "uint256"
        }
      ],
      "name": "getApproved",
      "outputs": [
        {
          "internalType": "address",
          "name": "",
          "type": "address"
        }
      ],
      "stateMutability": "view",
      "type": "function"
    },
    {
      "inputs": [
        {
          "internalType": "address",
          "name": "owner",
          "type": "address"
        },
        {
          "internalType": "address",
          "name": "operator",
          "type": "address"
        }
      ],
      "name": "isApprovedForAll",
      "outputs": [
        {
          "internalType": "bool",
          "name": "",
          "type": "bool"
        }
      ],
      "stateMutability": "view",
      "type": "function"
    },
    {
      "inputs": [
        {
          "internalType": "uint256",
          "name": "tokenId",
          "type": "uint256"
        }
      ],
      "name": "letterFour",
      "outputs": [
        {
          "internalType": "string",
          "name": "",
          "type": "string"
        }
      ],
      "stateMutability": "view",
      "type": "function"
    },
    {
      "inputs": [
        {
          "internalType": "uint256",
          "name": "tokenId",
          "type": "uint256"
        }
      ],
      "name": "letterOne",
      "outputs": [
        {
          "internalType": "string",
          "name": "",
          "type": "string"
        }
      ],
      "stateMutability": "view",
      "type": "function"
    },
    {
      "inputs": [
        {
          "internalType": "uint256",
          "name": "tokenId",
          "type": "uint256"
        }
      ],
      "name": "letterThree",
      "outputs": [
        {
          "internalType": "string",
          "name": "",
          "type": "string"
        }
      ],
      "stateMutability": "view",
      "type": "function"
    },
    {
      "inputs": [
        {
          "internalType": "uint256",
          "name": "tokenId",
          "type": "uint256"
        }
      ],
      "name": "letterTwo",
      "outputs": [
        {
          "internalType": "string",
          "name": "",
          "type": "string"
        }
      ],
      "stateMutability": "view",
      "type": "function"
    },
    {
      "inputs": [
        {
          "internalType": "uint32",
          "name": "moreWords",
          "type": "uint32"
        }
      ],
      "name": "moreFreeWords",
      "outputs": [],
      "stateMutability": "nonpayable",
      "type": "function"
    },
    {
      "inputs": [],
      "name": "name",
      "outputs": [
        {
          "internalType": "string",
          "name": "",
          "type": "string"
        }
      ],
      "stateMutability": "view",
      "type": "function"
    },
    {
      "inputs": [],
      "name": "owner",
      "outputs": [
        {
          "internalType": "address",
          "name": "",
          "type": "address"
        }
      ],
      "stateMutability": "view",
      "type": "function"
    },
    {
      "inputs": [
        {
          "internalType": "uint256",
          "name": "tokenId",
          "type": "uint256"
        }
      ],
      "name": "ownerOf",
      "outputs": [
        {
          "internalType": "address",
          "name": "",
          "type": "address"
        }
      ],
      "stateMutability": "view",
      "type": "function"
    },
    {
      "inputs": [],
      "name": "renounceOwnership",
      "outputs": [],
      "stateMutability": "nonpayable",
      "type": "function"
    },
    {
      "inputs": [
        {
          "internalType": "address",
          "name": "from",
          "type": "address"
        },
        {
          "internalType": "address",
          "name": "to",
          "type": "address"
        },
        {
          "internalType": "uint256",
          "name": "tokenId",
          "type": "uint256"
        }
      ],
      "name": "safeTransferFrom",
      "outputs": [],
      "stateMutability": "nonpayable",
      "type": "function"
    },
    {
      "inputs": [
        {
          "internalType": "address",
          "name": "from",
          "type": "address"
        },
        {
          "internalType": "address",
          "name": "to",
          "type": "address"
        },
        {
          "internalType": "uint256",
          "name": "tokenId",
          "type": "uint256"
        },
        {
          "internalType": "bytes",
          "name": "_data",
          "type": "bytes"
        }
      ],
      "name": "safeTransferFrom",
      "outputs": [],
      "stateMutability": "nonpayable",
      "type": "function"
    },
    {
      "inputs": [
        {
          "internalType": "address",
          "name": "operator",
          "type": "address"
        },
        {
          "internalType": "bool",
          "name": "approved",
          "type": "bool"
        }
      ],
      "name": "setApprovalForAll",
      "outputs": [],
      "stateMutability": "nonpayable",
      "type": "function"
    },
    {
      "inputs": [
        {
          "internalType": "bytes4",
          "name": "interfaceId",
          "type": "bytes4"
        }
      ],
      "name": "supportsInterface",
      "outputs": [
        {
          "internalType": "bool",
          "name": "",
          "type": "bool"
        }
      ],
      "stateMutability": "view",
      "type": "function"
    },
    {
      "inputs": [],
      "name": "symbol",
      "outputs": [
        {
          "internalType": "string",
          "name": "",
          "type": "string"
        }
      ],
      "stateMutability": "view",
      "type": "function"
    },
    {
      "inputs": [
        {
          "internalType": "uint256",
          "name": "index",
          "type": "uint256"
        }
      ],
      "name": "tokenByIndex",
      "outputs": [
        {
          "internalType": "uint256",
          "name": "",
          "type": "uint256"
        }
      ],
      "stateMutability": "view",
      "type": "function"
    },
    {
      "inputs": [
        {
          "internalType": "address",
          "name": "owner",
          "type": "address"
        },
        {
          "internalType": "uint256",
          "name": "index",
          "type": "uint256"
        }
      ],
      "name": "tokenOfOwnerByIndex",
      "outputs": [
        {
          "internalType": "uint256",
          "name": "",
          "type": "uint256"
        }
      ],
      "stateMutability": "view",
      "type": "function"
    },
    {
      "inputs": [
        {
          "internalType": "uint256",
          "name": "tokenId",
          "type": "uint256"
        }
      ],
      "name": "tokenURI",
      "outputs": [
        {
          "internalType": "string",
          "name": "",
          "type": "string"
        }
      ],
      "stateMutability": "view",
      "type": "function"
    },
    {
      "inputs": [],
      "name": "totalSupply",
      "outputs": [
        {
          "internalType": "uint256",
          "name": "",
          "type": "uint256"
        }
      ],
      "stateMutability": "view",
      "type": "function"
    },
    {
      "inputs": [
        {
          "internalType": "address",
          "name": "from",
          "type": "address"
        },
        {
          "internalType": "address",
          "name": "to",
          "type": "address"
        },
        {
          "internalType": "uint256",
          "name": "tokenId",
          "type": "uint256"
        }
      ],
      "name": "transferFrom",
      "outputs": [],
      "stateMutability": "nonpayable",
      "type": "function"
    },
    {
      "inputs": [
        {
          "internalType": "address",
          "name": "newOwner",
          "type": "address"
        }
      ],
      "name": "transferOwnership",
      "outputs": [],
      "stateMutability": "nonpayable",
      "type": "function"
    },
    {
      "inputs": [],
      "name": "wordsCreated",
      "outputs": [
        {
          "internalType": "uint32",
          "name": "",
          "type": "uint32"
        }
      ],
      "stateMutability": "view",
      "type": "function"
    }
  ],
  "bytecode": "0x608060405260405180610c4001604052806040518060400160405280600181526020017f410000000000000000000000000000000000000000000000000000000000000081525081526020016040518060400160405280600181526020017f410000000000000000000000000000000000000000000000000000000000000081525081526020016040518060400160405280600181526020017f410000000000000000000000000000000000000000000000000000000000000081525081526020016040518060400160405280600181526020017f410000000000000000000000000000000000000000000000000000000000000081525081526020016040518060400160405280600181526020017f410000000000000000000000000000000000000000000000000000000000000081525081526020016040518060400160405280600181526020017f410000000000000000000000000000000000000000000000000000000000000081525081526020016040518060400160405280600181526020017f410000000000000000000000000000000000000000000000000000000000000081525081526020016040518060400160405280600181526020017f410000000000000000000000000000000000000000000000000000000000000081525081526020016040518060400160405280600181526020017f420000000000000000000000000000000000000000000000000000000000000081525081526020016040518060400160405280600181526020017f420000000000000000000000000000000000000000000000000000000000000081525081526020016040518060400160405280600181526020017f430000000000000000000000000000000000000000000000000000000000000081525081526020016040518060400160405280600181526020017f430000000000000000000000000000000000000000000000000000000000000081525081526020016040518060400160405280600181526020017f430000000000000000000000000000000000000000000000000000000000000081525081526020016040518060400160405280600181526020017f430000000000000000000000000000000000000000000000000000000000000081525081526020016040518060400160405280600181526020017f440000000000000000000000000000000000000000000000000000000000000081525081526020016040518060400160405280600181526020017f440000000000000000000000000000000000000000000000000000000000000081525081526020016040518060400160405280600181526020017f440000000000000000000000000000000000000000000000000000000000000081525081526020016040518060400160405280600181526020017f440000000000000000000000000000000000000000000000000000000000000081525081526020016040518060400160405280600181526020017f450000000000000000000000000000000000000000000000000000000000000081525081526020016040518060400160405280600181526020017f450000000000000000000000000000000000000000000000000000000000000081525081526020016040518060400160405280600181526020017f450000000000000000000000000000000000000000000000000000000000000081525081526020016040518060400160405280600181526020017f450000000000000000000000000000000000000000000000000000000000000081525081526020016040518060400160405280600181526020017f450000000000000000000000000000000000000000000000000000000000000081525081526020016040518060400160405280600181526020017f450000000000000000000000000000000000000000000000000000000000000081525081526020016040518060400160405280600181526020017f450000000000000000000000000000000000000000000000000000000000000081525081526020016040518060400160405280600181526020017f450000000000000000000000000000000000000000000000000000000000000081525081526020016040518060400160405280600181526020017f450000000000000000000000000000000000000000000000000000000000000081525081526020016040518060400160405280600181526020017f450000000000000000000000000000000000000000000000000000000000000081525081526020016040518060400160405280600181526020017f450000000000000000000000000000000000000000000000000000000000000081525081526020016040518060400160405280600181526020017f460000000000000000000000000000000000000000000000000000000000000081525081526020016040518060400160405280600181526020017f460000000000000000000000000000000000000000000000000000000000000081525081526020016040518060400160405280600181526020017f470000000000000000000000000000000000000000000000000000000000000081525081526020016040518060400160405280600181526020017f470000000000000000000000000000000000000000000000000000000000000081525081526020016040518060400160405280600181526020017f470000000000000000000000000000000000000000000000000000000000000081525081526020016040518060400160405280600181526020017f480000000000000000000000000000000000000000000000000000000000000081525081526020016040518060400160405280600181526020017f480000000000000000000000000000000000000000000000000000000000000081525081526020016040518060400160405280600181526020017f490000000000000000000000000000000000000000000000000000000000000081525081526020016040518060400160405280600181526020017f490000000000000000000000000000000000000000000000000000000000000081525081526020016040518060400160405280600181526020017f490000000000000000000000000000000000000000000000000000000000000081525081526020016040518060400160405280600181526020017f490000000000000000000000000000000000000000000000000000000000000081525081526020016040518060400160405280600181526020017f490000000000000000000000000000000000000000000000000000000000000081525081526020016040518060400160405280600181526020017f490000000000000000000000000000000000000000000000000000000000000081525081526020016040518060400160405280600181526020017f490000000000000000000000000000000000000000000000000000000000000081525081526020016040518060400160405280600181526020017f490000000000000000000000000000000000000000000000000000000000000081525081526020016040518060400160405280600181526020017f4b0000000000000000000000000000000000000000000000000000000000000081525081526020016040518060400160405280600181526020017f4c0000000000000000000000000000000000000000000000000000000000000081525081526020016040518060400160405280600181526020017f4c0000000000000000000000000000000000000000000000000000000000000081525081526020016040518060400160405280600181526020017f4c0000000000000000000000000000000000000000000000000000000000000081525081526020016040518060400160405280600181526020017f4c0000000000000000000000000000000000000000000000000000000000000081525081526020016040518060400160405280600181526020017f4c0000000000000000000000000000000000000000000000000000000000000081525081526020016040518060400160405280600181526020017f4d0000000000000000000000000000000000000000000000000000000000000081525081526020016040518060400160405280600181526020017f4d0000000000000000000000000000000000000000000000000000000000000081525081526020016040518060400160405280600181526020017f4d0000000000000000000000000000000000000000000000000000000000000081525081526020016040518060400160405280600181526020017f4e0000000000000000000000000000000000000000000000000000000000000081525081526020016040518060400160405280600181526020017f4e0000000000000000000000000000000000000000000000000000000000000081525081526020016040518060400160405280600181526020017f4e0000000000000000000000000000000000000000000000000000000000000081525081526020016040518060400160405280600181526020017f4e0000000000000000000000000000000000000000000000000000000000000081525081526020016040518060400160405280600181526020017f4e0000000000000000000000000000000000000000000000000000000000000081525081526020016040518060400160405280600181526020017f4e0000000000000000000000000000000000000000000000000000000000000081525081526020016040518060400160405280600181526020017f4e0000000000000000000000000000000000000000000000000000000000000081525081526020016040518060400160405280600181526020017f4f0000000000000000000000000000000000000000000000000000000000000081525081526020016040518060400160405280600181526020017f4f0000000000000000000000000000000000000000000000000000000000000081525081526020016040518060400160405280600181526020017f4f0000000000000000000000000000000000000000000000000000000000000081525081526020016040518060400160405280600181526020017f4f0000000000000000000000000000000000000000000000000000000000000081525081526020016040518060400160405280600181526020017f4f0000000000000000000000000000000000000000000000000000000000000081525081526020016040518060400160405280600181526020017f4f0000000000000000000000000000000000000000000000000000000000000081525081526020016040518060400160405280600181526020017f500000000000000000000000000000000000000000000000000000000000000081525081526020016040518060400160405280600181526020017f500000000000000000000000000000000000000000000000000000000000000081525081526020016040518060400160405280600181526020017f500000000000000000000000000000000000000000000000000000000000000081525081526020016040518060400160405280600181526020017f520000000000000000000000000000000000000000000000000000000000000081525081526020016040518060400160405280600181526020017f520000000000000000000000000000000000000000000000000000000000000081525081526020016040518060400160405280600181526020017f520000000000000000000000000000000000000000000000000000000000000081525081526020016040518060400160405280600181526020017f520000000000000000000000000000000000000000000000000000000000000081525081526020016040518060400160405280600181526020017f520000000000000000000000000000000000000000000000000000000000000081525081526020016040518060400160405280600181526020017f520000000000000000000000000000000000000000000000000000000000000081525081526020016040518060400160405280600181526020017f520000000000000000000000000000000000000000000000000000000000000081525081526020016040518060400160405280600181526020017f530000000000000000000000000000000000000000000000000000000000000081525081526020016040518060400160405280600181526020017f530000000000000000000000000000000000000000000000000000000000000081525081526020016040518060400160405280600181526020017f530000000000000000000000000000000000000000000000000000000000000081525081526020016040518060400160405280600181526020017f530000000000000000000000000000000000000000000000000000000000000081525081526020016040518060400160405280600181526020017f530000000000000000000000000000000000000000000000000000000000000081525081526020016040518060400160405280600181526020017f530000000000000000000000000000000000000000000000000000000000000081525081526020016040518060400160405280600181526020017f530000000000000000000000000000000000000000000000000000000000000081525081526020016040518060400160405280600181526020017f530000000000000000000000000000000000000000000000000000000000000081525081526020016040518060400160405280600181526020017f540000000000000000000000000000000000000000000000000000000000000081525081526020016040518060400160405280600181526020017f540000000000000000000000000000000000000000000000000000000000000081525081526020016040518060400160405280600181526020017f540000000000000000000000000000000000000000000000000000000000000081525081526020016040518060400160405280600181526020017f540000000000000000000000000000000000000000000000000000000000000081525081526020016040518060400160405280600181526020017f540000000000000000000000000000000000000000000000000000000000000081525081526020016040518060400160405280600181526020017f540000000000000000000000000000000000000000000000000000000000000081525081526020016040518060400160405280600181526020017f540000000000000000000000000000000000000000000000000000000000000081525081526020016040518060400160405280600181526020017f550000000000000000000000000000000000000000000000000000000000000081525081526020016040518060400160405280600181526020017f550000000000000000000000000000000000000000000000000000000000000081525081526020016040518060400160405280600181526020017f550000000000000000000000000000000000000000000000000000000000000081525081526020016040518060400160405280600181526020017f560000000000000000000000000000000000000000000000000000000000000081525081526020016040518060400160405280600181526020017f570000000000000000000000000000000000000000000000000000000000000081525081526020016040518060400160405280600181526020017f590000000000000000000000000000000000000000000000000000000000000081525081526020016040518060400160405280600181526020017f5900000000000000000000000000000000000000000000000000000000000000815250815250600c906062620016b6929190620023b0565b506040518060a001604052806040518060400160405280600181526020017f4a0000000000000000000000000000000000000000000000000000000000000081525081526020016040518060400160405280600181526020017f510000000000000000000000000000000000000000000000000000000000000081525081526020016040518060400160405280600181526020017f580000000000000000000000000000000000000000000000000000000000000081525081526020016040518060400160405280600181526020017f5a0000000000000000000000000000000000000000000000000000000000000081525081526020016040518060400160405280600181526020017f5a00000000000000000000000000000000000000000000000000000000000000815250815250600d906005620017f992919062002417565b503480156200180757600080fd5b506040516200795e3803806200795e83398181016040528101906200182d919062002663565b81818160009080519060200190620018479291906200247e565b508060019080519060200190620018609291906200247e565b5050506001600a819055506200188b6200187f620018fa60201b60201c565b6200190260201b60201c565b6001600b60186101000a81548163ffffffff021916908363ffffffff1602179055506107d0600b60146101000a81548163ffffffff021916908363ffffffff160217905550620018f2620018e4620018fa60201b60201c565b6000620019c860201b60201c565b505062002d0d565b600033905090565b6000600b60009054906101000a900473ffffffffffffffffffffffffffffffffffffffff16905081600b60006101000a81548173ffffffffffffffffffffffffffffffffffffffff021916908373ffffffffffffffffffffffffffffffffffffffff1602179055508173ffffffffffffffffffffffffffffffffffffffff168173ffffffffffffffffffffffffffffffffffffffff167f8be0079c531659141344cd1fd0a4f28419497f9722a3daafe3b4186f6b6457e060405160405180910390a35050565b620019ea828260405180602001604052806000815250620019ee60201b60201c565b5050565b62001a00838362001a5c60201b60201c565b62001a15600084848462001c4260201b60201c565b62001a57576040517f08c379a000000000000000000000000000000000000000000000000000000000815260040162001a4e906200283b565b60405180910390fd5b505050565b600073ffffffffffffffffffffffffffffffffffffffff168273ffffffffffffffffffffffffffffffffffffffff16141562001acf576040517f08c379a000000000000000000000000000000000000000000000000000000000815260040162001ac690620028a1565b60405180910390fd5b62001ae08162001dfc60201b60201c565b1562001b23576040517f08c379a000000000000000000000000000000000000000000000000000000000815260040162001b1a906200285d565b60405180910390fd5b62001b376000838362001e6860201b60201c565b6001600360008473ffffffffffffffffffffffffffffffffffffffff1673ffffffffffffffffffffffffffffffffffffffff168152602001908152602001600020600082825462001b8991906200294f565b92505081905550816002600083815260200190815260200160002060006101000a81548173ffffffffffffffffffffffffffffffffffffffff021916908373ffffffffffffffffffffffffffffffffffffffff160217905550808273ffffffffffffffffffffffffffffffffffffffff16600073ffffffffffffffffffffffffffffffffffffffff167fddf252ad1be2c89b69c2b068fc378daa952ba7f163c4a11628f55a4df523b3ef60405160405180910390a45050565b600062001c708473ffffffffffffffffffffffffffffffffffffffff1662001faf60201b62001c611760201c565b1562001def578373ffffffffffffffffffffffffffffffffffffffff1663150b7a0262001ca2620018fa60201b60201c565b8786866040518563ffffffff1660e01b815260040162001cc69493929190620027e7565b602060405180830381600087803b15801562001ce157600080fd5b505af192505050801562001d1557506040513d601f19601f8201168201806040525081019062001d12919062002631565b60015b62001d9e573d806000811462001d48576040519150601f19603f3d011682016040523d82523d6000602084013e62001d4d565b606091505b5060008151141562001d96576040517f08c379a000000000000000000000000000000000000000000000000000000000815260040162001d8d906200283b565b60405180910390fd5b805181602001fd5b63150b7a0260e01b7bffffffffffffffffffffffffffffffffffffffffffffffffffffffff1916817bffffffffffffffffffffffffffffffffffffffffffffffffffffffff19161491505062001df4565b600190505b949350505050565b60008073ffffffffffffffffffffffffffffffffffffffff166002600084815260200190815260200160002060009054906101000a900473ffffffffffffffffffffffffffffffffffffffff1673ffffffffffffffffffffffffffffffffffffffff1614159050919050565b62001e8083838362001fc260201b62001c741760201c565b600073ffffffffffffffffffffffffffffffffffffffff168373ffffffffffffffffffffffffffffffffffffffff16141562001ecd5762001ec78162001fc760201b60201c565b62001f15565b8173ffffffffffffffffffffffffffffffffffffffff168373ffffffffffffffffffffffffffffffffffffffff161462001f145762001f1383826200201060201b60201c565b5b5b600073ffffffffffffffffffffffffffffffffffffffff168273ffffffffffffffffffffffffffffffffffffffff16141562001f625762001f5c816200218d60201b60201c565b62001faa565b8273ffffffffffffffffffffffffffffffffffffffff168273ffffffffffffffffffffffffffffffffffffffff161462001fa95762001fa882826200226960201b60201c565b5b5b505050565b600080823b905060008111915050919050565b505050565b6008805490506009600083815260200190815260200160002081905550600881908060018154018082558091505060019003906000526020600020016000909190919091505550565b600060016200202a84620022f560201b6200119c1760201c565b620020369190620029ac565b90506000600760008481526020019081526020016000205490508181146200211c576000600660008673ffffffffffffffffffffffffffffffffffffffff1673ffffffffffffffffffffffffffffffffffffffff168152602001908152602001600020600084815260200190815260200160002054905080600660008773ffffffffffffffffffffffffffffffffffffffff1673ffffffffffffffffffffffffffffffffffffffff168152602001908152602001600020600084815260200190815260200160002081905550816007600083815260200190815260200160002081905550505b6007600084815260200190815260200160002060009055600660008573ffffffffffffffffffffffffffffffffffffffff1673ffffffffffffffffffffffffffffffffffffffff16815260200190815260200160002060008381526020019081526020016000206000905550505050565b60006001600880549050620021a39190620029ac565b9050600060096000848152602001908152602001600020549050600060088381548110620021d657620021d562002b80565b5b906000526020600020015490508060088381548110620021fb57620021fa62002b80565b5b9060005260206000200181905550816009600083815260200190815260200160002081905550600960008581526020019081526020016000206000905560088054806200224d576200224c62002b51565b5b6001900381819060005260206000200160009055905550505050565b60006200228183620022f560201b6200119c1760201c565b905081600660008573ffffffffffffffffffffffffffffffffffffffff1673ffffffffffffffffffffffffffffffffffffffff168152602001908152602001600020600083815260200190815260200160002081905550806007600084815260200190815260200160002081905550505050565b60008073ffffffffffffffffffffffffffffffffffffffff168273ffffffffffffffffffffffffffffffffffffffff16141562002369576040517f08c379a000000000000000000000000000000000000000000000000000000000815260040162002360906200287f565b60405180910390fd5b600360008373ffffffffffffffffffffffffffffffffffffffff1673ffffffffffffffffffffffffffffffffffffffff168152602001908152602001600020549050919050565b82805482825590600052602060002090810192821562002404579160200282015b8281111562002403578251829080519060200190620023f29291906200247e565b5091602001919060010190620023d1565b5b5090506200241391906200250f565b5090565b8280548282559060005260206000209081019282156200246b579160200282015b828111156200246a578251829080519060200190620024599291906200247e565b509160200191906001019062002438565b5b5090506200247a91906200250f565b5090565b8280546200248c9062002a87565b90600052602060002090601f016020900481019282620024b05760008555620024fc565b82601f10620024cb57805160ff1916838001178555620024fc565b82800160010185558215620024fc579182015b82811115620024fb578251825591602001919060010190620024de565b5b5090506200250b919062002537565b5090565b5b8082111562002533576000818162002529919062002556565b5060010162002510565b5090565b5b808211156200255257600081600090555060010162002538565b5090565b508054620025649062002a87565b6000825580601f1062002578575062002599565b601f01602090049060005260206000209081019062002598919062002537565b5b50565b6000620025b3620025ad84620028ec565b620028c3565b905082815260208101848484011115620025d257620025d162002be3565b5b620025df84828562002a51565b509392505050565b600081519050620025f88162002cf3565b92915050565b600082601f83011262002616576200261562002bde565b5b8151620026288482602086016200259c565b91505092915050565b6000602082840312156200264a576200264962002bed565b5b60006200265a84828501620025e7565b91505092915050565b600080604083850312156200267d576200267c62002bed565b5b600083015167ffffffffffffffff8111156200269e576200269d62002be8565b5b620026ac85828601620025fe565b925050602083015167ffffffffffffffff811115620026d057620026cf62002be8565b5b620026de85828601620025fe565b9150509250929050565b620026f381620029e7565b82525050565b6000620027068262002922565b6200271281856200292d565b93506200272481856020860162002a51565b6200272f8162002bf2565b840191505092915050565b6000620027496032836200293e565b9150620027568262002c03565b604082019050919050565b600062002770601c836200293e565b91506200277d8262002c52565b602082019050919050565b600062002797602a836200293e565b9150620027a48262002c7b565b604082019050919050565b6000620027be6020836200293e565b9150620027cb8262002cca565b602082019050919050565b620027e18162002a47565b82525050565b6000608082019050620027fe6000830187620026e8565b6200280d6020830186620026e8565b6200281c6040830185620027d6565b8181036060830152620028308184620026f9565b905095945050505050565b6000602082019050818103600083015262002856816200273a565b9050919050565b60006020820190508181036000830152620028788162002761565b9050919050565b600060208201905081810360008301526200289a8162002788565b9050919050565b60006020820190508181036000830152620028bc81620027af565b9050919050565b6000620028cf620028e2565b9050620028dd828262002abd565b919050565b6000604051905090565b600067ffffffffffffffff8211156200290a576200290962002baf565b5b620029158262002bf2565b9050602081019050919050565b600081519050919050565b600082825260208201905092915050565b600082825260208201905092915050565b60006200295c8262002a47565b9150620029698362002a47565b9250827fffffffffffffffffffffffffffffffffffffffffffffffffffffffffffffffff03821115620029a157620029a062002af3565b5b828201905092915050565b6000620029b98262002a47565b9150620029c68362002a47565b925082821015620029dc57620029db62002af3565b5b828203905092915050565b6000620029f48262002a27565b9050919050565b60007fffffffff0000000000000000000000000000000000000000000000000000000082169050919050565b600073ffffffffffffffffffffffffffffffffffffffff82169050919050565b6000819050919050565b60005b8381101562002a7157808201518184015260208101905062002a54565b8381111562002a81576000848401525b50505050565b6000600282049050600182168062002aa057607f821691505b6020821081141562002ab75762002ab662002b22565b5b50919050565b62002ac88262002bf2565b810181811067ffffffffffffffff8211171562002aea5762002ae962002baf565b5b80604052505050565b7f4e487b7100000000000000000000000000000000000000000000000000000000600052601160045260246000fd5b7f4e487b7100000000000000000000000000000000000000000000000000000000600052602260045260246000fd5b7f4e487b7100000000000000000000000000000000000000000000000000000000600052603160045260246000fd5b7f4e487b7100000000000000000000000000000000000000000000000000000000600052603260045260246000fd5b7f4e487b7100000000000000000000000000000000000000000000000000000000600052604160045260246000fd5b600080fd5b600080fd5b600080fd5b600080fd5b6000601f19601f8301169050919050565b7f4552433732313a207472616e7366657220746f206e6f6e20455243373231526560008201527f63656976657220696d706c656d656e7465720000000000000000000000000000602082015250565b7f4552433732313a20746f6b656e20616c7265616479206d696e74656400000000600082015250565b7f4552433732313a2062616c616e636520717565727920666f7220746865207a6560008201527f726f206164647265737300000000000000000000000000000000000000000000602082015250565b7f4552433732313a206d696e7420746f20746865207a65726f2061646472657373600082015250565b62002cfe81620029fb565b811462002d0a57600080fd5b50565b614c418062002d1d6000396000f3fe6080604052600436106101b75760003560e01c80636e9f067f116100ec578063b88d4fde1161008a578063c87b56dd11610064578063c87b56dd14610611578063e985e9c51461064e578063f2fde38b1461068b578063f95bef63146106b4576101b7565b8063b88d4fde14610594578063bc06c087146105bd578063bcfb1140146105e8576101b7565b806387620522116100c657806387620522146104d85780638da5cb5b1461051557806395d89b4114610540578063a22cb4651461056b576101b7565b80636e9f067f1461044757806370a0823114610484578063715018a6146104c1576101b7565b80632f745c59116101595780634645aa09116101335780634645aa09146103985780634f6ccce7146103c35780635bc9b307146104005780636352211e1461040a576101b7565b80632f745c591461031b57806342842e0e146103585780634371b0cd14610381576101b7565b8063095ea7b311610195578063095ea7b31461026157806318160ddd1461028a57806323b872dd146102b55780632f5a8862146102de576101b7565b806301ffc9a7146101bc57806306fdde03146101f9578063081812fc14610224575b600080fd5b3480156101c857600080fd5b506101e360048036038101906101de9190613345565b6106f1565b6040516101f09190613a56565b60405180910390f35b34801561020557600080fd5b5061020e61076b565b60405161021b9190613a71565b60405180910390f35b34801561023057600080fd5b5061024b6004803603810190610246919061339f565b6107fd565b60405161025891906139ef565b60405180910390f35b34801561026d57600080fd5b5061028860048036038101906102839190613305565b610882565b005b34801561029657600080fd5b5061029f61099a565b6040516102ac9190613d73565b60405180910390f35b3480156102c157600080fd5b506102dc60048036038101906102d791906131ef565b6109a7565b005b3480156102ea57600080fd5b506103056004803603810190610300919061339f565b610a07565b6040516103129190613a71565b60405180910390f35b34801561032757600080fd5b50610342600480360381019061033d9190613305565b610aa9565b60405161034f9190613d73565b60405180910390f35b34801561036457600080fd5b5061037f600480360381019061037a91906131ef565b610b4e565b005b34801561038d57600080fd5b50610396610b6e565b005b3480156103a457600080fd5b506103ad610d7f565b6040516103ba9190613d8e565b60405180910390f35b3480156103cf57600080fd5b506103ea60048036038101906103e5919061339f565b610e15565b6040516103f79190613d73565b60405180910390f35b610408610e86565b005b34801561041657600080fd5b50610431600480360381019061042c919061339f565b611048565b60405161043e91906139ef565b60405180910390f35b34801561045357600080fd5b5061046e6004803603810190610469919061339f565b6110fa565b60405161047b9190613a71565b60405180910390f35b34801561049057600080fd5b506104ab60048036038101906104a69190613182565b61119c565b6040516104b89190613d73565b60405180910390f35b3480156104cd57600080fd5b506104d6611254565b005b3480156104e457600080fd5b506104ff60048036038101906104fa919061339f565b6112dc565b60405161050c9190613a71565b60405180910390f35b34801561052157600080fd5b5061052a61137e565b60405161053791906139ef565b60405180910390f35b34801561054c57600080fd5b506105556113a8565b6040516105629190613a71565b60405180910390f35b34801561057757600080fd5b50610592600480360381019061058d91906132c5565b61143a565b005b3480156105a057600080fd5b506105bb60048036038101906105b69190613242565b6115bb565b005b3480156105c957600080fd5b506105d261161d565b6040516105df9190613d8e565b60405180910390f35b3480156105f457600080fd5b5061060f600480360381019061060a91906133cc565b611637565b005b34801561061d57600080fd5b506106386004803603810190610633919061339f565b6116f5565b6040516106459190613a71565b60405180910390f35b34801561065a57600080fd5b50610675600480360381019061067091906131af565b611a33565b6040516106829190613a56565b60405180910390f35b34801561069757600080fd5b506106b260048036038101906106ad9190613182565b611ac7565b005b3480156106c057600080fd5b506106db60048036038101906106d6919061339f565b611bbf565b6040516106e89190613a71565b60405180910390f35b60007f780e9d63000000000000000000000000000000000000000000000000000000007bffffffffffffffffffffffffffffffffffffffffffffffffffffffff1916827bffffffffffffffffffffffffffffffffffffffffffffffffffffffff19161480610764575061076382611c79565b5b9050919050565b60606000805461077a906140b5565b80601f01602080910402602001604051908101604052809291908181526020018280546107a6906140b5565b80156107f35780601f106107c8576101008083540402835291602001916107f3565b820191906000526020600020905b8154815290600101906020018083116107d657829003601f168201915b5050505050905090565b600061080882611d5b565b610847576040517f08c379a000000000000000000000000000000000000000000000000000000000815260040161083e90613c33565b60405180910390fd5b6004600083815260200190815260200160002060009054906101000a900473ffffffffffffffffffffffffffffffffffffffff169050919050565b600061088d82611048565b90508073ffffffffffffffffffffffffffffffffffffffff168373ffffffffffffffffffffffffffffffffffffffff1614156108fe576040517f08c379a00000000000000000000000000000000000000000000000000000000081526004016108f590613cd3565b60405180910390fd5b8073ffffffffffffffffffffffffffffffffffffffff1661091d611dc7565b73ffffffffffffffffffffffffffffffffffffffff16148061094c575061094b81610946611dc7565b611a33565b5b61098b576040517f08c379a000000000000000000000000000000000000000000000000000000000815260040161098290613bb3565b60405180910390fd5b6109958383611dcf565b505050565b6000600880549050905090565b6109b86109b2611dc7565b82611e88565b6109f7576040517f08c379a00000000000000000000000000000000000000000000000000000000081526004016109ee90613cf3565b60405180910390fd5b610a02838383611f66565b505050565b6060600b60189054906101000a900463ffffffff1663ffffffff168210610a63576040517f08c379a0000000000000000000000000000000000000000000000000000000008152600401610a5a90613cb3565b60405180910390fd5b610aa2826040518060400160405280600381526020017f4f4e4500000000000000000000000000000000000000000000000000000000008152506121c2565b9050919050565b6000610ab48361119c565b8210610af5576040517f08c379a0000000000000000000000000000000000000000000000000000000008152600401610aec90613a93565b60405180910390fd5b600660008473ffffffffffffffffffffffffffffffffffffffff1673ffffffffffffffffffffffffffffffffffffffff168152602001908152602001600020600083815260200190815260200160002054905092915050565b610b69838383604051806020016040528060008152506115bb565b505050565b6002600a541415610bb4576040517f08c379a0000000000000000000000000000000000000000000000000000000008152600401610bab90613d53565b60405180910390fd5b6002600a81905550612711600b60189054906101000a900463ffffffff1663ffffffff1610610c18576040517f08c379a0000000000000000000000000000000000000000000000000000000008152600401610c0f90613c73565b60405180910390fd5b6000610c233361119c565b14610c63576040517f08c379a0000000000000000000000000000000000000000000000000000000008152600401610c5a90613d33565b60405180910390fd5b6000600b60149054906101000a900463ffffffff1663ffffffff1611610cbe576040517f08c379a0000000000000000000000000000000000000000000000000000000008152600401610cb590613b33565b60405180910390fd5b600b601881819054906101000a900463ffffffff1680929190610ce090614161565b91906101000a81548163ffffffff021916908363ffffffff16021790555050600b601481819054906101000a900463ffffffff1680929190610d219061408b565b91906101000a81548163ffffffff021916908363ffffffff16021790555050610d75610d4b611dc7565b6001600b60189054906101000a900463ffffffff16610d6a9190613f91565b63ffffffff166123bc565b6001600a81905550565b6000610d89611dc7565b73ffffffffffffffffffffffffffffffffffffffff16610da761137e565b73ffffffffffffffffffffffffffffffffffffffff1614610dfd576040517f08c379a0000000000000000000000000000000000000000000000000000000008152600401610df490613c53565b60405180910390fd5b600b60189054906101000a900463ffffffff16905090565b6000610e1f61099a565b8210610e60576040517f08c379a0000000000000000000000000000000000000000000000000000000008152600401610e5790613d13565b60405180910390fd5b60088281548110610e7457610e7361427b565b5b90600052602060002001549050919050565b6002600a541415610ecc576040517f08c379a0000000000000000000000000000000000000000000000000000000008152600401610ec390613d53565b60405180910390fd5b6002600a81905550612711600b60189054906101000a900463ffffffff1663ffffffff1610610f30576040517f08c379a0000000000000000000000000000000000000000000000000000000008152600401610f2790613c73565b60405180910390fd5b662386f26fc10000341015610f7a576040517f08c379a0000000000000000000000000000000000000000000000000000000008152600401610f7190613b13565b60405180910390fd5b610f8261137e565b73ffffffffffffffffffffffffffffffffffffffff166108fc349081150290604051600060405180830381858888f19350505050158015610fc7573d6000803e3d6000fd5b50600b601881819054906101000a900463ffffffff1680929190610fea90614161565b91906101000a81548163ffffffff021916908363ffffffff1602179055505061103e611014611dc7565b6001600b60189054906101000a900463ffffffff166110339190613f91565b63ffffffff166123bc565b6001600a81905550565b6000806002600084815260200190815260200160002060009054906101000a900473ffffffffffffffffffffffffffffffffffffffff169050600073ffffffffffffffffffffffffffffffffffffffff168173ffffffffffffffffffffffffffffffffffffffff1614156110f1576040517f08c379a00000000000000000000000000000000000000000000000000000000081526004016110e890613bf3565b60405180910390fd5b80915050919050565b6060600b60189054906101000a900463ffffffff1663ffffffff168210611156576040517f08c379a000000000000000000000000000000000000000000000000000000000815260040161114d90613cb3565b60405180910390fd5b611195826040518060400160405280600481526020017f464f5552000000000000000000000000000000000000000000000000000000008152506121c2565b9050919050565b60008073ffffffffffffffffffffffffffffffffffffffff168273ffffffffffffffffffffffffffffffffffffffff16141561120d576040517f08c379a000000000000000000000000000000000000000000000000000000000815260040161120490613bd3565b60405180910390fd5b600360008373ffffffffffffffffffffffffffffffffffffffff1673ffffffffffffffffffffffffffffffffffffffff168152602001908152602001600020549050919050565b61125c611dc7565b73ffffffffffffffffffffffffffffffffffffffff1661127a61137e565b73ffffffffffffffffffffffffffffffffffffffff16146112d0576040517f08c379a00000000000000000000000000000000000000000000000000000000081526004016112c790613c53565b60405180910390fd5b6112da60006123da565b565b6060600b60189054906101000a900463ffffffff1663ffffffff168210611338576040517f08c379a000000000000000000000000000000000000000000000000000000000815260040161132f90613cb3565b60405180910390fd5b611377826040518060400160405280600381526020017f54574f00000000000000000000000000000000000000000000000000000000008152506121c2565b9050919050565b6000600b60009054906101000a900473ffffffffffffffffffffffffffffffffffffffff16905090565b6060600180546113b7906140b5565b80601f01602080910402602001604051908101604052809291908181526020018280546113e3906140b5565b80156114305780601f1061140557610100808354040283529160200191611430565b820191906000526020600020905b81548152906001019060200180831161141357829003601f168201915b5050505050905090565b611442611dc7565b73ffffffffffffffffffffffffffffffffffffffff168273ffffffffffffffffffffffffffffffffffffffff1614156114b0576040517f08c379a00000000000000000000000000000000000000000000000000000000081526004016114a790613b73565b60405180910390fd5b80600560006114bd611dc7565b73ffffffffffffffffffffffffffffffffffffffff1673ffffffffffffffffffffffffffffffffffffffff16815260200190815260200160002060008473ffffffffffffffffffffffffffffffffffffffff1673ffffffffffffffffffffffffffffffffffffffff16815260200190815260200160002060006101000a81548160ff0219169083151502179055508173ffffffffffffffffffffffffffffffffffffffff1661156a611dc7565b73ffffffffffffffffffffffffffffffffffffffff167f17307eab39ab6107e8899845ad3d59bd9653f200f220920489ca2b5937696c31836040516115af9190613a56565b60405180910390a35050565b6115cc6115c6611dc7565b83611e88565b61160b576040517f08c379a000000000000000000000000000000000000000000000000000000000815260040161160290613cf3565b60405180910390fd5b611617848484846124a0565b50505050565b6000600b60149054906101000a900463ffffffff16905090565b61163f611dc7565b73ffffffffffffffffffffffffffffffffffffffff1661165d61137e565b73ffffffffffffffffffffffffffffffffffffffff16146116b3576040517f08c379a00000000000000000000000000000000000000000000000000000000081526004016116aa90613c53565b60405180910390fd5b80600b60148282829054906101000a900463ffffffff166116d49190613e98565b92506101000a81548163ffffffff021916908363ffffffff16021790555050565b60606116ff61306c565b60405180610160016040528061012c8152602001614ab861012c91398160006009811061172f5761172e61427b565b5b602002018190525061174083610a07565b816001600981106117545761175361427b565b5b6020020181905250604051806060016040528060288152602001614a5060289139816002600981106117895761178861427b565b5b602002018190525061179a836112dc565b816003600981106117ae576117ad61427b565b5b6020020181905250604051806060016040528060288152602001614be460289139816004600981106117e3576117e261427b565b5b60200201819052506117f483611bbf565b816005600981106118085761180761427b565b5b6020020181905250604051806060016040528060288152602001614a28602891398160066009811061183d5761183c61427b565b5b602002018190525061184e836110fa565b816007600981106118625761186161427b565b5b60200201819052506040518060400160405280600d81526020017f3c2f746578743e3c2f7376673e00000000000000000000000000000000000000815250816008600981106118b4576118b361427b565b5b60200201819052506000816000600981106118d2576118d161427b565b5b6020020151826001600981106118eb576118ea61427b565b5b6020020151836002600981106119045761190361427b565b5b60200201518460036009811061191d5761191c61427b565b5b6020020151856004600981106119365761193561427b565b5b60200201518660056009811061194f5761194e61427b565b5b6020020151876006600981106119685761196761427b565b5b6020020151886007600981106119815761198061427b565b5b60200201518960086009811061199a5761199961427b565b5b60200201516040516020016119b7999897969594939291906138e7565b60405160208183030381529060405290506000611a046119d6866124fc565b6119df8461265d565b6040516020016119f0929190613988565b60405160208183030381529060405261265d565b905080604051602001611a1791906139cd565b6040516020818303038152906040529150819350505050919050565b6000600560008473ffffffffffffffffffffffffffffffffffffffff1673ffffffffffffffffffffffffffffffffffffffff16815260200190815260200160002060008373ffffffffffffffffffffffffffffffffffffffff1673ffffffffffffffffffffffffffffffffffffffff16815260200190815260200160002060009054906101000a900460ff16905092915050565b611acf611dc7565b73ffffffffffffffffffffffffffffffffffffffff16611aed61137e565b73ffffffffffffffffffffffffffffffffffffffff1614611b43576040517f08c379a0000000000000000000000000000000000000000000000000000000008152600401611b3a90613c53565b60405180910390fd5b600073ffffffffffffffffffffffffffffffffffffffff168173ffffffffffffffffffffffffffffffffffffffff161415611bb3576040517f08c379a0000000000000000000000000000000000000000000000000000000008152600401611baa90613ad3565b60405180910390fd5b611bbc816123da565b50565b6060600b60189054906101000a900463ffffffff1663ffffffff168210611c1b576040517f08c379a0000000000000000000000000000000000000000000000000000000008152600401611c1290613cb3565b60405180910390fd5b611c5a826040518060400160405280600581526020017f54485245450000000000000000000000000000000000000000000000000000008152506121c2565b9050919050565b600080823b905060008111915050919050565b505050565b60007f80ac58cd000000000000000000000000000000000000000000000000000000007bffffffffffffffffffffffffffffffffffffffffffffffffffffffff1916827bffffffffffffffffffffffffffffffffffffffffffffffffffffffff19161480611d4457507f5b5e139f000000000000000000000000000000000000000000000000000000007bffffffffffffffffffffffffffffffffffffffffffffffffffffffff1916827bffffffffffffffffffffffffffffffffffffffffffffffffffffffff1916145b80611d545750611d53826127f5565b5b9050919050565b60008073ffffffffffffffffffffffffffffffffffffffff166002600084815260200190815260200160002060009054906101000a900473ffffffffffffffffffffffffffffffffffffffff1673ffffffffffffffffffffffffffffffffffffffff1614159050919050565b600033905090565b816004600083815260200190815260200160002060006101000a81548173ffffffffffffffffffffffffffffffffffffffff021916908373ffffffffffffffffffffffffffffffffffffffff160217905550808273ffffffffffffffffffffffffffffffffffffffff16611e4283611048565b73ffffffffffffffffffffffffffffffffffffffff167f8c5be1e5ebec7d5bd14f71427d1e84f3dd0314c0f7b2291e5b200ac8c7c3b92560405160405180910390a45050565b6000611e9382611d5b565b611ed2576040517f08c379a0000000000000000000000000000000000000000000000000000000008152600401611ec990613b93565b60405180910390fd5b6000611edd83611048565b90508073ffffffffffffffffffffffffffffffffffffffff168473ffffffffffffffffffffffffffffffffffffffff161480611f4c57508373ffffffffffffffffffffffffffffffffffffffff16611f34846107fd565b73ffffffffffffffffffffffffffffffffffffffff16145b80611f5d5750611f5c8185611a33565b5b91505092915050565b8273ffffffffffffffffffffffffffffffffffffffff16611f8682611048565b73ffffffffffffffffffffffffffffffffffffffff1614611fdc576040517f08c379a0000000000000000000000000000000000000000000000000000000008152600401611fd390613c93565b60405180910390fd5b600073ffffffffffffffffffffffffffffffffffffffff168273ffffffffffffffffffffffffffffffffffffffff16141561204c576040517f08c379a000000000000000000000000000000000000000000000000000000000815260040161204390613b53565b60405180910390fd5b61205783838361285f565b612062600082611dcf565b6001600360008573ffffffffffffffffffffffffffffffffffffffff1673ffffffffffffffffffffffffffffffffffffffff16815260200190815260200160002060008282546120b29190613f5d565b925050819055506001600360008473ffffffffffffffffffffffffffffffffffffffff1673ffffffffffffffffffffffffffffffffffffffff16815260200190815260200160002060008282546121099190613e42565b92505081905550816002600083815260200190815260200160002060006101000a81548173ffffffffffffffffffffffffffffffffffffffff021916908373ffffffffffffffffffffffffffffffffffffffff160217905550808273ffffffffffffffffffffffffffffffffffffffff168473ffffffffffffffffffffffffffffffffffffffff167fddf252ad1be2c89b69c2b068fc378daa952ba7f163c4a11628f55a4df523b3ef60405160405180910390a4505050565b606060006121f8836121d3866124fc565b6040516020016121e49291906138c3565b604051602081830303815290604052612973565b90506000606482612209919061418e565b90506062811061230a576000612245612221876124fc565b6040516020016122319190613966565b604051602081830303815290604052612973565b90506000600582612256919061418e565b9050600d818154811061226c5761226b61427b565b5b906000526020600020018054612281906140b5565b80601f01602080910402602001604051908101604052809291908181526020018280546122ad906140b5565b80156122fa5780601f106122cf576101008083540402835291602001916122fa565b820191906000526020600020905b8154815290600101906020018083116122dd57829003601f168201915b50505050509450505050506123b6565b600c818154811061231e5761231d61427b565b5b906000526020600020018054612333906140b5565b80601f016020809104026020016040519081016040528092919081815260200182805461235f906140b5565b80156123ac5780601f10612381576101008083540402835291602001916123ac565b820191906000526020600020905b81548152906001019060200180831161238f57829003601f168201915b5050505050925050505b92915050565b6123d68282604051806020016040528060008152506129a6565b5050565b6000600b60009054906101000a900473ffffffffffffffffffffffffffffffffffffffff16905081600b60006101000a81548173ffffffffffffffffffffffffffffffffffffffff021916908373ffffffffffffffffffffffffffffffffffffffff1602179055508173ffffffffffffffffffffffffffffffffffffffff168173ffffffffffffffffffffffffffffffffffffffff167f8be0079c531659141344cd1fd0a4f28419497f9722a3daafe3b4186f6b6457e060405160405180910390a35050565b6124ab848484611f66565b6124b784848484612a01565b6124f6576040517f08c379a00000000000000000000000000000000000000000000000000000000081526004016124ed90613ab3565b60405180910390fd5b50505050565b60606000821415612544576040518060400160405280600181526020017f30000000000000000000000000000000000000000000000000000000000000008152509050612658565b600082905060005b6000821461257657808061255f90614118565b915050600a8261256f9190613ed2565b915061254c565b60008167ffffffffffffffff811115612592576125916142aa565b5b6040519080825280601f01601f1916602001820160405280156125c45781602001600182028036833780820191505090505b5090505b60008514612651576001826125dd9190613f5d565b9150600a856125ec919061418e565b60306125f89190613e42565b60f81b81838151811061260e5761260d61427b565b5b60200101907effffffffffffffffffffffffffffffffffffffffffffffffffffffffffffff1916908160001a905350600a8561264a9190613ed2565b94506125c8565b8093505050505b919050565b6060600082519050600081141561268657604051806020016040528060008152509150506127f0565b600060036002836126979190613e42565b6126a19190613ed2565b60046126ad9190613f03565b905060006020826126be9190613e42565b67ffffffffffffffff8111156126d7576126d66142aa565b5b6040519080825280601f01601f1916602001820160405280156127095781602001600182028036833780820191505090505b5090506000604051806060016040528060408152602001614a78604091399050600181016020830160005b868110156127ad5760038101905062ffffff818a015116603f8160121c168401518060081b905060ff603f83600c1c1686015116810190508060081b905060ff603f8360061c1686015116810190508060081b905060ff603f831686015116810190508060e01b90508084526004840193505050612734565b5060038606600181146127c757600281146127d7576127e2565b613d3d60f01b60028303526127e2565b603d60f81b60018303525b508484525050819450505050505b919050565b60007f01ffc9a7000000000000000000000000000000000000000000000000000000007bffffffffffffffffffffffffffffffffffffffffffffffffffffffff1916827bffffffffffffffffffffffffffffffffffffffffffffffffffffffff1916149050919050565b61286a838383611c74565b600073ffffffffffffffffffffffffffffffffffffffff168373ffffffffffffffffffffffffffffffffffffffff1614156128ad576128a881612b98565b6128ec565b8173ffffffffffffffffffffffffffffffffffffffff168373ffffffffffffffffffffffffffffffffffffffff16146128eb576128ea8382612be1565b5b5b600073ffffffffffffffffffffffffffffffffffffffff168273ffffffffffffffffffffffffffffffffffffffff16141561292f5761292a81612d4e565b61296e565b8273ffffffffffffffffffffffffffffffffffffffff168273ffffffffffffffffffffffffffffffffffffffff161461296d5761296c8282612e1f565b5b5b505050565b60008160405160200161298691906138ac565b6040516020818303038152906040528051906020012060001c9050919050565b6129b08383612e9e565b6129bd6000848484612a01565b6129fc576040517f08c379a00000000000000000000000000000000000000000000000000000000081526004016129f390613ab3565b60405180910390fd5b505050565b6000612a228473ffffffffffffffffffffffffffffffffffffffff16611c61565b15612b8b578373ffffffffffffffffffffffffffffffffffffffff1663150b7a02612a4b611dc7565b8786866040518563ffffffff1660e01b8152600401612a6d9493929190613a0a565b602060405180830381600087803b158015612a8757600080fd5b505af1925050508015612ab857506040513d601f19601f82011682018060405250810190612ab59190613372565b60015b612b3b573d8060008114612ae8576040519150601f19603f3d011682016040523d82523d6000602084013e612aed565b606091505b50600081511415612b33576040517f08c379a0000000000000000000000000000000000000000000000000000000008152600401612b2a90613ab3565b60405180910390fd5b805181602001fd5b63150b7a0260e01b7bffffffffffffffffffffffffffffffffffffffffffffffffffffffff1916817bffffffffffffffffffffffffffffffffffffffffffffffffffffffff191614915050612b90565b600190505b949350505050565b6008805490506009600083815260200190815260200160002081905550600881908060018154018082558091505060019003906000526020600020016000909190919091505550565b60006001612bee8461119c565b612bf89190613f5d565b9050600060076000848152602001908152602001600020549050818114612cdd576000600660008673ffffffffffffffffffffffffffffffffffffffff1673ffffffffffffffffffffffffffffffffffffffff168152602001908152602001600020600084815260200190815260200160002054905080600660008773ffffffffffffffffffffffffffffffffffffffff1673ffffffffffffffffffffffffffffffffffffffff168152602001908152602001600020600084815260200190815260200160002081905550816007600083815260200190815260200160002081905550505b6007600084815260200190815260200160002060009055600660008573ffffffffffffffffffffffffffffffffffffffff1673ffffffffffffffffffffffffffffffffffffffff16815260200190815260200160002060008381526020019081526020016000206000905550505050565b60006001600880549050612d629190613f5d565b9050600060096000848152602001908152602001600020549050600060088381548110612d9257612d9161427b565b5b906000526020600020015490508060088381548110612db457612db361427b565b5b906000526020600020018190555081600960008381526020019081526020016000208190555060096000858152602001908152602001600020600090556008805480612e0357612e0261424c565b5b6001900381819060005260206000200160009055905550505050565b6000612e2a8361119c565b905081600660008573ffffffffffffffffffffffffffffffffffffffff1673ffffffffffffffffffffffffffffffffffffffff168152602001908152602001600020600083815260200190815260200160002081905550806007600084815260200190815260200160002081905550505050565b600073ffffffffffffffffffffffffffffffffffffffff168273ffffffffffffffffffffffffffffffffffffffff161415612f0e576040517f08c379a0000000000000000000000000000000000000000000000000000000008152600401612f0590613c13565b60405180910390fd5b612f1781611d5b565b15612f57576040517f08c379a0000000000000000000000000000000000000000000000000000000008152600401612f4e90613af3565b60405180910390fd5b612f636000838361285f565b6001600360008473ffffffffffffffffffffffffffffffffffffffff1673ffffffffffffffffffffffffffffffffffffffff1681526020019081526020016000206000828254612fb39190613e42565b92505081905550816002600083815260200190815260200160002060006101000a81548173ffffffffffffffffffffffffffffffffffffffff021916908373ffffffffffffffffffffffffffffffffffffffff160217905550808273ffffffffffffffffffffffffffffffffffffffff16600073ffffffffffffffffffffffffffffffffffffffff167fddf252ad1be2c89b69c2b068fc378daa952ba7f163c4a11628f55a4df523b3ef60405160405180910390a45050565b6040518061012001604052806009905b606081526020019060019003908161307c5790505090565b60006130a76130a284613dce565b613da9565b9050828152602081018484840111156130c3576130c26142de565b5b6130ce848285614049565b509392505050565b6000813590506130e5816149b4565b92915050565b6000813590506130fa816149cb565b92915050565b60008135905061310f816149e2565b92915050565b600081519050613124816149e2565b92915050565b600082601f83011261313f5761313e6142d9565b5b813561314f848260208601613094565b91505092915050565b600081359050613167816149f9565b92915050565b60008135905061317c81614a10565b92915050565b600060208284031215613198576131976142e8565b5b60006131a6848285016130d6565b91505092915050565b600080604083850312156131c6576131c56142e8565b5b60006131d4858286016130d6565b92505060206131e5858286016130d6565b9150509250929050565b600080600060608486031215613208576132076142e8565b5b6000613216868287016130d6565b9350506020613227868287016130d6565b925050604061323886828701613158565b9150509250925092565b6000806000806080858703121561325c5761325b6142e8565b5b600061326a878288016130d6565b945050602061327b878288016130d6565b935050604061328c87828801613158565b925050606085013567ffffffffffffffff8111156132ad576132ac6142e3565b5b6132b98782880161312a565b91505092959194509250565b600080604083850312156132dc576132db6142e8565b5b60006132ea858286016130d6565b92505060206132fb858286016130eb565b9150509250929050565b6000806040838503121561331c5761331b6142e8565b5b600061332a858286016130d6565b925050602061333b85828601613158565b9150509250929050565b60006020828403121561335b5761335a6142e8565b5b600061336984828501613100565b91505092915050565b600060208284031215613388576133876142e8565b5b600061339684828501613115565b91505092915050565b6000602082840312156133b5576133b46142e8565b5b60006133c384828501613158565b91505092915050565b6000602082840312156133e2576133e16142e8565b5b60006133f08482850161316d565b91505092915050565b61340281613fc5565b82525050565b61341181613fd7565b82525050565b600061342282613dff565b61342c8185613e15565b935061343c818560208601614058565b613445816142ed565b840191505092915050565b600061345b82613e0a565b6134658185613e26565b9350613475818560208601614058565b61347e816142ed565b840191505092915050565b600061349482613e0a565b61349e8185613e37565b93506134ae818560208601614058565b80840191505092915050565b60006134c7602b83613e26565b91506134d2826142fe565b604082019050919050565b60006134ea603283613e26565b91506134f58261434d565b604082019050919050565b600061350d602683613e26565b91506135188261439c565b604082019050919050565b6000613530601c83613e26565b915061353b826143eb565b602082019050919050565b6000613553601e83613e26565b915061355e82614414565b602082019050919050565b6000613576604e83613e37565b91506135818261443d565b604e82019050919050565b6000613599601383613e26565b91506135a4826144b2565b602082019050919050565b60006135bc602483613e26565b91506135c7826144db565b604082019050919050565b60006135df601983613e26565b91506135ea8261452a565b602082019050919050565b6000613602602c83613e26565b915061360d82614553565b604082019050919050565b6000613625600583613e37565b9150613630826145a2565b600582019050919050565b6000613648603883613e26565b9150613653826145cb565b604082019050919050565b600061366b602a83613e26565b91506136768261461a565b604082019050919050565b600061368e602983613e26565b915061369982614669565b604082019050919050565b60006136b1600283613e37565b91506136bc826146b8565b600282019050919050565b60006136d4602083613e26565b91506136df826146e1565b602082019050919050565b60006136f7602c83613e26565b91506137028261470a565b604082019050919050565b600061371a602083613e26565b915061372582614759565b602082019050919050565b600061373d600e83613e26565b915061374882614782565b602082019050919050565b6000613760602983613e26565b915061376b826147ab565b604082019050919050565b6000613783601283613e26565b915061378e826147fa565b602082019050919050565b60006137a6601383613e37565b91506137b182614823565b601382019050919050565b60006137c9602183613e26565b91506137d48261484c565b604082019050919050565b60006137ec601d83613e37565b91506137f78261489b565b601d82019050919050565b600061380f603183613e26565b915061381a826148c4565b604082019050919050565b6000613832602c83613e26565b915061383d82614913565b604082019050919050565b6000613855601383613e26565b915061386082614962565b602082019050919050565b6000613878601f83613e26565b91506138838261498b565b602082019050919050565b6138978161402f565b82525050565b6138a681614039565b82525050565b60006138b88284613489565b915081905092915050565b60006138cf8285613489565b91506138db8284613489565b91508190509392505050565b60006138f3828c613489565b91506138ff828b613489565b915061390b828a613489565b91506139178289613489565b91506139238288613489565b915061392f8287613489565b915061393b8286613489565b91506139478285613489565b91506139538284613489565b91508190509a9950505050505050505050565b600061397182613618565b915061397d8284613489565b915081905092915050565b600061399382613799565b915061399f8285613489565b91506139aa82613569565b91506139b68284613489565b91506139c1826136a4565b91508190509392505050565b60006139d8826137df565b91506139e48284613489565b915081905092915050565b6000602082019050613a0460008301846133f9565b92915050565b6000608082019050613a1f60008301876133f9565b613a2c60208301866133f9565b613a39604083018561388e565b8181036060830152613a4b8184613417565b905095945050505050565b6000602082019050613a6b6000830184613408565b92915050565b60006020820190508181036000830152613a8b8184613450565b905092915050565b60006020820190508181036000830152613aac816134ba565b9050919050565b60006020820190508181036000830152613acc816134dd565b9050919050565b60006020820190508181036000830152613aec81613500565b9050919050565b60006020820190508181036000830152613b0c81613523565b9050919050565b60006020820190508181036000830152613b2c81613546565b9050919050565b60006020820190508181036000830152613b4c8161358c565b9050919050565b60006020820190508181036000830152613b6c816135af565b9050919050565b60006020820190508181036000830152613b8c816135d2565b9050919050565b60006020820190508181036000830152613bac816135f5565b9050919050565b60006020820190508181036000830152613bcc8161363b565b9050919050565b60006020820190508181036000830152613bec8161365e565b9050919050565b60006020820190508181036000830152613c0c81613681565b9050919050565b60006020820190508181036000830152613c2c816136c7565b9050919050565b60006020820190508181036000830152613c4c816136ea565b9050919050565b60006020820190508181036000830152613c6c8161370d565b9050919050565b60006020820190508181036000830152613c8c81613730565b9050919050565b60006020820190508181036000830152613cac81613753565b9050919050565b60006020820190508181036000830152613ccc81613776565b9050919050565b60006020820190508181036000830152613cec816137bc565b9050919050565b60006020820190508181036000830152613d0c81613802565b9050919050565b60006020820190508181036000830152613d2c81613825565b9050919050565b60006020820190508181036000830152613d4c81613848565b9050919050565b60006020820190508181036000830152613d6c8161386b565b9050919050565b6000602082019050613d88600083018461388e565b92915050565b6000602082019050613da3600083018461389d565b92915050565b6000613db3613dc4565b9050613dbf82826140e7565b919050565b6000604051905090565b600067ffffffffffffffff821115613de957613de86142aa565b5b613df2826142ed565b9050602081019050919050565b600081519050919050565b600081519050919050565b600082825260208201905092915050565b600082825260208201905092915050565b600081905092915050565b6000613e4d8261402f565b9150613e588361402f565b9250827fffffffffffffffffffffffffffffffffffffffffffffffffffffffffffffffff03821115613e8d57613e8c6141bf565b5b828201905092915050565b6000613ea382614039565b9150613eae83614039565b92508263ffffffff03821115613ec757613ec66141bf565b5b828201905092915050565b6000613edd8261402f565b9150613ee88361402f565b925082613ef857613ef76141ee565b5b828204905092915050565b6000613f0e8261402f565b9150613f198361402f565b9250817fffffffffffffffffffffffffffffffffffffffffffffffffffffffffffffffff0483118215151615613f5257613f516141bf565b5b828202905092915050565b6000613f688261402f565b9150613f738361402f565b925082821015613f8657613f856141bf565b5b828203905092915050565b6000613f9c82614039565b9150613fa783614039565b925082821015613fba57613fb96141bf565b5b828203905092915050565b6000613fd08261400f565b9050919050565b60008115159050919050565b60007fffffffff0000000000000000000000000000000000000000000000000000000082169050919050565b600073ffffffffffffffffffffffffffffffffffffffff82169050919050565b6000819050919050565b600063ffffffff82169050919050565b82818337600083830152505050565b60005b8381101561407657808201518184015260208101905061405b565b83811115614085576000848401525b50505050565b600061409682614039565b915060008214156140aa576140a96141bf565b5b600182039050919050565b600060028204905060018216806140cd57607f821691505b602082108114156140e1576140e061421d565b5b50919050565b6140f0826142ed565b810181811067ffffffffffffffff8211171561410f5761410e6142aa565b5b80604052505050565b60006141238261402f565b91507fffffffffffffffffffffffffffffffffffffffffffffffffffffffffffffffff821415614156576141556141bf565b5b600182019050919050565b600061416c82614039565b915063ffffffff821415614183576141826141bf565b5b600182019050919050565b60006141998261402f565b91506141a48361402f565b9250826141b4576141b36141ee565b5b828206905092915050565b7f4e487b7100000000000000000000000000000000000000000000000000000000600052601160045260246000fd5b7f4e487b7100000000000000000000000000000000000000000000000000000000600052601260045260246000fd5b7f4e487b7100000000000000000000000000000000000000000000000000000000600052602260045260246000fd5b7f4e487b7100000000000000000000000000000000000000000000000000000000600052603160045260246000fd5b7f4e487b7100000000000000000000000000000000000000000000000000000000600052603260045260246000fd5b7f4e487b7100000000000000000000000000000000000000000000000000000000600052604160045260246000fd5b600080fd5b600080fd5b600080fd5b600080fd5b6000601f19601f8301169050919050565b7f455243373231456e756d657261626c653a206f776e657220696e646578206f7560008201527f74206f6620626f756e6473000000000000000000000000000000000000000000602082015250565b7f4552433732313a207472616e7366657220746f206e6f6e20455243373231526560008201527f63656976657220696d706c656d656e7465720000000000000000000000000000602082015250565b7f4f776e61626c653a206e6577206f776e657220697320746865207a65726f206160008201527f6464726573730000000000000000000000000000000000000000000000000000602082015250565b7f4552433732313a20746f6b656e20616c7265616479206d696e74656400000000600082015250565b7f427579696e67206120776f7264206973202e303120657468657265756d2e0000600082015250565b7f222c20226465736372697074696f6e223a202274686973206973206120776f7260008201527f64206d61796265222c2022696d616765223a2022646174613a696d6167652f7360208201527f76672b786d6c3b6261736536342c000000000000000000000000000000000000604082015250565b7f4e6f206d6f7265206672656520776f7264732e00000000000000000000000000600082015250565b7f4552433732313a207472616e7366657220746f20746865207a65726f2061646460008201527f7265737300000000000000000000000000000000000000000000000000000000602082015250565b7f4552433732313a20617070726f766520746f2063616c6c657200000000000000600082015250565b7f4552433732313a206f70657261746f7220717565727920666f72206e6f6e657860008201527f697374656e7420746f6b656e0000000000000000000000000000000000000000602082015250565b7f4c55434b59000000000000000000000000000000000000000000000000000000600082015250565b7f4552433732313a20617070726f76652063616c6c6572206973206e6f74206f7760008201527f6e6572206e6f7220617070726f76656420666f7220616c6c0000000000000000602082015250565b7f4552433732313a2062616c616e636520717565727920666f7220746865207a6560008201527f726f206164647265737300000000000000000000000000000000000000000000602082015250565b7f4552433732313a206f776e657220717565727920666f72206e6f6e657869737460008201527f656e7420746f6b656e0000000000000000000000000000000000000000000000602082015250565b7f227d000000000000000000000000000000000000000000000000000000000000600082015250565b7f4552433732313a206d696e7420746f20746865207a65726f2061646472657373600082015250565b7f4552433732313a20617070726f76656420717565727920666f72206e6f6e657860008201527f697374656e7420746f6b656e0000000000000000000000000000000000000000602082015250565b7f4f776e61626c653a2063616c6c6572206973206e6f7420746865206f776e6572600082015250565b7f4e6f206d6f726520776f7264732e000000000000000000000000000000000000600082015250565b7f4552433732313a207472616e73666572206f6620746f6b656e2074686174206960008201527f73206e6f74206f776e0000000000000000000000000000000000000000000000602082015250565b7f576f7264206e6f74206d616465207965742e0000000000000000000000000000600082015250565b7f7b226e616d65223a2022576f72642e2e2e3f2000000000000000000000000000600082015250565b7f4552433732313a20617070726f76616c20746f2063757272656e74206f776e6560008201527f7200000000000000000000000000000000000000000000000000000000000000602082015250565b7f646174613a6170706c69636174696f6e2f6a736f6e3b6261736536342c000000600082015250565b7f4552433732313a207472616e736665722063616c6c6572206973206e6f74206f60008201527f776e6572206e6f7220617070726f766564000000000000000000000000000000602082015250565b7f455243373231456e756d657261626c653a20676c6f62616c20696e646578206f60008201527f7574206f6620626f756e64730000000000000000000000000000000000000000602082015250565b7f416c7265616479206f776e206120776f72642e00000000000000000000000000600082015250565b7f5265656e7472616e637947756172643a207265656e7472616e742063616c6c00600082015250565b6149bd81613fc5565b81146149c857600080fd5b50565b6149d481613fd7565b81146149df57600080fd5b50565b6149eb81613fe3565b81146149f657600080fd5b50565b614a028161402f565b8114614a0d57600080fd5b50565b614a1981614039565b8114614a2457600080fd5b5056fe3c2f746578743e3c7465787420783d2237352220793d2234302220636c6173733d2262617365223e3c2f746578743e3c7465787420783d2233352220793d2234302220636c6173733d2262617365223e4142434445464748494a4b4c4d4e4f505152535455565758595a6162636465666768696a6b6c6d6e6f707172737475767778797a303132333435363738392b2f3c73766720786d6c6e733d22687474703a2f2f7777772e77332e6f72672f323030302f73766722207072657365727665417370656374526174696f3d22784d696e594d696e206d656574222076696577426f783d2230203020313030203530223e3c7374796c653e2e62617365207b2066696c6c3a2077686974653b20666f6e742d66616d696c793a2073657269663b20666f6e742d73697a653a20313470783b207d3c2f7374796c653e3c726563742077696474683d223130302522206865696768743d2231303025222066696c6c3d22626c61636b22202f3e3c7465787420783d2232302220793d2231352220636c6173733d2262617365223e574f52442e2e2e3f3c2f746578743e3c7465787420783d2231352220793d2234302220636c6173733d2262617365223e3c2f746578743e3c7465787420783d2235352220793d2234302220636c6173733d2262617365223ea2646970667358221220b766bd1a9151d80b4cee2e06042957a86e0659d941f907279f433a8958fe4c8b64736f6c63430008060033",
  "linkReferences": {},
  "deployedLinkReferences": {}
}